:100000000C94D7020C941E030C941E030C941E0334
:100010000C941E030C941E030C941E030C941E03DC
:100020000C941E030C941E030C941E030C94752B4D
:100030000C94242C0C9403260C941E030C941E0385
:100040000C941E030C941E030C941E030C945C264B
:100050000C941E030C941E030C941E030C941E039C
:100060000C941E030C941E030C941E030C941E038C
:100070000C941E03BE06BE06EA06EA065207700787
:10008000680868087B07E307F407F407580868085E
:10009000680861081A091A092C092C0923092C0976
:1000A0002C092C091A091A0928092C092C092809D4
:1000B0003E1F411F611F721F7A1F851F881F8B1FE4
:1000C0008E1FD41FD41F911F941F991FA61FB31FEB
:1000D000B61FBA1FC71F912CB82CB02DB82CB02D4D
:1000E000042D272DB02D7E2D8D2D59005A005B003B
:1000F0005D005E005F00610062002E0201000100F1
:1001000001000100010001000100010001000100E7
:1001100001000100010001000100010001000100D7
:1001200001000100010001000100010001000100C7
:10013000010000000000000000002A2B2800000041
:100140000000000000000000000000000029000086
:1001500000002C1E3420212224342627252E362D63
:100160003738271E1F202122232425263333362EFD
:1001700037381F0405060708090A0B0C0D0E0F106F
:100180001112131415161718191A1B1C1D2F3130B4
:10019000232D350405060708090A0B0C0D0E0F1058
:1001A0001112131415161718191A1B1C1D2F313094
:1001B000354C0000000000000000000000000000BE
:1001C000000000000000000000000000000000002F
:1001D0000000000000007E0F00D4FFFFFFC70000FA
:1001E000007800047F3F1F643214643214783C1E90
:1001F0001E140A052223252628292A2C2D2F3032C9
:10020000333536383A3B3D3E4042434547494A4CF8
:100210004E5051535557595A5C5E60626466686926
:100220006B6D6F71737577797B7D7F81838587892E
:100230008A8C8E90929496989A9C9E9FA1A3A5A733
:10024000A8AAACAEAFB1B3B4B6B8B9BBBCBEBFC15F
:10025000C2C3C5C6C7C9CACBCCCDCED0D1D2D2D3EA
:10026000D4D5D6D7D7D8D9D9DADADBDBDBDCDCDCFE
:10027000DCDCDDDDDDDDDCDCDCDCDCDBDBDBDADAC1
:10028000D9D9D8D7D7D6D5D4D3D2D2D1D0CECDCC38
:10029000CBCAC9C7C6C5C3C2C1BFBEBCBBB9B8B64D
:1002A000B4B3B1AFAEACAAA8A7A5A3A19F9E9C9AD8
:1002B00098969492908E8C8A89878583817F7D7BA6
:1002C00079777573716F6D6B6968666462605E5C87
:1002D0005A5957555351504E4C4A4947454342404D
:1002E0003E3D3B3A3836353332302F2D2C2A2928E3
:1002F00026252322FFAA7F554000010101010101AB
:1003000001010102020202020202020203030303CC
:10031000030303030404040404040405050505059C
:10032000060606060607070707070808080809095A
:1003300009090A0A0A0B0B0B0C0C0C0D0D0D0E0E05
:100340000E0F0F0F10101111111212131314141598
:100350001516161717181819191A1A1B1B1C1D1D0C
:100360001E1E1F2020212222232424252626272862
:1003700029292A2B2C2D2D2E2F3031323233343592
:10038000363738393A3B3C3D3E3F40414243444595
:10039000464748494A4C4D4E4F5051535455565874
:1003A000595A5B5D5E5F616264656668696B6C6D1E
:1003B0006F7072737577787A7B7D7E808283858794
:1003C000888A8C8E8F91939596989A9C9EA0A2A3D2
:1003D000A5A7A9ABADAFB1B3B5B7BABCBEC0C2C4D7
:1003E000C6C9CBCDCFD1D4D6D8DBDDDFE2E4E7E997
:1003F000EBEEF0F3F5F8FAFDFF14034E0061006E2A
:10040000006F0050006100640020003900000014FB
:10041000034800410049005A0041004B005500527A
:1004200000410000000403090409025B000301000D
:10043000A0FA0904000001030101000921110100D3
:10044000012240000705810308000A090401000297
:10045000030000000921110100012222000705828A
:100460000320000107050303200001090402000125
:100470000300000009211101000122B600070584D4
:100480000320000A1201000200000008EDFE030034
:100490000100010200010660FF0961A10109621566
:1004A0000026FF009520750881020963150026FFCC
:1004B00000952075089102C005010902A10185027D
:1004C0000901A10005091901290815002501950850
:1004D000750181020501093009311581257F9502D9
:1004E0007508810609381581257F950175088106F3
:1004F000050C0A38021581257F950175088106C013
:10050000C005010980A101850319012AB700150161
:1005100026B700950175108100C0050C0901A101E5
:10052000850419012AA002150126A0029501751063
:100530008100C005010906A1018506050719E0290A
:10054000E7150025019508750181020507190029A5
:10055000EF1500250195F0750181020508190129A3
:1005600005950575019102950175039101C005017D
:100570000906A101050719E029E7150025019508DD
:10058000750181029501750881010507190029FF90
:10059000150026FF00950675088100050819012938
:1005A00005950575019102950175039101C011240E
:1005B0001FBECFEFD4E0DEBFCDBF04B603FE27C021
:1005C0008091CA029091CB02A091CC02B091CD0251
:1005D0008730904BA740B04BD1F41092CA021092D2
:1005E000CB021092CC021092CD0214BE84B7877F4A
:1005F00084BF0FB6F894A8958091600088618093BD
:100600006000109260000FBEE0E0F8E3099511E091
:10061000A0E0B1E0E8EDFDE502C005900D92A83C38
:10062000B107D9F722E0A8ECB1E001C01D92AA3CC5
:10063000B207E1F70E9412140C94EA2E0C94000009
:100640009C013A9521153F4130F5BC016627727037
:10065000AC01442754709C012227387094FF0FC0CE
:1006600090FF02C080E101C080E0672B09F080624A
:10067000452B09F08064232B79F080680895892F39
:100680008170672B09F08260452B09F08460232B71
:1006900019F08860089580E00895CF93DF93EC010E
:1006A000805E9109089710F0209731F4CE010E94E6
:1006B00020030E94790605C0CE010E9420030E94FB
:1006C000E0088C2FDF91CF910C94CF05CF93DF936F
:1006D000EC010E942506CE01805E9109089710F07A
:1006E000209739F4CE010E942003DF91CF910C9422
:1006F0008006CE010E942003DF91CF910C94E70881
:10070000CF93DF93EC010E944D03CE01DF91CF9197
:100710000C94660381E0089581E008950C948C03A5
:1007200008950C9490031F93CF93DF9300D000D0D3
:100730001F92CDB7DEB749835A836B833091CA01CC
:1007400089819A81311114C0662359F0222349F01E
:100750000E94120A182F682F89819A810E94B90974
:1007600003C00E94E809182F69817A81812F04C093
:100770000E94120A69817A810F900F900F900F905A
:100780000F90DF91CF911F910C94BF22FC01262F77
:10079000408151816281738184810C94930381E053
:1007A0000895CF93DF93EC0160E00E94C603BE0181
:1007B000DF91CF910C949103E1E0F0E0DF0102C002
:1007C000AA0FBB1F6A95E2F7BD01DF0102C0AA0FA5
:1007D000BB1F4A95E2F7AD01462B01C0EE0F2A95EB
:1007E000EAF7942F9823491302C08E2B0895E095C1
:1007F0008E230895242F462F682F8091D1010E94C7
:10080000DC030C9476090E94B8120E9475050E94C0
:1008100008200C94E8120C94E41208950C940D0432
:100820000C940E040E94100480E00C9476050C9445
:100830000D040E9408090E9417042FEF84E39CE036
:10084000215080409040E1F700C000000C948226C7
:100850000F931F93CF93DF938C0161E00E94C60337
:10086000EC01B8010E94961E882309F452C0B80119
:10087000CE010E948E03882309F44BC0B801CE013B
:100880000E94AC20882309F444C0B801CE010E9424
:1008900025248823F1F1B801CE010E94CA208823C3
:1008A000C1F1B801CE010E948123882391F1B801E2
:1008B000CE010E94421D882361F1F80182818823C4
:1008C00009F1CA358DE5D807C1F050F4C115FCE532
:1008D000DF0781F0CE3DDC45A9F40E94AF0F19C0BF
:1008E000CB35EDE5DE0761F0CC35DD4559F40E94EE
:1008F000F30E08C00E9419040CC00E94FC0E02C036
:100900000E94FF0EC801DF91CF911F910F910C94AF
:100910008A0380E0DF91CF911F910F9108950C948D
:100920000D040E9481240E9476050C948F04DF92AE
:10093000EF92FF920F931F93CF93DF93E82FF0E096
:10094000EE5CFE4FD490282F26952695269530E014
:10095000F901EE52FE4F0491877010E0082E02C09C
:10096000159507950A94E2F701701127F901EE53E6
:10097000FE4FE490F12C082E02C0F594E7940A94FF
:10098000E2F791E0E922FF24F901EE54FE4FC49111
:10099000D0E002C0D595C7958A95E2F7C170DD27F2
:1009A0000115110519F081EE0E94CF05E114F10443
:1009B00019F086EE0E94CF058D2D0E947006EF285B
:1009C00019F086EE0E942506012B19F081EE0E9497
:1009D0002506CD2B51F08CE2DF91CF911F910F9125
:1009E000FF90EF90DF900C947006DF91CF911F91F4
:1009F0000F91FF90EF90DF900895EF92FF921F9379
:100A0000CF93DF93EC01162F8881882309F453C01C
:100A1000813009F041C08981813041F47E0182E05A
:100A2000E80EF11C8A810E94700609C0823049F4E8
:100A30007E01E2E0EE0EF11C8A810E94CF05E70103
:100A40002DC0833041F47E01F2E0EF0EF11C8A816B
:100A50000E942506F4CF843011F021961FC02A8110
:100A6000229680E090E030E0205331092A303105B1
:100A700048F46AE070E00E94ED2D820F931F2196EA
:100A80002881F1CF009751F0EFE9FFE03197F1F7BE
:100A900000C000000197F6CF0E9497042196812F95
:100AA000882309F4B1CFEFE9FFE03197F1F700C0F7
:100AB00000008150F5CFDF91CF911F91FF90EF9013
:100AC000089560E00C94FD04982F9F709A50963022
:100AD00010F0805D01C0895A0C94970408950C941D
:100AE0006E0581E008950C9471050895CF93C82F89
:100AF0000E946F058C2F0E947305CF910895CF93AC
:100B0000DF93CDB7DEB72B970FB6F894DEBF0FBEDD
:100B1000CDBF4F83588769877A878B8761110E9481
:100B20003F0E9E012F5F3F4F86E0F90111928A959B
:100B3000E9F785E0FE013796D90101900D928A957B
:100B4000E1F789819A814C815D81452B31F09F3F8E
:100B500031F491E08F3F19F403C091E001C090E0BF
:100B600090FF09C049815A816B817C818D819E8172
:100B70000E94580D05C0C9010E94CF038111F2CF18
:100B80002B960FB6F894DEBF0FBECDBFDF91CF918D
:100B90000895FC01808191810E943F0A0895CF93BE
:100BA000882309F450C0C82F8CEF8C0F813AD0F401
:100BB0006C2F80910201909103010E94FA248823F6
:100BC00049F06C2F80910201909103010E948525CC
:100BD0000E94710E6C2F80910201909103010E947E
:100BE0007A250CC080E28C0F883058F4C77081E001
:100BF00001C0880FCA95EAF70E941F0ECF910C948E
:100C0000710EEBE5EC0FE33040F4F0E0E65AFE4FF6
:100C1000808190E0CF910C94B824E8E5EC0FE731A7
:100C200050F4F0E0EE0FFF1FE45DFE4F80819181F4
:100C3000CF910C94CE24C03F30F08C2F0E94A5148D
:100C4000CF910C947715CF910895882389F19CEF6B
:100C5000980F913A40F4682F80910201909103011E
:100C60000E9485250DC090E2980F983058F4877047
:100C700091E001C0990F8A95EAF7892F0E94250E0D
:100C80000C94710E9BE5980F933020F480E090E077
:100C90000C94B82498E5980F973120F480E090E008
:100CA0000C94CE24803F20F00E9400150C94771500
:100CB00008951F93CF93DF93182FEB010E94CF0568
:100CC000209741F08FE99FE00197F1F700C0000005
:100CD0002197F6CF812FDF91CF911F910C9425069C
:100CE000893319F060E070E002C060E570E00C94B8
:100CF0005906882321F00E941F0E0C94710E08954E
:100D0000882321F00E94250E0C94710E0895CF9235
:100D1000DF92EF92FF920F931F93CF93DF937C01AB
:100D2000162FC72FFC01D281058102950F700E94FA
:100D3000150E8823B9F0DD23A9F08C2F807F803435
:100D400021F080E2810F883068F080918B0282FD73
:100D500009C082E00E94C10E0E94150E91E0D82EBB
:100D6000D92601C0D12CCC2EC2948FE0C8228C2D64
:100D700090E0FC01E65CFF4F0C946F2E8C2F807F7F
:100D8000CF70882311F0C295C07FDD2399F0CC236A
:100D900009F479C180E2810F883010F0111104C08C
:100DA0008C2F0E941F0E03C08C2F0E94320E0E94B7
:100DB000710E69C1812F0E942506CC2309F488C1D8
:100DC00080E2810F883038F1112329F18C2F0E94A5
:100DD000380E24C08C2F807FCF70803211F0C295E6
:100DE000C07F112319F01130A1F13DC080918B0219
:100DF00082FF17C0DD2349F0CC2329F08C2F0E94FD
:100E00001F0E0E94710E80E03FC180E00E94250607
:100E1000CC2309F45DC18C2F0E94250E0E94710E17
:100E200057C1DD2371F0002341F0013031F40E94FD
:100E3000520E8C2B0E945A0E4BC10E94520E8C2BCC
:100E40001DC0002319F0013009F442C10E94670E51
:100E500025C0DD2321F0063008F03AC10EC0053070
:100E600008F036C11BC0DD2361F0002331F0F7012B
:100E7000858180FF08C18F7085838C2F0E94790641
:100E800027C1002359F0193309F00EC1FFEF27EEF7
:100E900083E0F15020408040E1F704C18C2F0E9494
:100EA000800616C18C2F86958695837019F0813047
:100EB00061F00EC1DD2321F0812F9C2F937002C0C1
:100EC00080E090E00E94B8240BC1DD2321F0812F47
:100ED0009C2F937002C080E090E00E94CE2400C15D
:100EE000812FDD2319F00E94A51402C00E94001575
:100EF0000E947715F5C08C2F837079F5D111ECC065
:100F0000412F429546954770440F440F212F2F7073
:100F1000042E01C0220F0A94EAF714FF08C08FE0E4
:100F200090E001C0880F4A95EAF7809501C080E003
:100F3000C695C695C370822BC23049F058F4C130B3
:100F400019F00E946A09C8C00E946509C5C00E94C4
:100F50006F09C2C00E946309BFC0DD2319F08C2F46
:100F6000817001C08695882309F4B6C0412F42954F
:100F700046954770440F440F212F2F70042E01C057
:100F8000220F0A94EAF714FF08C08FE090E001C036
:100F9000880F4A95EAF7809501C080E0C695C6950E
:100FA000C370822BC23049F058F4C13019F00E944E
:100FB000AE0992C00E94A9098FC00E94B3098CC0DB
:100FC0000E94760989C0CF70DD2339F08C2F0E94F2
:100FD0008709812F0E9479067FC0812F0E94800699
:100FE0008C2F0E94920978C0123F21F128F4103F03
:100FF00041F0113FC1F043C0133F19F1143F79F0A4
:101000003EC0DD2341F0053008F062C08C2F8F71A7
:101010000E949E095DC0063008F05AC0F7CF80914B
:101020008B0282FF18C0DD2339F08C2F8F710E9454
:1010300087094EC0DD23C9F38C2F8F710E9492095E
:1010400047C0DD2329F08C2F8F710E947F0940C09B
:101050000E947C093DC0DD2349F0CF718C2F0E9496
:10106000870963E08C2F0E94A60E32C081E00E94A7
:10107000C10E023068F182E00E94C10E29C0DD235A
:1010800031F0002391F2812F0E94CF0521C000236F
:1010900099F2193349F49FEFE7EEF3E09150E04005
:1010A000F040E1F700C00000812F0E94250610C02B
:1010B0004C2F4F70612FC7010E9490100E946D0A43
:1010C0000FC04C2F4F70612FC7010E94931008C0B2
:1010D00088EF8C0D843020F40E9481240E947605D4
:1010E000DD20C9F00E94110E80FD15C0F7011282AB
:1010F0000E940B0E0E948709C7010E94AC080E9443
:101100000B0EDF91CF911F910F91FF90EF90DF9029
:10111000CF900C949209DF91CF911F910F91FF9086
:10112000EF90DF90CF9008950F931F93CF93DF93AD
:10113000EC01688179818A810E944A0A8C010E94AF
:10114000B8090E945709B801CE010E948706DF91B5
:10115000CF911F910F910895CF93DF93EC01988168
:1011600089812B813C81232B31F08F3F31F481E049
:101170009F3F19F403C081E001C080E080FD1DC0E5
:10118000CE010E942804811110C00E94150E8823F0
:10119000A1F08A81882389F080918B0282FD0DC0A5
:1011A00082E0DF91CF910C94C10ECE010E94940891
:1011B000CE01DF91CF910C94D103DF91CF910895AF
:1011C000882321F00E94320E0C94710E089588231A
:1011D00021F00E94380E0C94710E089580E090E08A
:1011E0000E94B82480E090E00E94CE240E943F0E2E
:1011F0000E944F0E0E94710E0E94B6160C94771535
:1012000080910201909103010E9490250C94EE08B8
:101210000E942F0E0C940009E92FE295EF704E2FDB
:1012200050E0FA013297EE30F105B0F4E65BFF4F83
:101230000C946F2E803F91F018F4883E68F40EC035
:10124000843F51F40BC0883E48F0813F29F406C02A
:1012500093FB882780F9089580E0089581E0089540
:10126000FC01808191810E943F0A0E940C0908952F
:10127000CF93DF9300D000D01F92CDB7DEB70F9091
:101280000F900F900F900F90DF91CF910895CF9313
:10129000DF9300D000D000D0CDB7DEB726960FB6D2
:1012A000F894DEBF0FBECDBFDF91CF9108950895B2
:1012B00008950C9458090C9459090E945B09809375
:1012C000D2010C94EE080C945D099091D201892B07
:1012D0000C945D099091D20189230C945D09909141
:1012E000D20189270C945D090C9458090E94740955
:1012F0008093D1010C94EE0880E00C94760991E083
:1013000001C0990F8A95EAF7892F0C94760921E09C
:1013100030E001C0220F8A95EAF78091D101822B3B
:101320000C94760921E030E001C0220F8A95EAF79B
:1013300020958091D10182230C94760921E030E040
:1013400001C0220F8A95EAF78091D10182270C947F
:1013500076099091D101892B0C9476099091D10155
:1013600089230C9476099091D10189270C947609F0
:101370000895362F292F220F920F890F982F9770DB
:10138000A1E001C0AA0F9A95EAF786958695869501
:1013900090E063E070E00E94ED2DFC01E553FE4F0C
:1013A00040E050E0632F70E090819B01042E02C06A
:1013B000369527950A94E2F72170219529272A234B
:1013C000292721934F5F5F4F4330510569F70895F7
:1013D000292F220F920F890FA82FA7708695869527
:1013E000869590E063E070E00E94ED2DFC01E553EE
:1013F000FE4F40E050E080E0219130E00A2E02C034
:10140000369527950A94E2F721703327042E01C000
:10141000220F0A94EAF7822B4F5F5F4F433051054A
:1014200059F70895CF92DF92FF920F931F93CF93B6
:10143000DF936C010091D1018091D201082BC7E0AC
:10144000D0E010E0C8010C2E02C0959587950A9453
:10145000E2F780FD04C02197A8F7F12C07C0FC2E0D
:10146000B6018C2F0E94C2110197A9F38F2DDF9135
:10147000CF911F910F91FF90DF90CF900895CF9360
:10148000DF93EC010E94120ABE010E94C211DF919B
:10149000CF9108951F93CF93DF93EB019091CA01F1
:1014A000992321F0CB010E943F0A13C0882349F001
:1014B000CB010E94120A182F682FCE010E94B90991
:1014C00004C0CB010E94E809182FBE01812F0E94A1
:1014D000C211DF91CF911F910895EF92FF920F9368
:1014E0001F93CF93DF938C01892B09F46CC0F12CEF
:1014F000EE24E394E8012196F8018491843740F4C6
:10150000843008F051C0813081F0823019F15BC025
:10151000853709F444C0A8F19CE7980F903708F08C
:1015200052C08F770E94250641C00E5F1F4FFE01FB
:10153000849190E2980F983050F48770FE2D01C08E
:10154000FF0F8A95EAF78F2F0E94420E14C00E9467
:10155000CF052DC00E5F1F4FFE01849190E2980FC2
:10156000983060F48770FE2D01C0FF0F8A95EAF76E
:101570008F2F0E94480E0E94710E19C00E942506EE
:1015800016C00E5F1F4FFE01C491CC2381F08FE97E
:101590009FE00197F1F700C00000C150F6CF0E5F49
:1015A0001F4FFE01F49003C00E94CF058E018F2DC6
:1015B000882309F49FCFEFE9FFE03197F1F700C0EE
:1015C00000008150F5CFDF91CF911F910F91FF90D7
:1015D000EF900895CF93DF93C091D3018091D40110
:1015E000C817A1F0D0E0CE0166E070E00E94ED2DBA
:1015F000FC01EB52FE4F40815181628173818481F5
:1016000095810E9447092196C770E8CFDF91CF915D
:101610000895409105025091060260910702709171
:1016200008028091090290910A020C944709FF92E6
:101630000F931F93CF93DF9380910A0282958F704F
:1016400009F062C080910702882309F45DC02091EF
:10165000D301F090D4011091050200910602A091EF
:101660000802B091090281E01F3F09F080E0C091BB
:101670000001D0910101482F2F1509F445C01097A2
:1016800021F00F3F21F080E003C081E001C0842FF2
:1016900030E080FD35C0C90166E070E00E94ED2DAC
:1016A000FC01EB52FE4F818180132AC0808181139F
:1016B00027C08281811124C0838194818A1B9B0B66
:1016C0008C179D07E8F480910A028F7080618093E7
:1016D0000A02C90166E070E00E94ED2DFC01E652AD
:1016E000FE4F90819F709061908385E092E00E9410
:1016F000AC08DF91CF911F910F91FF900C94EA0AF3
:101700002F5F3F4F2770B8CFDF91CF911F910F917F
:10171000FF9008959F92AF92BF92CF92DF92EF9287
:10172000FF920F931F93CF93DF93CDB7DEB76197EF
:101730000FB6F894DEBF0FBECDBF8C0185E0F80177
:10174000DE011D9601900D928A95E1F7F801E28085
:101750009091050230910602609108027091090291
:101760006115710531F03F3F31F481E09F3F19F47D
:1017700003C081E001C080E0F82FF1709F2E80FD52
:1017800047C1F80140812181A380B48085E0C82E43
:1017900082E0D82EF0900702F501E61BF70B60916E
:1017A000000170910101FF2009F4DCC080910A0260
:1017B000582F507FE617F70708F096C0511155C013
:1017C000231313C0491311C0FE2CE1100EC08F70FB
:1017D000806180930A020E94090BC6010E94AC0836
:1017E00080910A02F801858350C1AB2831F02F3F68
:1017F00031F481E04F3F19F403C081E001C080E083
:1018000080FD03C081E08E2502C080E090E0F82FCB
:10181000F170FF2E80FF1FC0E091D3013091D40101
:10182000E31709F410C1F0E0CF0166E070E00E9418
:10183000ED2DDC01AB52BE4F11968C911197281300
:1018400007C08C91481304C012968C91E81203C013
:101850003196E770E5CFFE2CEE2009F416C1809199
:101860000A02816080930A0254C0231306C0491300
:1018700004C0E11002C0F80199C0C8010E943009FB
:10188000882361F1EE2051F120910A02822F829586
:101890008F7090E0029774F080910502909106029B
:1018A00098878F831986BB86AA862C87CE010796D8
:1018B0000E94AC0886E0F801A5E0B2E001900D922C
:1018C0008A95E1F70E94170B0E94090B0AC02317A3
:1018D00011F1C8010E94300981112CC0C8010E9479
:1018E000AC08FF24F394D1C05111F1CF7A2DB98AFD
:1018F000A88A522F6E2D89890E94380985E092E0CE
:101900000E94AC0886E0F60111928A95E9F70E94E0
:10191000090BF12CBAC04913DCCFE110DACFF80182
:101920008583C8010E94AC0886E0F60111928A9571
:10193000E9F7ABC0EE2091F220910A02822F829546
:101940008F7090E002970CF4B5CF809105029091D2
:1019500006029A8389831B82BD82AC822E83CE01CC
:101960000196A6CFE617F70708F044C0FE2CEE203C
:1019700009F4B4CF231330C049132EC020910A02BA
:1019800020FD21C0822F82958F70482F50E0411595
:101990005105C9F0F80125834F30510541F08F5FA3
:1019A000982F9295907F822F8F70892B8583C80105
:1019B0000E94AC0886E0F801A5E0B2E001900D922B
:1019C0008A95E1F73DC086E0F801A5E0B2E001901C
:1019D0000D928A95E1F759C0C8010E943009811122
:1019E00069CF80910A02816080930A02C8010E9437
:1019F000AC084BC07A2DB98AA88A522F6E2D8989DE
:101A00000E94380986E0F60111928A95E9F718C01C
:101A1000EE2009F463CFC8010E943009F82E882314
:101A200009F45CCF86E0F801A5E0B2E001900D92E8
:101A30008A95E1F785E092E00E94C9050E94170BA4
:101A40000E94090B22C04D872E878D859E850E949E
:101A50003F0A292F22952F70223028F49F7039F0E9
:101A6000811105C00BC0243028F49F7049F4805EBA
:101A7000883020F0C8010E94AC089F2CF92C05C0CA
:101A8000F8019581907F99F7F9CF8F2D61960FB668
:101A9000F894DEBF0FBECDBFDF91CF911F910F91A4
:101AA000FF90EF90DF90CF90BF90AF909F90089500
:101AB000CF93DF93CDB7DEB72C970FB6F894DEBF88
:101AC0000FBECDBF4F83588769877A878B879C87E6
:101AD000CE0107960E948A0B8823D1F09F818885CA
:101AE0002A853B85232B31F08F3F31F481E09F3FE6
:101AF00019F403C081E001C080E080FD6FC04F8118
:101B0000588569857A858B859C850E94470966C0C2
:101B100086E0FE013796DE01119601900D928A95BE
:101B2000E1F7FF81E8856A857B856115710531F0F4
:101B3000EF3F31F481E0FF3F19F403C081E001C0C1
:101B400080E080FD4BC08091D40190E09C012F5F2C
:101B50003F4F277033274091D30150E024173507BA
:101B600009F443C0F983EA837D836C8366E070E007
:101B70000E94ED2DDC01AB52BE4F96E0FE01319686
:101B800001900D929A95E1F72093D4010E94EA0A00
:101B900025C090E066E070E00E94ED2D8B529E4FD4
:101BA0000E948A0B882371F18091D30190E066E056
:101BB00070E00E94ED2DFC01EB52FE4F40815181FF
:101BC00062817381848195810E9447098091D3014C
:101BD00090E00196877099278093D3018091D3017B
:101BE0009091D4018913D5CF0DC00E94080910929D
:101BF000D4011092D301E5E0F2E086E0DF011D920E
:101C00008A95E9F72C960FB6F894DEBF0FBECDBFCC
:101C1000DF91CF91089580910B02859585958595EB
:101C2000089580910B028770089590910B02977030
:101C300081E009F480E0089580912F020895909149
:101C40002F02892B80932F020895809590912F0267
:101C5000892380932F02089580932F020895109274
:101C60002F02089590912E02892B80932E020895C1
:101C7000809590912E02892380932E0208951092D0
:101C80002E02089590912D02892B80932D020895A4
:101C9000809590912D02892380932D0208951092B2
:101CA0002D02089580910C02089508950C94550E0C
:101CB0000C94560E90918B0292FD08C090910C02EC
:101CC000981721F080930C020C94580E089580917F
:101CD0000C02882329F010920C0280E00C94580E1C
:101CE0000895E0910201F091030180912F02808319
:101CF000E0910201F0910301908180912E02892BE5
:101D00008083E0910201F0910301908180912D0286
:101D1000892B808380910C02882381F0E09102015D
:101D2000F09103019081892B808380910201909131
:101D300003010E94E42481110E94670E8091020138
:101D4000909103010C9490240C94550E90918B0269
:101D500092FD10C0982F990F990F990F692B6093DE
:101D60000B020E94870980910B02859585958595C8
:101D70000C94A40E0C94870910920B0280E00C9432
:101D8000A40E20910B028095822380930B02982F42
:101D9000977099F430E0482F082E000C550B24174B
:101DA000350759F090918B0292FD07C08595859576
:101DB00085950E9492090C94BC0E089590918B0217
:101DC00092FB222720F9281769F080FB92F9909363
:101DD0008B0280918A0290918B020E942C0F82E0EC
:101DE0000C94C10E089580918B0282FB882780F9A4
:101DF00091E089270C94DE0E81E00C94DE0E80E0E9
:101E00000C94DE0E6FEF7FEF80E090E00C94D42E08
:101E100080E090E00E94B02E893E9E4F11F40C9419
:101E2000391E80E0089582E090E00C94A22E83E0B9
:101E300090E00C94A22ECF9384E090E00E94A22E1A
:101E4000C82F82E290E00E94A22E2C2F30E0A90140
:101E5000582BCA01CF910895CF93C92F682F84E0E2
:101E600090E00E94B62E6C2F82E290E0CF910C940D
:101E7000B62EAB01BC018FE090E00C94C82EAB01F4
:101E8000BC0183E190E00C94C82E60E070E0CB01CF
:101E90000C943F0F60E070E0CB010E94390F0C946E
:101EA000450F69EE7EEF80E090E00E94D42E60E066
:101EB00082E090E00E94B62E60E083E090E00E9415
:101EC000B62E1092D20160E084E090E00E94B62E1F
:101ED00060E082E290E00E94B62E60E085E090E053
:101EE0000E94B62E60E086E090E00E94B62E6FEF72
:101EF00087E090E00E94B62E40E050E0BA0188E012
:101F000090E00E94C82E60E08DE090E00E94B62E26
:101F100040E050E0BA0188E190E00E94C82E60E005
:101F200087E190E00E94B62E40E050E0BA018CE1DB
:101F300090E00E94C82E60E070E080E290E00E9495
:101F4000D42E40E050E0BA0188E190E00E94C82E13
:101F500080E00E94521E0E947E1E0C944A0F0C9438
:101F6000510F682F8EE090E00C94B62E0E9441260F
:101F7000609338027093390280933A0290933B0247
:101F80006093340270933502809336029093370247
:101F9000089581E008950C94C90F08950C94CD0F15
:101FA0000C94CD0F0C94D00F0C94CD0F0C94D40F37
:101FB0000C94CD0F8EE992E10E9477240E94D80FF5
:101FC0000C94D60F0E94CE0F0C94CD0F0E942C269D
:101FD0000E948D1E0E9477130E94591C0C94D20FF0
:101FE0009F92AF92BF92CF92DF92EF92FF920F93A8
:101FF0001F93CF93DF93CDB7DEB72A970FB6F89430
:10200000DEBF0FBECDBF0E948C1381110E94B60FA0
:1020100081E3A82E82E0B82E00E010E0902E802F01
:102020000E94D212D82EF501C1905F01C826B1F4EA
:102030000F5F1F4F0330110589F78FEF89838A8364
:102040001B820E9435268160782F9D838C83498175
:102050005A816B818D810E947F052FC080913C0247
:1020600081FD0E94D812E12CFF24F3948C2D8F2146
:10207000F1F00E94CB0F882399F0EE829F82DF203F
:1020800081E009F480E088870E9435268160782FFE
:102090009A8789874E815F8168858A850E947F053E
:1020A000F801EF5CFD4F8081F826F08206C0E394D2
:1020B000FF0CF3E0EF12DACFBBCF0E94941C0E941A
:1020C00095150E948124909130028917B9F00E94E1
:1020D0008124809330022A960FB6F894DEBF0FBE9B
:1020E000CDBFDF91CF911F910F91FF90EF90DF90C7
:1020F000CF90BF90AF909F900C9476052A960FB624
:10210000F894DEBF0FBECDBFDF91CF911F910F912D
:10211000FF90EF90DF90CF90BF90AF909F90089589
:1021200080E090E008950895880F991FFC01EE511A
:10213000FE4F859194910895CF93DF930E94C7112C
:10214000EC01811520E5920708F03FC0811540E4BD
:10215000940708F0D9C0883E910500F5803E9105AE
:1021600008F00CC1883A910570F4853A910508F0A1
:10217000ADC08130910509F4A6C008F4FCC00497F5
:1021800008F0FCC0F8C08F3B910508F4A8C0803C63
:10219000910508F4F0C0805C9109ACC0811550E253
:1021A000950760F4C11581E0D80708F0E7C0C03F8B
:1021B000D10508F4E0C0CE019065E1C0811520E3AF
:1021C000920708F09AC09F7095C0811545E5940765
:1021D00008F04DC0811554E5950708F0AFC0C11552
:1021E00082E5D80740F5C11521E5D20708F08FC078
:1021F000CE01B4E096958795BA95E1F7282F237024
:102200003C2F337081E090E002C0880F991F3A950F
:10221000E2F79C68AC01522B8C2F8F70282F2695EB
:102220002695822F90E0C5E0880F991FCA95E1F7A7
:10223000842B952BA4C0AE01437055279C2F9695F7
:102240009695C115D34508F067C021E030E002C083
:10225000220F331F4A95E2F7892F90E0F5E0880FAF
:10226000991FFA95E1F7822B932B9C6888C0811502
:1022700029E5920790F4811548E5940708F063C0BA
:10228000811556E5950708F076C00E945B128F71A4
:1022900090E0982F8827906272C0C1158AE5D80710
:1022A00008F456C0CE0190568115904208F063C0E4
:1022B0008D2F8F710E945B129E01332730628F71C8
:1022C000A901582B56C081E090E059C0855AC82F0B
:1022D000D0E0C557DE4F888190E0906450C0885AA6
:1022E000C82FD0E0CC0FDD1FC35ADE4F8881998103
:1022F000946445C00E94941042C09927D3FF02C045
:10230000986C3DC0906C3BC09F70906A38C09C2F09
:102310008827816F906A33C021E030E002C0220F2D
:10232000331F4A95E2F7892F90E0E5E0880F991F67
:10233000EA95E1F7822B932B9A6821C0982F882782
:10234000846F906A1CC0982F8827806F906A17C08E
:102350008C2F8F700E945B129E0194E0369527951A
:102360009A95E1F72F7030E0322F22273069A901CA
:10237000482BCA0104C080E090E001C0CE01DF918B
:10238000CF9108950E94BF220E949C100895823828
:10239000910569F1B0F48133910509F46DC048F4F9
:1023A0008932910509F463C08A32910509F469C044
:1023B00008958533910509F455C089339105B9F025
:1023C0000895833E910569F138F4803E9105B1F09E
:1023D000823E910509F10895863E9105A9F1873E57
:1023E0009105B9F1843E910509F064C023C02091A4
:1023F0008A0220FD4FC021FD4DC0089580918A02C0
:1024000080FD44C080918B0280FF44C080918A028D
:1024100084FD42C083EE4DC080918A0282FF38C0A5
:10242000F5CF80918A0282FD33C080918B0280FDBE
:1024300031C0ECCF80918B0281FF32C080918A0243
:1024400084FD2AC087EE35C080918A0283FF26C0B2
:10245000F5CF80918A0283FD21C080918B0281FD9E
:102460001FC0ECCF80918A0285FD1CC01DC08091E9
:102470008A0285FD19C016C080918A0286FD16C0A9
:1024800017C080918A0286FD13C010C089E311C075
:1024900082EE0FC080EE0DC080E00BC086EE09C05A
:1024A00084EE07C089E205C085E303C08AE201C06B
:1024B00081E390E0089590918A0292FF0DC0282F49
:1024C0002871283019F4877F846006C0282F247172
:1024D000243011F48B7F886093FF0DC0282F287162
:1024E000283119F4877E846106C0282F2471243195
:1024F00011F48B7E886120918B0220FF0DC0382F54
:102500003871383019F4877F816006C0382F3171F7
:10251000313011F48E7F886021FF0DC0282F287183
:10252000283119F4877E816106C0282F217121315D
:1025300011F48E7E886194FD877E089580E0089571
:102540000C94020F0E948C138FE39CE90197F1F722
:1025500000C000000E948C1380E00E94D21280FF15
:1025600004C00E94A0120C94822608950C94A2121A
:102570000E94080F811102C00E94AF0F0E94130F2A
:1025800080933C020E941B0F90938B0280938A02DF
:102590000E94B6120E94170F0E9463098091D10118
:1025A0000C947409E82FF0E0E157FD4F8081089505
:1025B000089580EA8A95F1F7089500C008950C9473
:1025C000D91208950C94E1120C94E2120C94E112C9
:1025D0000C94E612F894E82FE295EF70F0E031A148
:1025E000282F2F7081E090E001C0880F2A95EAF72C
:1025F000982F9095932391A392A1892B82A37894ED
:10260000089587E60E94EA1285E30E94EA1286E3B3
:102610000E94EA1286E60E94EA1283E90E94EA1208
:1026200082E90C94EA12CF92DF92EF92FF920F931D
:102630001F93CF93DF938C01C62FD0E0CE018F562E
:102640009E4F7C01FC0190819F3F09F447C0D62E2C
:10265000F894E92FE295EF70F0E081A19F7021E0FE
:1026600030E001C0220F9A95EAF7822B81A382A164
:102670002095282322A378940E94DD12EEE8F1E051
:1026800041E951E031E0C12C21912F3F89F0A22F87
:10269000A295AF70B0E090968C9190E02F7002C040
:1026A000959587952A95E2F780FD02C0832F01C09A
:1026B00080E0C82A330F4E175F0731F7F70180819A
:1026C0008F3F11F00E94EA1261E0C11001C060E08A
:1026D0008D2D0E94DF12C00FD11FC882DF91CF91D4
:1026E0001F910F91FF90EF90DF90CF9008950E947F
:1026F000011383E0EFE8F2E0DF01982F1D929A9535
:10270000E9F7ECE8F2E0DF011D928A95E9F783E052
:102710000E94CF130C9403041F93CF93DF9300D038
:102720001F92CDB7DEB719821A821B8260E0CE01FC
:1027300001960E94131361E0CE0101960E941313CB
:1027400062E0CE0101960E94131343E050E0BE0107
:102750006F5F7F4F8CE892E00E94952E11E000970A
:1027600009F410E0892B49F089819A81AB8180932B
:102770008C0290938D02A0938E02212F43E06FE88C
:1027800072E08CE892E00E94D0130E940B04812F2B
:102790000F900F900F90DF91CF911F9108950895A2
:1027A000FF920F931F93CF93DF938C01F62ED72FB9
:1027B000C42F222349F081E080933F020E943526F6
:1027C00090933E0280933D0280913F028823C1F0A6
:1027D00080913D0290913E020E944D26059780F027
:1027E000EF2DFD2FD8014C2F50E0CD01801B910B18
:1027F000841795071CF48D918193F7CF10923F02B7
:10280000DF91CF911F910F91FF9008950E946B2847
:102810000E94E60F0C9477280E947B280E94F00FFC
:102820000C9495280E94BC250E9452280E94DA0F21
:102830000E9406140E940C140E94E20FFBCF8091AC
:10284000460280FF0CC08091090190E065E070E0D5
:102850000E94ED2D95958795959587952EC081FFC2
:102860000AC08091090190E065E070E00E94ED2DC2
:102870009595879522C082FF08C08091090190E05C
:1028800065E070E00E94ED2D18C0209145022223E2
:10289000D9F030910801231780F78091090190E069
:1028A00065E070E00E94ED2D622F70E00E94ED2D3A
:1028B000632F70E00E94392ECB018038910538F4E7
:1028C000009739F481E005C085E090E008958FE736
:1028D000089508958091460280FF08C06091050127
:1028E00070E0759567957595679523C081FF06C063
:1028F0006091050170E0759567951BC082FF04C06B
:102900006091050170E012C0609144026623A9F055
:10291000209104016217A0F78091050170E090E01A
:102920000E94ED2D622F70E00E94392E60387105F3
:1029300040F46115710519F406C061E070E0862F5E
:1029400008958FE7089581E00895803F21F40E9463
:102950001F14819504C0813F29F40E941F148093A5
:102960004A020895823F21F40E941F14819504C0F9
:10297000833F29F40E941F14809349020895893FE0
:1029800019F40E946A1405C08A3F31F40E946A1447
:10299000819580934B0208958B3F21F40E946A1425
:1029A000819504C08C3F29F40E946A1480934C02E4
:1029B00008959CE0980F953078F421E030E0A9016B
:1029C00002C0440F551F9A95E2F7CA019091480240
:1029D000892B8093480208958D3F21F4809146020F
:1029E00081600BC08E3F21F480914602826005C059
:1029F0008F3F29F4809146028460809346020895B7
:102A0000803F39F490914A0297FF35C010924A02F4
:102A100059C0813F29F490914A021916BCF32BC08A
:102A200090914902823F29F497FF25C010924902F4
:102A300049C0833F19F41916CCF31DC090914B0285
:102A4000893F29F41916BCF410924B023BC08A3F0F
:102A500019F497FF10C0F8CF8B3F39F490914C02D6
:102A600097FF09C010924C022DC08C3F21F4909129
:102A70004C021916BCF39CE0980F953080F421E0CD
:102A800030E0A90102C0440F551F9A95E2F7CA0130
:102A900080959091480289238093480213C08D3F0E
:102AA00021F4809146028E7F0BC08E3F21F48091ED
:102AB00046028D7F05C08F3F29F4809146028B7FAF
:102AC0008093460280914902811106C080914A029A
:102AD000811102C01092450280914B02811106C003
:102AE00080914C02811102C01092440208950E940C
:102AF000352620914902211104C020914A02222347
:102B000021F0909343028093420220914B022111C5
:102B100004C020914C02222321F090934102809323
:102B2000400287E492E00C94AA24EF92FF920F9364
:102B30001F93CF93DF9300D000D000D0CDB7DEB786
:102B400086E0E7E4F2E0DE01119601900D928A95AD
:102B5000E1F7E0904902F0904A0200914B02109197
:102B60004C021092490210924A0210924B021092AB
:102B70004C02E11003C0FF2009F464C080914202BE
:102B8000909143020E944D26FC0120914502222390
:102B900039F080910A0190E08E179F0760F052C0D3
:102BA00080910B0190E06AE070E00E94ED2D8E179D
:102BB0009F0718F047C02F3F19F02F5F2093450261
:102BC000EE2061F00E941F14682F1E1414F08FEF86
:102BD00001C081E00E94E42D80934902FF2061F052
:102BE0000E941F14682F1F1414F08FEF01C081E0A2
:102BF0000E94E42D80934A0280914902882311F1BA
:102C000020914A022223F1F0082E000C990B65EB6B
:102C100070E00E94ED2D992319F09093490203C0B2
:102C200081E080934902822F220F990B65EB70E0BF
:102C30000E94ED2D992319F090934A0203C081E080
:102C400080934A02011103C0112309F464C08091EA
:102C50004002909141020E944D26FC0120914402C5
:102C6000222339F08091060190E08E179F0760F0D3
:102C700052C08091070190E06AE070E00E94ED2D63
:102C80008E179F0718F047C02F3F19F02F5F209332
:102C90004402002361F00E946A14682F101614F099
:102CA0008FEF01C081E00E94E42D80934B0211233D
:102CB00061F00E946A14682F111614F08FEF01C0A2
:102CC00081E00E94E42D80934C0280914B02882386
:102CD00011F120914C022223F1F0082E000C990BE7
:102CE00065EB70E00E94ED2D992319F090934B0253
:102CF00003C081E080934B02822F220F990B65EB7A
:102D000070E00E94ED2D992319F090934C0203C0BE
:102D100081E080934C028091490281110BC0809127
:102D20004A02811107C080914B02811103C080913A
:102D30004C0281110E947715EB82FC820D831E8369
:102D400086E0FE013196A7E4B2E001900D928A95EB
:102D5000E1F726960FB6F894DEBF0FBECDBFDF9128
:102D6000CF911F910F91FF90EF900895E7E4F2E06B
:102D700086E0DF011D928A95E9F7109245021092D4
:102D80004402109246020895EF92FF920F931F9310
:102D9000CF93DF93E82F71110AC0442321F0F0E0B4
:102DA000E750FD4FE4916E2F7E2F8E2F6CC0C62F03
:102DB000D0E0072F10E0282F30E0442329F0F9015C
:102DC000E750FD4F249130E0CE0166E070E00E94B4
:102DD000ED2DEE24EA94F12CB7010E94252EDB01A3
:102DE000CC0FDD1FCB016BEA7FEF0E94ED2D8C0F26
:102DF0009D1FC82FCC0FC80FC701801B910BB901B5
:102E00000E94ED2DE92F492FD0E0CE01B8010E949C
:102E1000ED2D692F70E0C701861B970BB9010E9449
:102E2000ED2DF92FC7018C1B9D0BB8010E94ED2DD4
:102E3000692F70E0C701861B970BB9010E94ED2D29
:102E4000A230B10591F038F4109759F01197C1F400
:102E50008E2F7F2F0CC0A430B10579F050F016975B
:102E600079F4722F842FE92F0DC0892F7E2FE22F46
:102E700009C0822F7E2FEF2F05C0822F792F02C02D
:102E8000722F8F2F6E2FDF91CF911F910F91FF9097
:102E9000EF90089541E00E94C416089508950E949D
:102EA0004A170895CF93DF93762FE901682F842F77
:102EB0000E944F17798368838A83DF91CF910895A9
:102EC00080919202282F269530E02115310519F4C2
:102ED0008170826005C02532310524F081708864DC
:102EE00080939202089588E090E00C94AA2ECF92ED
:102EF000DF92EF92FF926B017C010E946017B70195
:102F0000A60188E090E0FF90EF90DF90CF900C94C6
:102F1000C82E6091920270919302809194029091D8
:102F200095020C947717E2E9F2E083E08083118246
:102F30008FEF828383831482608171818281938188
:102F40000C9477178091920280FF02C086950895B5
:102F500080E0089590919602933018F49F5F9093CB
:102F60009602882351F060919202709193028091B1
:102F70009402909195020C947717089581E00C9437
:102F8000AA1790919602992319F091509093960266
:102F9000882351F060919202709193028091940283
:102FA000909195020C947717089581E00C94C117C5
:102FB00080919602089580939602662351F0609165
:102FC00092027091930280919402909195020C94D8
:102FD0007717089560E00C94DB17809193020895B1
:102FE00080919402089580919502089570E00C9468
:102FF0000E1E309110018091920280FF0CC08091D2
:103000000F0190E063E070E00E94ED2D632F895680
:103010009D4F0C94F6172091110140911201241735
:1030200070F7822F90E063E070E00E94ED2DFC01CC
:10303000E956FD4F1182108212822F5FF0CFA82F28
:10304000B62F8091920280FF16C02091110130911D
:103050001201231770F4822F90E063E070E00E9469
:10306000ED2DFC01E956FD4FA183B08342832F5F14
:10307000F0CF0C94F9170895CF93DF9300D01F92EF
:10308000CDB7DEB79091920290FF0AC09E012F5FEC
:103090003F4F0E9452174B8169818A810E941F18FD
:1030A0000F900F900F90DF91CF910895CF93DF9302
:1030B000EC01EC81F0E0EC50FE4F4491E2E9F2E0EB
:1030C000628181810E943C188C818F5F8C83DF91AB
:1030D000CF910895CF93DF93EC01E2E9F2E04381D1
:1030E00062818C810E943C188C818F5F8C83DF9180
:1030F000CF9108950F931F93CF93DF9300D01F922A
:10310000CDB7DEB78C0180914D0281110AC09E01BE
:103110002F5F3F4F4FEF6FEF0E9452178A818093CE
:103120004D02F8018481813051F028F0823061F441
:1031300040914D020AC080914D0240E007C060916D
:103140004D0240E080E003C040E080E060E00E948B
:103150001F18F801848190E0019663E070E00E94FE
:10316000392E84830F900F900F90DF91CF911F9194
:103170000F910895AF92BF92CF92DF92EF92FF929C
:103180000F931F93CF93DF9300D01F92CDB7DEB77D
:10319000182FF62E042FE22E9091920290FF6EC00F
:1031A000E92FE695AE2FB0E0AC56BE4F8C918093E0
:1031B00057029E7F923061F49E012F5F3F4F812F17
:1031C0000E9452174B8169818A810E941F1844C056
:1031D000823019F4009195023FC0863019F41091A5
:1031E00093023AC08930D9F38931B1F5E9514E2FB4
:1031F0004170D42EE695F0E0EC50FD4FA590B490D0
:10320000C12CBB2440911301C41620F52C2D30E0B5
:10321000C501B9010E94ED2D642F70E00E94252E9A
:10322000E12FD11002C0E60F01C0E61B8091110111
:10323000A901480F511DCA0163E070E00E94ED2D05
:103240009C0129563D4F402F6F2D8E2F0E94521703
:10325000C394D8CF0E94F91710939302F09294026E
:1032600000939502EE2051F06091920270919302CA
:1032700080919402909195020E9477170F900F9081
:103280000F90DF91CF911F910F91FF90EF90DF9002
:10329000CF90BF90AF900895E2E9F2E09181282F9E
:1032A0004381628188E0890F0C94BA1881E00C9404
:1032B0004C19E2E9F2E09181282F4381628188EF85
:1032C000890F0C94BA1881E00C945919E2E9F2E0E4
:1032D000628128E0620F08F46FEF282F438181811B
:1032E0000C94BA1881E00C946619E2E9F2E062816C
:1032F00028E0621B08F460E0282F438181810C9450
:10330000BA1881E00C947519E2E9F2E0438128E0F3
:10331000420F08F44FEF282F628181810C94BA1874
:1033200081E00C948419E2E9F2E0438128E0421B39
:1033300008F440E0282F628181810C94BA1881E062
:103340000C94931920E00C94BA18EF92FF921F93FB
:10335000CF93DF93EC0110E0EE24EA94F12C30914E
:103360001301131700F520911101812F90E0820FB6
:10337000911D63E070E00E94ED2DFC01E956FD4FC8
:10338000632F70E0C7010E94392E812F0E94E42D27
:103390009C819F014091950260919402890F0E9447
:1033A00052171F5FDCCF0E94F9179A818C8190FF22
:1033B00002C08F5F01C081508C83DF91CF911F913C
:1033C000FF90EF900895AF92BF92CF92DF92EF926D
:1033D000FF920F931F93CF93DF93FC01828180FFB5
:1033E00002C0DFEF01C0D1E0C0E039E0A32E809140
:1033F0001301C81708F043C080911101CC2ED12CC5
:103400009601280F311DC90163E070E00E94ED2D87
:1034100089569D4F7C01FC0111821082128204E0CA
:1034200010E0B12C80914F028B0D8A302CF06A2D68
:103430000E94172E892F05C087FF03C090911301AA
:10344000890F082E000C990BC816D90691F48091AB
:10345000950290E0B8010E94ED2D95958795959580
:1034600087959701482F60919402809193020E9462
:103470005217BD0E01501109A9F6CF5FB8CF0E94B7
:10348000F91780914F02D13031F4811102C080913F
:103490001301815007C090E001966091130170E024
:1034A0000E94392E80934F02DF91CF911F910F918F
:1034B000FF90EF90DF90CF90BF90AF900895CF93A3
:1034C0002091110130911201231770F4822F90E0A6
:1034D00063E070E00E94ED2DFC01E956FD4F118282
:1034E000108212822F5FF0CFC0E060911301C617E7
:1034F00090F5EC2FF0E070E0CF010E94392E909112
:103500001101890F20914E02022E000C330B90E026
:1035100063E070E00E94ED2DE217F307A4F0209124
:103520000E01022E000C330B2E173F0764F09C0196
:1035300029563D4F409195026091940280919302EB
:103540000E94521706C0FC01E956FD4F11821082FD
:103550001282CF5FCACF0E94F91720910D0180918E
:103560004E02820F80934E0290910E01920F909323
:103570000E0119165CF4082E000C990B40911301F2
:1035800050E041505109841795071CF02195209374
:103590000D01CF9108954F925F926F927F928F921B
:1035A0009F92AF92BF92CF92DF92EF92FF920F93D2
:1035B0001F93CF93DF938C01FC01C481CC2ED12CBF
:1035C000E12CF12CA7019601C701B6010E94FE2D46
:1035D000A70196010E94FE2D4B015C0180E290E064
:1035E0006C01CC1AD1080D2C000CEE08FF0825E563
:1035F00030E040E050E0C501B4010E94FE2D2B01F7
:103600003C01A7019601C701B6010E94FE2DA7014A
:1036100096010E94FE2D9B01AC01280D391D4A1D0B
:103620005B1DC301B2010E944D2ED22F822F90E06C
:103630002A3230F025E530E0A901481B590BCA01B8
:1036400063E070E00E94ED2D97FD019695958795BA
:10365000C82FC095F12C85E5E82EED1A8091130155
:10366000F816D0F4F1FC02C0EE2D01C0ED2F209130
:1036700011018F2D90E0820F911D63E070E00E9498
:10368000ED2D9C0129563D4F4C2F609194028E2FB9
:103690000E945217F394E2CF0E94F917F801848137
:1036A000811102C091E003C0803219F49FEF909322
:1036B0000C0190910C01890FF8018483DF91CF9167
:1036C0001F910F91FF90EF90DF90CF90BF90AF9040
:1036D0009F908F907F906F905F904F9008950F9381
:1036E0001F93CF93DF93EC0100E010E040911301B2
:1036F000842F90E0081719072CF58091110198018B
:10370000280F311DC90163E070E00E94ED2D9C017E
:1037100029563D4F469550E08C81041715071CF43F
:10372000882331F002C0811103C04091950201C08D
:1037300040E060919402809193020E9452170F5FC3
:103740001F4FD4CF0E94F9178C8190E001968170B1
:1037500099278C83DF91CF911F910F910895E2E912
:10376000F2E080818E7F808360817181828193818C
:103770000E947717109258022FEF80E792E02150B5
:1037800080409040E1F700C000000C94F917E2E996
:10379000F2E080818E7F8083109258022FEF80E7C5
:1037A00092E0215080409040E1F700C000000C946E
:1037B000F91760919202669570E04BE050E084E169
:1037C00091E00E94882E892B19F481E080935802A1
:1037D0000E94352690935102809350020895909153
:1037E000920290FF35C09170811102C0926006C0B4
:1037F000853210F0986402C0880F982B9093920243
:10380000662351F06091920270919302809194022C
:10381000909195020E94771760919202669570E0F0
:103820004BE050E084E191E00E94882E892B19F052
:103830001092580202C00E94D91B81E0809353026B
:103840004091950260919402809193020C94A21988
:103850000895682F90919202969581E0890F8532A4
:1038600008F081E00C94EF1B81E00C94291C682F78
:103870009091920296958FEF890F09F484E20C944F
:10388000EF1B81E00C94371C61E00C94EF1BE2E924
:10389000F2E080818160808386950C94441C809145
:1038A000920280FD0C94AF1B0C94471C60E00C94BA
:1038B000EF1B8091560281112EC00E94080F8111CA
:1038C00004C00E94AF0F0E9493170E947317609369
:1038D00092027093930280939402909395026E7F6C
:1038E00061F40E9493170E94731760939202709381
:1038F000930280939402909395020E946017109215
:1039000058028091920280FF03C086950E94561C47
:1039100081E0809356020895E2E9F2E080818160BF
:10392000808386950C94561C0F931F93CF93DF933F
:1039300080915802882309F485C080915702E09154
:103940009202E695E81BE0935202823049F4F0E0DF
:10395000E051FE4FE491CE2FD0E006E518E149C0DA
:10396000863049F4F0E0E351FE4FE491CE2FD0E0F1
:103970000AE618E13EC0893051F4E695F0E0E651E0
:10398000FE4FE491CE2FD0E005EA19E132C08F302E
:1039900051F4E695F0E0E951FE4FE491CE2FD0E0EE
:1039A00003EE19E126C0853149F4F0E0EC51FE4FF9
:1039B000E491CE2FD0E00FE51AE11BC0883181F0F1
:1039C000833239F4E2EEF1E0C591D4910AE718E1CF
:1039D00010C0843251F4C4EFD1E00FE61BE109C0FE
:1039E000C8E2D0E00BEC1AE104C0C0EDD7E00EE471
:1039F00017E180915302882361F0109253020E94D4
:103A000035269093510280935002109255021092E5
:103A100054020E943526E0915002F09151028E1B13
:103A20009F0B8F3F9F4770F4EC0FFD1FF0935102E7
:103A3000E093500280E592E0F801DF91CF911F9171
:103A40000F910994DF91CF911F910F9108958823D1
:103A500011F0FA0101C0FB010994CF93DF93C82F45
:103A6000D62F0E94A2178C1740F00E94A2178D1724
:103A700020F4DF91CF910C94341C8C2FDF91CF91E7
:103A80000C94441C1F93CF93DF93FB0112811123ED
:103A900009F4BCC0EC010E941C0E8272CC3CFCE517
:103AA000DF0709F497C008F043C0C63CECE5DE0729
:103AB00009F47CC0D8F4C33C9CE5D90709F46AC07A
:103AC00038F4C23CDC4509F0A4C00E944F1CA0C0E1
:103AD000C43C9CE5D90709F462C0C53CDC4509F04B
:103AE00098C043E659E166E579E15DC0C93CFCE573
:103AF000DF0709F465C070F4C73CECE5DE0709F4A4
:103B00005AC0C83CDC4509F084C042E759E161E88D
:103B100079E149C0CA3C9CE5D90709F456C0CB3CC1
:103B2000DC4509F076C045ED57E16EEB77E13BC02F
:103B3000C13DFCE5DF0709F45AC098F4CE3C9CE592
:103B4000D90709F44EC008F44AC0CF3CFCE5DF07B2
:103B500009F44AC0C03DDC4509F05BC06EE089E075
:103B60004EC0C43D9CE5D90709F447C050F4C23D9E
:103B7000FCE5DF07F9F1C33DDC4509F04AC088E107
:103B800042C0C53D9CE5D907E9F1CD35DD4509F4D5
:103B90003FC03FC041E45CE164E37CE104C044E336
:103BA0005CE161E47CE10E94271D32C046E559E1F9
:103BB00063E679E1F8CF41E859E162E779E1F3CFD3
:103BC0004FE959E160E979E1EECF40E959E16FE968
:103BD00079E1E9CF4EEB57E165ED77E1E4CF81E0A4
:103BE00012C065E082E00BC068E086E008C064E1D6
:103BF0008FE005C067E185E102C062E289E10E94D1
:103C00002D1D06C083E20E94441C02C011E001C0C9
:103C100010E0812FDF91CF911F910895279A25B150
:103C20002F7735B130684FB7F894FC01CB0163E0D2
:103C300070E00E94ED2D8E0F9F1FE817F90789F0A5
:103C4000519168E035B9000000C057FF25B9550F04
:103C5000000000C000C000C025B900C06A9591F7FF
:103C6000ECCF4FBF8FE594E00197F1F700C0000063
:103C7000089583E290E00E94A22E823281F484E2D1
:103C800090E00E94A22E833051F485E290E00E94E1
:103C9000A22E91E0813209F090E0892F01C080E0EE
:103CA00081700895CF93C82F811102C06FEF01C0BA
:103CB00062E283E290E00E94B62EC11102C06FEF73
:103CC00001C063E084E290E00E94B62EC11102C000
:103CD0006FEF01C061E285E290E0CF910C94B62EC7
:103CE000089586E290E00E94A22E682F70E080E0A6
:103CF00090E0089586E290E00C94B62E80E00E9459
:103D0000521E60E070E0CB010E947A1E0E944322A6
:103D10000E94192381E00C94521E0E94701E0E9482
:103D2000391E811102C00C947E1E0895CF93FB01B1
:103D3000C281CC23E9F09C0122513F45203131055D
:103D400020F482510E9429230CC08031FFE59F0797
:103D500051F481E00E94870943E062E081E00E9423
:103D6000FA03C0E018C081319F45A9F482E0F2CF88
:103D70008031EFE59E0711F481E004C081319F4559
:103D800049F482E00E94920943E062E081E00E94EF
:103D9000FA0301C0C1E08C2FCF9108952FEFFC01F1
:103DA00020830895CF93DF93EC018881813889F0D7
:103DB00028F48038A1F40E94F31710C0823861F013
:103DC000833869F40E94ED1789830E94F0178A8373
:103DD00006C00E94A21702C00E94D8178983DF91F3
:103DE000CF910895CF93DF93EC0188818138B1F0B2
:103DF00058F4803851F5D9810E94F017C82F0E94DD
:103E0000ED174D2F6C2F1DC08238B1F08338E9F4C7
:103E10000E94F317482F6A81898113C089810E940B
:103E2000561C8981811104C0DF91CF910C94C71B6E
:103E3000DF91CF910C948C1C8981DF91CF910C94F0
:103E4000EA17DF91CF910C94A219DF91CF910895D9
:103E5000EF92FF920F931F93CF93DF93EC01062F06
:103E60000196E8814E2F50E0FA013197E331F105D8
:103E700008F09AC0E85AFF4F0C946F2E198289E01F
:103E800056C08981823039F0833061F0813029F564
:103E90000E94412602C00E94711E9A838B837C83FC
:103EA0006D8384C07E0182E0E80EF11C10E0812F5A
:103EB0000E94D212F70181937F011F5F1330B9F77F
:103EC00075C08981823049F46A817B818C819D81B2
:103ED0000E94752E0E947A1E69C0602FCE010E943A
:103EE000CE1E64C04B816A8189810E9415229C8309
:103EF0008D835CC02C813D813227232732274B8163
:103F00006A8189810E942E2251C00E9443224EC0A4
:103F10000E94F21E4BC00E94D21E48C00E94891708
:103F200045C00E94CC2224C00E94CE2299838A835D
:103F30003DC06B8170E089819A81AE014C5F5F4F1B
:103F40009827892798270E94D12230C06B8170E082
:103F500089819A81AE014C5F5F4F98278927982706
:103F60000E94F62223C00E94192320C00E94FC2137
:103F700089831CC06B8170E089819A81AE014C5F9E
:103F80005F4F9827892798270E947B220FC06B815B
:103F900070E089819A81AE014C5F5F4F9827892735
:103FA00098270E949E2202C08FEF8883602FCE0147
:103FB000DF91CF911F910F91FF90EF900C943C27D0
:103FC000CF93DF9397FF0DC0FB012281222349F09D
:103FD000EC010E941E20CE019F770E9491200E943A
:103FE0006B2081E0DF91CF9108959091B3029230E0
:103FF00069F48A3040F490E009966AE070E00E942B
:10400000392E875A01C086500C9470060C946405B2
:104010008CE090E00E94A22E90E0A0E0B0E08093BF
:10402000B3029093B402A093B502B093B602089580
:104030006091B3028CE090E00C94B62E0E948D2427
:10404000869581708093B8020E948D248170809340
:10405000B2028091B302813039F48091B802882392
:1040600019F089E30E9470060E941C0E8093B7022B
:104070000E942F0E8091B302813071F048F082309F
:1040800081F0843009F586EE0E94700688E11AC03E
:1040900082EE0E94CF0518C088E193E00E94800361
:1040A00013C08091B202811103C083E50E947006A3
:1040B00082EE0E94CF058FE39CE90197F1F700C0E3
:1040C000000087E50E9470068FE39CE90197F1F7F5
:1040D00000C0000008958091B302813059F030F0A3
:1040E000823089F08430C9F488E215C082EE0E94E3
:1040F000250613C08CE20E9470068091B8028823C6
:1041000061F089E308C082EE0E9425068091B20228
:10411000811103C083E50E9470068091B7020C9460
:104120002C0E0F931F93CF93DF938C01CCE0D0E044
:10413000C8010C2E02C0969587950A94E2F78F70FD
:104140000E94F51F2497CC3F8FEFD80789F7DF91A6
:10415000CF911F910F9108950F931F93CF93DF93EA
:10416000EC018B01FB018281882361F00E941C0E0F
:10417000CE01815E9C458530910520F48093B30289
:104180000E941820B801CE01DF91CF911F910F91AD
:104190000C94E01FCF93DF93EC01FB018281882315
:1041A00009F426C1C330FDE5DF0760F4CA3F9CE592
:1041B000D90768F49E0122503C452431310508F0AE
:1041C00018C105C0C136EDE5DE0709F012C10E9435
:1041D0001B0F90938B0280938A02C031FCE5DF07AE
:1041E00009F4CAC008F041C0C8309CE5D90709F4F9
:1041F000A4C0F0F4C430FCE5DF0709F48CC068F417
:10420000C2309CE5D90709F482C0C330DC4509F00F
:10421000E5C080918A028260DFC0C630FCE5DF071E
:1042200009F483C008F085C080918A028860D4C0F8
:10423000CC309CE5D90709F490C068F4CA30FCE59D
:10424000DF0709F47EC008F084C00E94080980914D
:104250008A028068C1C0CE309CE5D90709F481C0CC
:1042600008F086C080918A0294C0CC3FFCE5DF074D
:1042700009F47BC038F5C4319CE5D90709F49AC02C
:1042800058F4C231FCE5DF0709F47AC008F07EC0BB
:1042900080918A028F7BA0C0CA3F9CE5D907F1F1CB
:1042A00008F03FC0C531DC4509F098C080918A0212
:1042B00082FB222720F991E0922790FB82F990FB64
:1042C00083F98AC0C1158DE5D80709F467C050F499
:1042D00080918B02CE3FECE5DE07C1F108F05BC0B8
:1042E0008D7F65C0C2308DE5D80709F471C008F430
:1042F0006DC0C136DD4509F071C080918A0284FB32
:10430000222720F991E0922790FB84F965C08091E3
:104310008A02816061C080918A0216C080918B02FE
:1043200016C080918B02826042C080918A028061B7
:1043300053C080918A0280624FC080918A0280645B
:104340004BC080918A028860846046C08260816030
:104350002EC080918A028E7F3FC080918A028D7F1D
:104360003BC080918A02877F37C080918B0214C046
:1043700080918A028F7E30C080918A028F7D2CC00E
:104380000E94080980918A028F7726C080918A0254
:10439000877F8B7F21C08D7F8E7F09C080918B02AC
:1043A000982F909591708E7F892B90FB81F9809347
:1043B0008B0214C00E94080980918A0287FB222781
:1043C00020F991E0922790FB87F906C081E001C0B7
:1043D00080E00E94B10F02C080938A0280918A021D
:1043E00090918B020E942C0F0E94080980E001C06E
:1043F00081E0DF91CF91089584E00895E82F862F22
:1044000090E066E070E00E94ED2D242F30E0220F56
:10441000331F280F391F8E2F90E062E170E00E9459
:10442000ED2D820F931F879608950F931F93CF93BF
:10443000DF930E94FE218C010E94A22EC82FD0E0A3
:10444000DC2FCC27C80101960E94A22E9E01282BAA
:10445000C901DF91CF911F910F9108950F931F9381
:10446000CF93DF93122F032F0E94FE21EC01602FC8
:104470000E94B62E612FCE010196DF91CF911F9140
:104480000F910C94B62EDF92EF92FF920F931F9331
:10449000CF93DF93C0E0D0E0CE0162E170E00E94F4
:1044A000ED2D7C01D12C00E010E0F801EE0FFF1F94
:1044B000EE0DFF1DE651FF4F25913491402F6D2DDC
:1044C0008C2F0E942E220F5F1F4F0330110569F7BA
:1044D00086E0E80EF11CD39483E0D812E4CF219655
:1044E000C430D105C9F6DF91CF911F910F91FF9094
:1044F000EF90DF900895EF92FF920F931F93CF9369
:10450000DF93EA017A01E60EF71E8C01C801879657
:10451000CE15DF0561F00834110520F40E94A22EAB
:10452000888301C0188221960F5F1F4FEFCFDF9164
:10453000CF911F910F91FF90EF900895EF92FF920E
:104540000F931F93CF93DF93EA017A01E60EF71ED4
:104550008C01C8018796CE15DF0551F0083411058E
:1045600018F468810E94B62E21960F5F1F4FF1CF7D
:10457000DF91CF911F910F91FF90EF900895462FFB
:10458000843038F4733028F4633018F4672F0C94B7
:10459000152280E090E0089580E1089581E993E09C
:1045A0000895EF92FF920F931F93CF93DF93EA0149
:1045B0007A01E60EF71E8C01C80181599F4FCE1576
:1045C000DF0569F0013923E0120720F40E94A22ED2
:1045D000888301C0188221960F5F1F4FEDCFDF91B6
:1045E000CF911F910F91FF90EF900895EF92FF925E
:1045F0000F931F93CF93DF93EA017A01E60EF71E24
:104600008C01C80181599F4FCE15DF0559F0013942
:1046100023E0120718F468810E94B62E21960F5FDE
:104620001F4FEFCFDF91CF911F910F91FF90EF9030
:104630000895CF93DF93CFE6D0E060E0CE010E94F3
:10464000B62E2196C11584E0D807B9F7DF91CF9136
:104650000895DF92EF92FF920F931F93CF93DF9312
:1046600000D000D0CDB7DEB7F82E8FE08F15E8F17F
:104670008FEF93E00E94A22E811137C00FE610E069
:10468000FF2069F0011584E0180779F1C8010E9444
:10469000A22E811101C0FA940F5F1F4FF1CF198232
:1046A0001A821B821C82DD24D39478018FEFE81AD2
:1046B000F80AC8010E94A22E89831A828823A9F0D1
:1046C0009FEF980F933058F48A83D9820E5F1F4F63
:1046D000C7010E94A22E8B83882339F07801CE0176
:1046E00001960E9461058701E0CF0F900F900F9017
:1046F0000F90DF91CF911F910F91FF90EF90DF907E
:104700000895CF93DF9386319C4541F5EB010E94DC
:104710001C0E982F8A812091020130910301882379
:1047200079F09A7A81E009F480E08093590291113E
:1047300002C069E201C065E3C9010E947A250AC08E
:1047400080915902811102C069E201C065E3C9018B
:104750000E9485250E94710E80E001C081E0DF91FA
:10476000CF9108950F931F93CF93DF93C42FD22F30
:10477000FC0182818823C9F040935C020E943526A7
:1047800090935B0280935A0280E28C0F883008F08D
:1047900057C0C77081E001C0880FCA95EAF7DF9162
:1047A000CF911F910F910C94790680915C02481370
:1047B00030C080915A0290915B020E944D26883C45
:1047C000910538F510E21D0FCD17B9F080E28C0F7E
:1047D000883040F4C77081E001C0880FCA95EAF7BD
:1047E0000E948006183028F581E09D2F977001C047
:1047F000880F9A95EAF70E947906802F0E9470062A
:104800001830F0F4D77081E001C0880FDA95EAF72C
:104810000AC080E28C0F883098F4C77081E001C034
:10482000880FCA95EAF7DF91CF911F910F910C94F1
:104830008006802FDF91CF911F910F910C9470060D
:10484000DF91CF911F910F9108950F939C01CB01A0
:10485000233F4CE5340731F188F4283DFCE53F0760
:10486000D9F0293D4CE5340779F1273D3C45A9F5C0
:1048700006E221EE41EE67ED7CE52BC0253FFCE52D
:104880003F07E1F0A8F0263F3C4539F507E225EE69
:1048900046EE66EF7CE51DC007E225EE45EE68EDCD
:1048A0007CE517C006E221EE40EE63EF7CE511C027
:1048B00007E225EE44EE64EF7CE50BC006E221EE54
:1048C00042EE65EF7CE505C008E221E045EE69EDCA
:1048D0007CE50E94B22380E008C0FC01828188232D
:1048E00019F010925C0201C081E00F91089590933D
:1048F000C9018093C8010895909362028093610278
:104900000895E0916102F0916202309721F00190E8
:10491000F081E02D099480E008950E94812408959B
:10492000E0916102F0916202309799F020912B01A1
:10493000222359F020918A0227FF07C0DC012C9125
:1049400011962C93119726E02C930280F381E02D91
:1049500009940895E0916102F0916202309739F074
:1049600022E0DC012C930480F581E02D0994089568
:1049700020915F02309160022817390771F09093FF
:10498000600280935F02E0916102F09162023097D1
:1049900021F00680F781E02D0994089520915D02B1
:1049A00030915E022817390771F090935E02809370
:1049B0005D02E0916102F0916202309721F0008483
:1049C000F185E02D09940895FC01329680912B0128
:1049D000882331F080918A0287FF02C09EE101C0E6
:1049E00096E080E0915028F021912223D9F38F5F47
:1049F000F9CF0895662351F120912B012223E9F08C
:104A000020918A0227FF19C0462F46954695469564
:104A10004E31E0F4677021E030E002C0220F331F16
:104A20006A95E2F7FC01E40FF11D828190E02823F2
:104A3000392381E0232B69F409C0FC0132960896E2
:104A40002191621729F0E817F907D1F780E008955E
:104A500081E008959C01FC0132969FEF80E0419136
:104A6000461789F09F3F19F4411101C0982F8F5FBD
:104A70008630A9F79F3F39F0F901E90FF11D97FD45
:104A8000FA956283089508959C012A5F3F4FFC01C7
:104A90004281461301C01282019682179307B9F72B
:104AA0000895262F2695269526952E3168F4FC012B
:104AB000E20FF11D677021E030E001C0220F6A951E
:104AC000EAF78281282B22830895262F26952695A2
:104AD00026952E3170F4FC01E20FF11D677021E084
:104AE00030E001C0220F6A95EAF7209582812823E1
:104AF0002283089520912B01222329F020918A02FC
:104B000027FD0C9451250C942A2520912B0122235A
:104B100029F020918A0227FD0C9465250C944425E8
:104B200020912B01FC013296222331F080918A02E0
:104B300087FF02C08EE101C086E0DF011D928A95E9
:104B4000E9F7089508950C94A22583E08093630209
:104B50000C94A325811102C081E001C082E0809302
:104B600063020C94A3250C94AA2581E08093630230
:104B70000C94A3250C94B52508958091C10284302E
:104B800031F10E9412041092640220E488E190E066
:104B90000FB6F894A895809360000FBE2093600034
:104BA00083B7817F846083BF83B7816083BF78943C
:104BB000889583B78E7F83BF0FB6F894A8958091B0
:104BC0006000886180936000109260000FBE0895BD
:104BD00008950C94E825CF930E94E9250E948C1338
:104BE0000E94E825C0E08C2F0E94D212811104C0DF
:104BF000CF5FC330C1F701C081E0CF9108950E941B
:104C000008090C9491041F920F920FB60F92112471
:104C10008F939F93AF93BF9380916402811113C0D0
:104C20008091B9029091BA02A091BB02B091BC02EE
:104C30004196A11DB11D8093B9029093BA02A09331
:104C4000BB02B093BC02BF91AF919F918F910F9027
:104C50000FBE0F901F90189582E084BD93E095BD24
:104C60009AEF97BD80936E0008952FB7F8948091C6
:104C7000B9029091BA02A091BB02B091BC022FBFC1
:104C800008952FB7F8946091B9027091BA0280919B
:104C9000BB029091BC022FBF08959C014FB7F894BE
:104CA0008091B9029091BA02A091BB02B091BC026E
:104CB0004FBF821B930B089578941F920F920FB6EB
:104CC0000F9211248F939F93AF93BF938091B9025A
:104CD0009091BA02A091BB02B091BC020196A11DB5
:104CE000B11D8093B9029093BA02A093BB02B09316
:104CF000BC02BF91AF919F918F910F900FBE0F900B
:104D00001F90189581E08093E00080E28093D800A6
:104D10001092C9008FE19EE40197F1F700C00000F6
:104D200087E090EBDC018093CA029093CB02A093C2
:104D3000CC02B093CD029CE088E10FB6F894A89520
:104D4000809360000FBE90936000FFCF8091880237
:104D50000895089524E02093E9002FEF3091E800B2
:104D6000215035FD06C035ED3A95F1F700002111CF
:104D7000F5CF2091E80025FF0BC040E050E066E051
:104D800070E00E943C298091E8008E778093E800D3
:104D90000895CF93DF9320912B01222339F02091A6
:104DA0008A0227FF03C060E224E002C068E021E03D
:104DB0002093E9002FEF3091E800215035FD06C027
:104DC00035ED3A95F1F700002111F5CF2091E8007B
:104DD00025FF1DC0EC0180912B01811105C040E031
:104DE00050E068E070E003C070E040E050E0CE01C9
:104DF0000E943C298091E8008E778093E80080E251
:104E0000FE01A8E6B2E001900D928A95E1F7DF91EC
:104E1000CF91089580936502709367026093660254
:104E20008091C1028430F9F48093E9008FEF909172
:104E3000E800815095FD06C095ED9A95F1F70000C8
:104E40008111F5CF8091E80085FF0DC040E050E072
:104E500063E070E085E692E00E943C298091E800E2
:104E60008E778093E8000895BC0184E00C940A27B3
:104E7000BC0183E00C940A27CF93603219F520918E
:104E8000C1022430F9F4C091E900CF703091EC00F8
:104E9000232F217030FD20E8C22B22E02093E9006F
:104EA0002091E80020FF0BC040E050E060E270E09D
:104EB0000E943C298091E8008E778093E800CF70B3
:104EC000C093E900CF9108950C94BA256091BD027A
:104ED00081E0611101C080E00C94A5259091C10290
:104EE00081E0943009F080E06091BD020C94AA2525
:104EF00042E061EC81E00E948B2A42E261EC84E0B6
:104F00000E948B2A42E261EC82E00E948B2A42E2FC
:104F100060EC83E00E948B2A9091C10281E0943082
:104F200009F080E06091BD020C94B3258091C3022A
:104F3000833009F45FC030F4813071F0823009F4BD
:104F400098C008958A3009F484C08B3009F46AC08F
:104F5000893009F0A6C020C08091C202813A09F0D0
:104F6000A0C08091E800877F8093E8008091C6020E
:104F70009091C702892B21F460E288E692E003C099
:104F800060E080E090E070E00E94D2298091E8002B
:104F90008B778093E80008958091C202813209F0F6
:104FA00080C08091C6029091C702009719F00297C5
:104FB00009F077C08091E800877F8093E8008091B6
:104FC000E80082FD05C08091C1028111F8CF69C05F
:104FD0008091F200823031F48091F100813011F043
:104FE000863021F48091F100809388028091E8005E
:104FF0008B7753C08091C202813A09F052C08091F0
:10500000C6029091C702892B09F04BC08091E8003D
:10501000877F8093E8008091E80080FFFCCF80913B
:105020002B0136C08091C2028132D9F58091C6022F
:105030009091C702892BA9F58091E800877F809322
:10504000E8000E94C02A8091C40280932B010C9436
:1050500008098091C202813221F58091E800877FA2
:105060008093E8000E94C02A8091C5028093890243
:1050700008958091C202813AA1F48091E800877F6F
:105080008093E8008091E80080FFFCCF8091890246
:105090008093F1008091E8008E778093E8000C9473
:1050A000C02A089584B7877F84BF0FB6F894A89567
:1050B00080916000886180936000109260000FBE54
:1050C00090E080E80FB6F8948093610090936100BF
:1050D0000FBE0C94B5250E94122B0E94652BE2EEA8
:1050E000F0E080818460808378940C94C92D8FE1F6
:1050F00091E00C947C248091C1028530A9F48091C8
:10510000C102853079F40E94BD258091BF028823B9
:10511000B1F30E94EB25882391F30E9426290E9477
:105120000809EDCF0C94FF250895CF93DF93CDB7F9
:10513000DEB7A0970FB6F894DEBF0FBECDBF80914B
:10514000C102843011F583E08093E9008091E8008A
:1051500082FF1BC08091E80085FF0AC040E050E05C
:1051600060E270E0CE0101960E94872991E001C0C3
:1051700090E08091E8008B778093E800992329F0F4
:1051800060E2CE0101960E94281FA0960FB6F89407
:10519000DEBF0FBECDBFDF91CF9108950C94D02814
:1051A000292F332723303105C9F060F42130310530
:1051B00081F02230310509F041C08BE590E029E211
:1051C00034E040C021323105E1F02232310531F1C5
:1051D00035C082E190E024E834E034C09927813082
:1051E000910549F028F0029749F5E9EFF3E005C091
:1051F000E5E2F4E002C0EFE0F4E0849190E09F018A
:1052000021C063307105D0F4660F771FFB01EE53A8
:10521000FE4F2081318189E090E014C06330710538
:1052200068F4FB01EE0FFF1FE454FE4F2081318133
:10523000FB01E754FE4F808190E004C080E090E0E5
:1052400020E030E0FA0131832083089584E089BDB5
:1052500086E089BD09B400FEFDCF8091D8008F7D26
:105260008093D8008091E00082608093E00080917C
:10527000E00081FDFCCF0895CF92DF92EF92FF9284
:105280000F931F93CF93DF93EC018B017A010E9460
:10529000DF2A811133C0E114F10439F0F701808174
:1052A0009181081B190BC80FD91FC12CD12C0115D6
:1052B000110519F18091E80085FD16C08091E80084
:1052C0008E778093E800E114F10449F0F7018081C2
:1052D0009181C80ED91ED182C08285E00FC00E9484
:1052E000DF2A882321F30AC089918093F1000150BD
:1052F0001109FFEFCF1ADF0ADACF80E0DF91CF91FB
:105300001F910F91FF90EF90DF90CF900895CF9273
:10531000DF92EF92FF920F931F93CF93DF93EC01F5
:105320008B017A010E94DF2A811133C0E114F1045C
:1053300039F0F70180819181081B190BC80FD91F23
:10534000C12CD12C0115110519F18091E80085FDC2
:1053500016C08091E8008B778093E800E114F10497
:1053600049F0F70180819181C80ED91ED182C08297
:1053700085E00FC00E94DF2A882321F30AC08091B4
:10538000F100899301501109FFEFCF1ADF0ADACF3C
:1053900080E0DF91CF911F910F91FF90EF90DF9010
:1053A000CF9008952091C8023091C902261737077F
:1053B00048F06115710539F42091E8002E772093AB
:1053C000E80001C0B901FC0120E06115710561F13F
:1053D0008091C1028823D9F18530D9F18091E8000C
:1053E00083FD39C08091E80082FD2BC08091E800E8
:1053F00080FFEBCF8091F20090E06115710551F0D4
:105400008830910538F421912093F10061507109A1
:105410000196F3CF21E0089709F020E08091E800A1
:105420008E778093E800D1CF2111D2CF0AC080912E
:10543000C102882361F0853061F08091E80083FD2E
:105440000AC08091E80082FFF2CF80E0089582E0F8
:10545000089583E0089581E008952091C802309175
:10546000C9022617370748F06115710539F42091F4
:10547000E8002E772093E80001C0B901FC0120E08C
:105480006115710579F18091C102882309F43DC04D
:10549000853009F43CC08091E80083FD3AC08091DA
:1054A000E80082FD2CC08091E80080FFE9CF809168
:1054B000F20090E06115710559F08830910540F4D3
:1054C00024912093F1003196615071090196F2CF39
:1054D00021E0089709F020E08091E8008E77809322
:1054E000E800CECF2111CFCF0AC08091C10288231E
:1054F00061F0853061F08091E80083FD0AC0809101
:10550000E80082FFF2CF80E0089582E0089583E012
:10551000089581E00895982F953068F59093E900FB
:10552000981739F07091EC002091ED005091F00047
:1055300003C0242F762F50E021FD02C09F5FECCFE7
:105540003091EB003E7F3093EB003091ED003D7FDA
:105550003093ED003091EB0031603093EB007093AD
:10556000EC002093ED005093F0002091EE0027FD19
:10557000E5CF80E008958F708093E90081E0089581
:105580008091C20287FF11C08091E80082FD05C0B2
:105590008091C1028111F8CF11C08091E8008B7712
:1055A0000BC08091C102882349F08091E80080FF00
:1055B000F8CF8091E8008E778093E80008952091DD
:1055C000E4003091E50095E64091EC00842F817075
:1055D00040FF23C08091E80080FD1DC08091C10282
:1055E000882399F0853099F08091EB0085FD11C0FA
:1055F0004091E4005091E5002417350729F39150BC
:1056000011F09A01E1CF84E0089582E0089583E0EB
:10561000089581E0089580E008954091E80042FFF8
:10562000DDCF08950E946F2B0E94722BE0EEF0E018
:10563000808181608083E8EDF0E080818F778083D6
:1056400019BCE3E6F0E08081816080831092C002A3
:1056500008950E946F2B0E94722B8091D8008F7743
:105660008093D8008091D80080688093D800809182
:10567000D8008F7D8093D80084E089BD86E089BD05
:1056800009B400FEFDCF1092C1021092BD0210922B
:10569000BF021092BE0242E060E080E00E948B2ACE
:1056A0008091E1008E7F8093E1008091E200816033
:1056B0008093E2008091E20088608093E200809114
:1056C000E0008E7F8093E0000895E3E6F0E08081C3
:1056D0008E7F808381E08093C0020C94292B1092EE
:1056E000E20008951092E10008951F920F920FB604
:1056F0000F9211242F933F934F935F936F937F9358
:105700008F939F93AF93BF93EF93FF938091E100AB
:1057100082FF0BC08091E20082FF07C08091E10010
:105720008B7F8093E1000E94C82D8091E10080FF73
:1057300019C08091E20080FF15C08091E2008E7F49
:105740008093E2008091E20080618093E20080918A
:10575000D80080628093D80019BC85E08093C10294
:105760000E9466278091E10084FF30C08091E200B2
:1057700084FF2CC084E089BD86E089BD09B400FEA9
:10578000FDCF8091D8008F7D8093D8008091E1007B
:105790008F7E8093E1008091E2008F7E8093E20013
:1057A0008091E20081608093E2008091BD028823B5
:1057B00011F084E007C08091E30087FD02C081E022
:1057C00001C083E08093C1020E946E278091E100B6
:1057D00083FF29C08091E20083FF25C08091E10012
:1057E000877F8093E10082E08093C1021092BD0226
:1057F0008091E1008E7F8093E1008091E2008E7FB6
:105800008093E2008091E20080618093E20042E0B8
:1058100060E080E00E948B2A8091F0008860809395
:10582000F0000E946427FF91EF91BF91AF919F918B
:105830008F917F916F915F914F913F912F910F9039
:105840000FBE0F901F9018951F920F920FB60F92D8
:1058500011242F933F934F935F936F937F938F9375
:105860009F93AF93BF93CF93DF93EF93FF93C09139
:10587000E900CF708091EC00D82FD17080FDD0E886
:105880001092E9008091F000877F8093F000789477
:105890000E94682C1092E9008091F000886080934B
:1058A000F000CD2BCF70C093E900FF91EF91DF9115
:1058B000CF91BF91AF919F918F917F916F915F91A8
:1058C0004F913F912F910F900FBE0F901F90189501
:1058D0001F93CF93DF93CDB7DEB7AA970FB6F89497
:1058E000DEBF0FBECDBFE2ECF2E08091F10081930C
:1058F00022E0EA3CF207C9F70E9496278091E8006F
:1059000083FF2EC18091C2029091C302492F50E0C3
:105910004A30510508F024C1FA01E559FF4F0C94B3
:105920006F2E803821F0823809F01AC108C08091AA
:10593000BE029091BF02992389F082600FC08091CE
:10594000C6028F70853008F00BC18093E90080910A
:10595000EB0085FB882780F91092E9009091E80020
:10596000977F9093E8008093F1001092F100D1C0EE
:10597000282F2D7F09F0F4C0882319F0823061F0C0
:10598000EFC08091C402813009F0EAC0933009F081
:1059900080E08093BF022EC08091C40281112AC092
:1059A0008091C6028F702FEF280F243008F0D8C0E6
:1059B0008093E9002091EB0020FF1CC0933021F47C
:1059C0008091EB00806214C09091EB009061909305
:1059D000EB0021E030E0A90102C0440F551F8A9579
:1059E000E2F74093EA001092EA008091EB008860B1
:1059F0008093EB001092E9008091E800877F80930C
:105A0000E8000E94C02AACC08111AAC01091C40253
:105A10001F778091E3008078812B8093E300809151
:105A2000E800877F8093E8000E94C02A8091E80008
:105A300080FFFCCF8091E30080688093E300111128
:105A400002C082E001C083E08093C10289C0805817
:105A5000823008F085C08091C4029091C5028C3DCF
:105A600053E0950779F583E08A838AE289834FB70B
:105A7000F894DE01139620E03EE051E2E32FF0E0DF
:105A800050935700E49120FF03C0E295EF703F5F11
:105A9000EF708E2F90E0EA3010F0C79601C0C096EC
:105AA0008D939D932F5F243149F74FBF8091E8007C
:105AB000877F8093E8006AE270E0CE0101960E9441
:105AC000D22916C06091C6027091C702AE014F5F25
:105AD0005F4F0E94CE28BC01892B09F441C09091F0
