:100000000C94E1020C9428030C9443030C942803F1
:100010000C9428030C9428030C94B2260C94280307
:100020000C9428030C9428030C9428030C942803A4
:100030000C9428030C9428030C940B270C9428038D
:100040000C9428030C9428030C9428030C94280384
:100050000C9428030C9428030C9428030C94280374
:100060000C9428030C9428032708270853085308E6
:10007000BB08D908D109D109E4084C095D095D091B
:10008000C109D109D109CA09830A830A950A950AC7
:100090008C0A950A950A950A830A830A910A950A99
:1000A000950A910A86208920A920BA20C220CD2055
:1000B000D020D320D6201C211C21D920DC20E120F7
:1000C000EE20FB20FE2002210F2159005A005B0088
:1000D0005C005D005E005F006000610062002E0257
:1000E0002D002502380028003700590000000000CC
:1000F0005A0001000100010001000100010001009F
:1001000001000100010001000100010001000100E7
:1001100001000100000000000100010001000100D9
:1001200001000100010001000100010001000100C7
:1001300001000100010001000100010000000000B9
:1001400001000100010001000100010001000100A7
:100150000100010001000100010001000100010097
:10016000010001000000000001000000000000008C
:1001700000002A2B28000000000000000000000002
:10018000000000000029000000002C1E3420212265
:1001900024342627252E362D3738271E1F202122CE
:1001A000232425263333362E37381F040506070847
:1001B000090A0B0C0D0E0F10111213141516171837
:1001C000191A1B1C1D2F3130232D35040506070875
:1001D000090A0B0C0D0E0F10111213141516171817
:1001E000191A1B1C1D2F3130354C00000000000077
:1001F00000000000000000000000000000000000FF
:1002000000000000000000000000000000007E0F61
:1002100000D4FFFFFFC70000007800047F3F1F6489
:100220003214643214783C1E1E140A05222325263B
:1002300028292A2C2D2F3032333536383A3B3D3E93
:100240004042434547494A4C4E5051535557595ADD
:100250005C5E6062646668696B6D6F7173757779F7
:100260007B7D7F81838587898A8C8E9092949698F6
:100270009A9C9E9FA1A3A5A7A8AAACAEAFB1B3B408
:10028000B6B8B9BBBCBEBFC1C2C3C5C6C7C9CACB5D
:10029000CCCDCED0D1D2D2D3D4D5D6D7D7D8D9D928
:1002A000DADADBDBDBDCDCDCDCDCDDDDDDDDDCDC91
:1002B000DCDCDCDBDBDBDADAD9D9D8D7D7D6D5D4AE
:1002C000D3D2D2D1D0CECDCCCBCAC9C7C6C5C3C27A
:1002D000C1BFBEBCBBB9B8B6B4B3B1AFAEACAAA8CF
:1002E000A7A5A3A19F9E9C9A98969492908E8C8A83
:1002F00089878583817F7D7B79777573716F6D6B5E
:100300006968666462605E5C5A5957555351504E35
:100310004C4A4947454342403E3D3B3A38363533E7
:1003200032302F2D2C2A292826252322FFAA7F555B
:10033000400001010101010101010102020202026A
:10034000020202020303030303030303040404047D
:100350000404040505050505060606060607070745
:10036000070708080808090909090A0A0A0B0B0BFC
:100370000C0C0C0D0D0D0E0E0E0F0F0F1010111199
:10038000111212131314141515161617171818191D
:10039000191A1A1B1B1C1D1D1E1E1F202021222284
:1003A000232424252626272829292A2B2C2D2D2EC7
:1003B0002F30313232333435363738393A3B3C3DE1
:1003C0003E3F404142434445464748494A4C4D4ED2
:1003D0004F50515354555658595A5B5D5E5F616298
:1003E00064656668696B6C6D6F7072737577787A27
:1003F0007B7D7E8082838587888A8C8E8F91939582
:1004000096989A9C9EA0A2A3A5A7A9ABADAFB1B3A5
:10041000B5B7BABCBEC0C2C4C6C9CBCDCFD1D4D685
:10042000D8DBDDDFE2E4E7E9EBEEF0F3F5F8FAFD27
:10043000FF09025B00030100A0FA090400000103A8
:10044000010100092101010001224000070581038B
:100450000800010904010002030000000921010154
:100460000001222200070584030800010705040398
:100470000800010904020001030000000921010134
:100480000001227B0007058303080001120110010F
:1004900000000008EDFE04000100010200012A0333
:1004A0004E0061006E006F0050006100640020008B
:1004B00031003600200052006500740072006F00A9
:1004C0002000520047004200000014034800410091
:1004D00049005A0041004B00550052004100000005
:1004E000040309040660FF0961A1010962150026E1
:1004F000FF009520750881020963150026FF00950D
:100500002075089102C005010902A10185020901B7
:10051000A100050919012908150025019508750193
:1005200081020501093009311581257F9502750881
:10053000810609381581257F950175088106050C0E
:100540000A38021581257F950175088106C0C0050E
:10055000010980A101850319012AB700150126B7F9
:1005600000950175108100C0050C0901A1018504E9
:1005700019012AA002150126A0029501751081001B
:10058000C005010906A101050719E029E7150025A5
:100590000195087501810295017508810305071908
:1005A0000029FF150026FF00950675088100050843
:1005B00019012905950575019102950175039103AE
:1005C000C00011241FBECFEFD8E0DEBFCDBF04B600
:1005D00003FE27C080919C0390919D03A0919E03F0
:1005E000B0919F038730904BA740B04BD1F410924D
:1005F0009C0310929D0310929E0310929F0314BEC1
:1006000084B7877F84BF0FB6F894A8958091600067
:10061000886180936000109260000FBEE0E0F8E314
:10062000099511E0A0E0B1E0EEE5F7E502C0059024
:100630000D92AE3BB107D9F723E0AEEBB1E001C0BC
:100640001D92AC39B207E1F70E947D150C94AD2BD9
:100650000C940000A82FB92F80E090E041E050EA10
:10066000609530E009C02D9182279795879510F00D
:1006700084279527305EC8F36F5FA8F30895EADFFB
:100680008D939D930895CF93CFB7CF93DF93C39569
:100690004B9BE9F74B9B10C04B9B0EC04B9B0CC078
:1006A0004B9B0AC04B9B08C04B9B06C0C091730379
:1006B000C395C09373038EC06F93C0917203DD27FF
:1006C000C658DC4F2F9365E54B9B03C02F916F916C
:1006D000E1CF0F931F934F9320E040E15F9309B167
:1006E0000C7003FB27F93F9350E03BE039C01C70CE
:1006F00040642F77012F5F5F1EC0406819B11C70E6
:100700002F7752501FC0406409B12F770C70D1F180
:100710005F5F00C023C0406219B12F771C7091F158
:100720005F5F00C025C00C701027515012F45D5F50
:100730000000115027952C3F19B1C8F61C700127F5
:10074000015027952C3FC8F64227499309B10C70F8
:1007500010274F73115027952C3FA8F646954695C4
:1007600019B11C7079F00127015027952C3F98F69C
:100770006B5A60F3315009B1B0F600C012E01CBBF7
:1007800000271CC03B503195C31BD04012E01CBB5E
:100790000881033C21F10B3411F120916F03198181
:1007A000110F1213EDCF4A81441F093679F10D3232
:1007B00011F0013E29F74F7009F0042F00937803E0
:1007C0003F915F914F911F910F912F916F91CCB3FA
:1007D000C1FD5DCFDF91CF91CFBFCF911895209113
:1007E0007803222369F310917603112309F049C09D
:1007F00034300AF448C0309376032093710310918B
:1008000072033BE0311B309372033DC000917603CD
:100810000130BCF50AE54F7049F430912C0134FDEC
:1008200033C000932C01CCE4D3E032C0433059F004
:10083000443091F03091570334FD26C000935703A4
:10084000C8E5D3E025C03091900334FD1DC000936E
:100850009003C1E9D3E01CC03091630334FD14C0A0
:1008600000936303C4E6D3E013C0052710E000C083
:1008700000000BB91AC0052710E0221F1DC010E0B0
:1008800021C04AE502C032ED432FC4E1D0E032E09E
:100890001AB11C605B9A0BB11AB95CE020E865E301
:1008A00020FF05270BB9279517951C3FF0F6669595
:1008B000B8F7B1F720FF05270BB9279517951C3F0F
:1008C000D0F62795179517FF052700001C3F0BB999
:1008D000B0F629913A9519F7037F10917703110F1C
:1008E000C651D0400BB911F010936F0312E01CBB3E
:1008F00008601AB1137F402F437F54E05A95F1F7F7
:100900000BB91AB94BB95CCF9C013A9521153F41FF
:1009100030F5BC0166277270AC01442754709C010D
:100920002227387094FF0FC090FF02C080E101C001
:1009300080E0672B09F08062452B09F08064232B4F
:1009400079F080680895892F8170672B09F08260A3
:10095000452B09F08460232B19F08860089580E00E
:100960000895CF93DF93EC01805E9109089710F012
:10097000209731F4CE010E9484040E94E20705C052
:10098000CE010E9484040E94490A8C2FDF91CF91EE
:100990000C943807CF93DF93EC010E948E07CE01B1
:1009A000805E9109089710F0209739F4CE010E94DB
:1009B0008404DF91CF910C94E907CE010E94840456
:1009C000DF91CF910C94500ACF93DF93EC010E94FA
:1009D000B104CE01DF91CF910C94CA0481E0089557
:1009E00081E008950C94F00408950C94F4041F938E
:1009F000CF93DF9300D000D01F92CDB7DEB74983ED
:100A00005A836B833091C00189819A81311114C05E
:100A1000662359F0222349F00E94770B182F682F84
:100A200089819A810E94220B03C00E944C0B182FCF
:100A300069817A81812F04C00E94770B69817A8154
:100A40000F900F900F900F900F90DF91CF911F910B
:100A50000C940824FC01262F40815181628173810E
:100A600084810C94F70481E00895CF93DF93EC0127
:100A700060E00E942A05BE01DF91CF910C94F5043D
:100A8000E1E0F0E0DF0102C0AA0FBB1F6A95E2F7C8
:100A9000BD01DF0102C0AA0FBB1F4A95E2F7AD01FD
:100AA000462B01C0EE0F2A95EAF7942F982349139D
:100AB00002C08E2B0895E0958E230895242F462F93
:100AC000682F8091CA010E9440050C94DF0A0E94A1
:100AD00017140E94DE060E9450210C9447140C94B7
:100AE000431408950C9471050C9472050E947405CA
:100AF00080E00C94DF060C9471050E94710A0E943C
:100B00007B052FEF84E39CE0215080409040E1F78B
:100B100000C000000C9431270F931F93CF93DF93F5
:100B20008C0161E00E942A05EC01B8010E94DE1FE1
:100B3000882309F452C0B801CE010E94F204882330
:100B400009F44BC0B801CE010E94F421882309F4B6
:100B500044C0B801CE010E946E258823F1F1B8018E
:100B6000CE010E9412228823C1F1B801CE010E9459
:100B7000CA24882391F1B801CE010E948A1E8823DD
:100B800061F1F8018281882309F1CA358DE5D80722
:100B9000C1F050F4C115FCE5DF0781F0CE3DDC4526
:100BA000A9F40E94181119C0CB35EDE5DE0761F0FC
:100BB000CC35DD4559F40E945C1008C00E947D05CB
:100BC0000CC00E94651002C00E946810C801DF912D
:100BD000CF911F910F910C94EE0480E0DF91CF91A3
:100BE0001F910F9108950C9471050E94CA250E94CF
:100BF000DF060C94F305DF92EF92FF920F931F93A1
:100C0000CF93DF93E82FF0E0E659FE4FD490282FE2
:100C100026952695269530E0F901E65FFD4F049173
:100C2000877010E0082E02C0159507950A94E2F728
:100C300001701127F901E650FE4FE490F12C082EC7
:100C400002C0F594E7940A94E2F791E0E922FF24C8
:100C5000F901E651FE4FC491D0E002C0D595C79589
:100C60008A95E2F7C170DD270115110519F081EEB3
:100C70000E943807E114F10419F086EE0E9438074B
:100C80008D2D0E94D907EF2819F086EE0E948E075D
:100C9000012B19F081EE0E948E07CD2B51F08CE2D2
:100CA000DF91CF911F910F91FF90EF90DF900C9407
:100CB000D907DF91CF911F910F91FF90EF90DF90B7
:100CC0000895EF92FF920F931F93CF93DF93EC0160
:100CD000162F0AE08881882309F455C0813009F075
:100CE00043C08981813041F47E0182E0E80EF11C2D
:100CF0008A810E94D90709C0823049F47E01E2E06E
:100D0000EE0EF11C8A810E943807E7012FC0833064
:100D100041F47E01F2E0EF0EF11C8A810E948E0701
:100D2000F4CF843011F0219621C02A81229680E0F0
:100D300090E030E0205331092A30310558F4089F03
:100D4000A001099F500D1124C901840F951F219600
:100D50002881EFCF009751F0EFE9FFE03197F1F7ED
:100D600000C000000197F6CF0E94FB052196812F5D
:100D7000882309F4AFCFEFE9FFE03197F1F700C026
:100D800000008150F5CFDF91CF911F910F91FF901F
:100D9000EF90089560E00C946106982F9F709A5030
:100DA000963010F0805D01C0895A0C94FB050895BF
:100DB0000C94D70681E008950C94DA060895CF9339
:100DC000C82F0E94D8068C2F0E94DC06CF91089570
:100DD000CF93DF93CDB7DEB72B970FB6F894DEBF76
:100DE0000FBECDBF4F83588769877A878B87611184
:100DF0000E94A80F9E012F5F3F4F86E0F9011192DC
:100E00008A95E9F785E0FE013796D90101900D92A8
:100E10008A95E1F789819A814C815D81452B31F07A
:100E20009F3F31F491E08F3F19F403C091E001C07E
:100E300090E090FF09C049815A816B817C818D814E
:100E40009E810E94C60E05C0C9010E943305811112
:100E5000F2CF2B960FB6F894DEBF0FBECDBFDF9159
:100E6000CF910895FC01808191810E94A40B089587
:100E7000CF93882309F450C0C82F8CEF8C0F813A90
:100E8000D0F46C2F80910201909103010E942A26D8
:100E9000882349F06C2F80910201909103010E94F8
:100EA00062260E94DA0F6C2F80910201909103015B
:100EB0000E9460260CC080E28C0F883058F4C77006
:100EC00081E001C0880FCA95EAF70E94880FCF9190
:100ED0000C94DA0FEBE5EC0FE33040F4F0E0E55A68
:100EE000FE4F808190E0CF910C94F225E8E5EC0F65
:100EF000E73150F4F0E0EE0FFF1FE35DFE4F80811D
:100F00009181CF910C940826C03F30F08C2F0E9425
:100F10000C16CF910C94DE16CF910895882389F199
:100F20009CEF980F913A40F4682F809102019091C4
:100F300003010E9462260DC090E2980F983058F489
:100F4000877091E001C0990F8A95EAF7892F0E9476
:100F50008E0F0C94DA0F9BE5980F933020F480E00D
:100F600090E00C94F22598E5980F973120F480E0FA
:100F700090E00C940826803F20F00E9467160C94A5
:100F8000DE1608951F93CF93DF93182FEB010E9475
:100F90003807209741F08FE99FE00197F1F700C0F3
:100FA00000002197F6CF812FDF91CF911F910C94F4
:100FB0008E07893319F060E070E002C060E570E0F0
:100FC0000C94C207882321F00E94880F0C94DA0F3A
:100FD0000895882321F00E948E0F0C94DA0F089553
:100FE000CF92DF92EF92FF920F931F93CF93DF93F5
:100FF0007C01162FC72FFC01D281058102950F704D
:101000000E947E0F8823B9F0DD23A9F08C2F807F0A
:10101000803421F080E2810F883068F080910103F4
:1010200082FD09C082E00E942A100E947E0F91E09A
:10103000D82ED92601C0D12CCC2EC2948FE0C82244
:101040008C2D90E0FC01EC5CFF4F0C940D2B8C2F51
:10105000807FCF70882311F0C295C07FDD2399F087
:10106000CC2309F479C180E2810F883010F011118E
:1010700004C08C2F0E94880F03C08C2F0E949B0FEE
:101080000E94DA0F69C1812F0E948E07CC2309F4D8
:1010900088C180E2810F883038F1112329F18C2F2B
:1010A0000E94A10F24C08C2F807FCF70803211F05E
:1010B000C295C07F112319F01130A1F13DC080917C
:1010C000010382FF17C0DD2349F0CC2329F08C2FC8
:1010D0000E94880F0E94DA0F80E03FC180E00E94EA
:1010E0008E07CC2309F45DC18C2F0E948E0F0E94C5
:1010F000DA0F57C1DD2371F0002341F0013031F4E4
:101100000E94BB0F8C2B0E94C30F4BC10E94BB0FD0
:101110008C2B1DC0002319F0013009F442C10E943C
:10112000D00F25C0DD2321F0063008F03AC10EC0F3
:10113000053008F036C11BC0DD2361F0002331F01B
:10114000F701858180FF08C18F7085838C2F0E94F5
:10115000E20727C1002359F0193309F00EC1FFEF50
:1011600027EE83E0F15020408040E1F704C18C2F4E
:101170000E94E90716C18C2F86958695837019F019
:10118000813061F00EC1DD2321F0812F9C2F9370FF
:1011900002C080E090E00E94F2250BC1DD2321F027
:1011A000812F9C2F937002C080E090E00E9408265F
:1011B00000C1812FDD2319F00E940C1602C00E948D
:1011C00067160E94DE16F5C08C2F837079F5D11159
:1011D000ECC0412F429546954770440F440F212F94
:1011E0002F70042E01C0220F0A94EAF714FF08C0E2
:1011F0008FE090E001C0880F4A95EAF7809501C022
:1012000080E0C695C695C370822BC23049F058F471
:10121000C13019F00E94D30AC8C00E94CE0AC5C0CE
:101220000E94D80AC2C00E94CC0ABFC0DD2319F0B8
:101230008C2F817001C08695882309F4B6C0412F98
:10124000429546954770440F440F212F2F70042E6E
:1012500001C0220F0A94EAF714FF08C08FE090E063
:1012600001C0880F4A95EAF7809501C080E0C695D5
:10127000C695C370822BC23049F058F4C13019F0C2
:101280000E94170B92C00E94120B8FC00E941C0B71
:101290008CC00E94DF0A89C0CF70DD2339F08C2F0B
:1012A0000E94F00A812F0E94E2077FC0812F0E94D6
:1012B000E9078C2F0E94FB0A78C0123F21F128F425
:1012C000103F41F0113FC1F043C0133F19F1143FEB
:1012D00079F03EC0DD2341F0053008F062C08C2F6C
:1012E0008F710E94070B5DC0063008F05AC0F7CF1F
:1012F0008091010382FF18C0DD2339F08C2F8F719C
:101300000E94F00A4EC0DD23C9F38C2F8F710E941A
:10131000FB0A47C0DD2329F08C2F8F710E94E80A59
:1013200040C00E94E50A3DC0DD2349F0CF718C2FFB
:101330000E94F00A63E08C2F0E940F1032C081E0FF
:101340000E942A10023068F182E00E942A1029C00F
:10135000DD2331F0002391F2812F0E94380721C054
:10136000002399F2193349F49FEFE7EEF3E091502F
:10137000E040F040E1F700C00000812F0E948E079E
:1013800010C04C2F4F70612FC7010E94F9110E94AD
:10139000D20B0FC04C2F4F70612FC7010E94FC1160
:1013A00008C088EF8C0D843020F40E94CA250E946A
:1013B000DF06DD20C9F00E947A0F80FD15C0F7011D
:1013C00012820E94740F0E94F00AC7010E94150A3F
:1013D0000E94740FDF91CF911F910F91FF90EF90BA
:1013E000DF90CF900C94FB0ADF91CF911F910F916A
:1013F000FF90EF90DF90CF9008950F931F93CF93BE
:10140000DF93EC01688179818A810E94AF0B8C01A6
:101410000E94210B0E94C00AB801CE010E94F00771
:10142000DF91CF911F910F910895CF93DF93EC013E
:10143000988189812B813C81232B31F08F3F31F4BE
:1014400081E09F3F19F403C081E001C080E080FD8E
:101450001DC0CE010E948C05811110C00E947E0F1C
:101460008823A1F08A81882389F08091010382FD7D
:101470000DC082E0DF91CF910C942A10CE010E9422
:10148000FD09CE01DF91CF910C943505DF91CF910D
:101490000895882321F00E949B0F0C94DA0F089581
:1014A000882321F00E94A10F0C94DA0F089580E0A8
:1014B00090E00E94F22580E090E00E9408260E94C1
:1014C000A80F0E94B80F0E94DA0F0E940F180C9408
:1014D000DE1680910201909103010E9464260C9413
:1014E000570A0E94980F0C94690AE92FE295EF7051
:1014F0004E2F50E0FA013297EE30F105B0F4EC5B7C
:10150000FF4F0C940D2B803F91F018F4883E68F447
:101510000EC0843F51F40BC0883E48F0813F29F44F
:1015200006C093FB882780F9089580E0089581E044
:101530000895FC01808191810E94A40B0E94750A8C
:101540000895CF93DF9300D000D01F92CDB7DEB7C0
:101550000F900F900F900F900F90DF91CF91089503
:10156000CF93DF9300D000D000D0CDB7DEB7269662
:101570000FB6F894DEBF0FBECDBFDF91CF910895B7
:10158000089508950C94C10A0C94C20A0E94C40ADA
:101590008093CB010C94570A0C94C60A9091CB010E
:1015A000892B0C94C60A9091CB0189230C94C60A0E
:1015B0009091CB0189270C94C60A0C94C10A0E9411
:1015C000DD0A8093CA010C94570A80E00C94DF0A6C
:1015D00091E001C0990F8A95EAF7892F0C94DF0AF0
:1015E00021E030E001C0220F8A95EAF78091CA011C
:1015F000822B0C94DF0A21E030E001C0220F8A9593
:10160000EAF720958091CA0182230C94DF0A21E039
:1016100030E001C0220F8A95EAF78091CA01822743
:101620000C94DF0A9091CA01892B0C94DF0A9091E7
:10163000CA0189230C94DF0A9091CA0189270C946E
:10164000DF0A0895990F990F890FE82FE695E6951F
:10165000E695877051E001C0550F8A95EAF783E05F
:10166000E89FF0011124EF53FE4F20E030E070E0DE
:101670004081CB01022E02C0969587950A94E2F72D
:101680008170819584278523842781932F5F3F4F25
:101690002330310569F70895990F990F890F682F45
:1016A000669566956695982F977083E0689FB00160
:1016B000112440E050E080E0FB01E40FF51FEF5300
:1016C000FE4F208130E0092E02C0369527950A94FE
:1016D000E2F721703327042E01C0220F0A94EAF7A3
:1016E000822B4F5F5F4F4330510531F70895CF9202
:1016F000DF92FF920F931F93CF93DF936C010091C2
:10170000CA018091CB01082BC7E0D0E010E0C801EE
:101710000C2E02C0959587950A94E2F780FD04C0CF
:101720002197A8F7F12C07C0FC2EB6018C2F0E9440
:1017300021130197A9F38F2DDF91CF911F910F9165
:10174000FF90DF90CF900895CF93DF93EC010E943C
:10175000770BBE010E942113DF91CF9108951F9353
:10176000CF93DF93EB019091C001992321F0CB013E
:101770000E94A40B13C0882349F0CB010E94770B71
:10178000182F682FCE010E94220B04C0CB010E94AB
:101790004C0B182FBE01812F0E942113DF91CF9196
:1017A0001F910895EF92FF920F931F93CF93DF93B2
:1017B0008C01892B09F46CC0F12CEE24E394E80130
:1017C0002196F8018491843740F4843008F051C0A8
:1017D000813081F0823019F15BC0853709F444C053
:1017E000A8F19CE7980F903708F052C08F770E94BD
:1017F0008E0741C00E5F1F4FFE01849190E2980F4B
:10180000983050F48770FE2D01C0FF0F8A95EAF7DB
:101810008F2F0E94AB0F14C00E9438072DC00E5F9F
:101820001F4FFE01849190E2980F983060F487700A
:10183000FE2D01C0FF0F8A95EAF78F2F0E94B10F8E
:101840000E94DA0F19C00E948E0716C00E5F1F4F4C
:10185000FE01C491CC2381F08FE99FE00197F1F75D
:1018600000C00000C150F6CF0E5F1F4FFE01F49084
:1018700003C00E9438078E018F2D882309F49FCF63
:10188000EFE9FFE03197F1F700C000008150F5CF9C
:10189000DF91CF911F910F91FF90EF9008951F93CB
:1018A000CF93DF93C091CC0116E08091CD01C81792
:1018B00099F0D0E01C9FF0011D9FF00D1124E25320
:1018C000FE4F4081518162817381848195810E94A4
:1018D000B00A2196C770E9CFDF91CF911F9108958B
:1018E0004091FE015091FF01609100027091010250
:1018F00080910202909103020C94B00AEF92FF9241
:101900000F931F93CF93DF938091030282958F7083
:1019100009F065C080910002882309F460C08091BD
:10192000CC01F090CD011091FE010091FF0160917A
:1019300001027091020291E01F3F09F090E0C09116
:101940000001D0910101292F96E0E92E8F1509F4AD
:1019500046C06115710521F00F3F21F030E003C052
:1019600031E001C0322F90E030FD36C0E89EF0013A
:10197000E99EF00D1124DF01A253BE4F11963C9158
:101980001197301329C03C91311326C012963C9117
:101990001297311121C013964D915C911497461BFB
:1019A000570B4C175D07C0F4809103028F70806164
:1019B00080930302ED52FE4F80818F70806180839F
:1019C0008EEF91E00E94150ADF91CF911F910F9148
:1019D000FF90EF900C944F0C01968770B7CFDF917A
:1019E000CF911F910F91FF90EF9008959F92AF922A
:1019F000BF92CF92DF92EF92FF920F931F93CF93FC
:101A0000DF93CDB7DEB761970FB6F894DEBF0FBE98
:101A1000CDBF8C0185E0F801DE011D9601900D928D
:101A20008A95E1F7D8011296EC909091FE01E09131
:101A3000FF0120910102309102022115310531F0A0
:101A4000EF3F31F481E09F3F19F403C081E001C012
:101A500080E0B82FB1709B2E80FD47C1D8014C911A
:101A600011965C9111971396AD90BC9014978EEFE0
:101A7000C82E81E0D82EF0900002B501621B730BD6
:101A80002091000130910101FF2009F4D9C080911B
:101A900003026217730708F095C0282F207F09F012
:101AA00052C05E1313C0491311C0FE2CE1100EC0CA
:101AB0008F708061809303020E94700CC6010E94A7
:101AC000150A80910302F80185834DC1AB2831F0DE
:101AD0005F3F31F481E04F3F19F403C081E001C062
:101AE00080E080FD03C081E08E2502C080E090E0B0
:101AF000F82FF170FF2E80FF1CC08091CC01209147
:101B0000CD0136E0821709F40BC190E0389FF00157
:101B1000399FF00D1124E253FE4F6181561306C028
:101B20006081461303C06281E61203C0019687708C
:101B3000E9CFFE2CEE2009F416C1809103028160EA
:101B40008093030254C05E1306C0491304C0E11021
:101B500002C0F80199C0C8010E94990A882361F166
:101B6000EE2051F120910302822F82958F7090E038
:101B7000029774F08091FE019091FF0198878F8306
:101B80001986BB86AA862C87CE0107960E94150A65
:101B900086E0F801AEEFB1E001900D928A95E1F791
:101BA0000E947E0C0E94700C0AC05E1711F1C801E1
:101BB0000E94990A81112CC0C8010E94150AFF24B5
:101BC000F394D1C0282F207F81F77A2DB98AA88A73
:101BD0006E2D89890E94A10A8EEF91E00E94150A5C
:101BE00086E0D6011D928A95E9F70E94700CF12CCF
:101BF000BAC04913DCCFE110DACFF8018583C80100
:101C00000E94150A86E0D6011D928A95E9F7ABC0BD
:101C1000EE2091F220910302822F82958F7090E046
:101C200002970CF4B5CF8091FE019091FF019A8349
:101C300089831B82BD82AC822E83CE010196A6CF02
:101C40006217730708F044C0FE2CEE2009F4B4CFED
:101C50005E1330C049132EC02091030220FD21C025
:101C6000822F82958F70482F50E041155105C9F0A1
:101C7000F80125834F30510541F08F5F982F9295E1
:101C8000907F822F8F70892B8583C8010E94150A4F
:101C900086E0F801AEEFB1E001900D928A95E1F790
:101CA0003CC086E0F801AEEFB1E001900D928A955C
:101CB000E1F759C0C8010E94990A811169CF80914A
:101CC0000302816080930302C8010E94150A4BC081
:101CD0007A2DB98AA88A6E2D89890E94A10A86E088
:101CE000D6011D928A95E9F718C0EE2009F464CF59
:101CF000C8010E94990AF82E882309F45DCF86E076
:101D0000F801AEEFB1E001900D928A95E1F78EEF08
:101D100091E00E9432070E947E0C0E94700C23C04A
:101D20004D875E878D859E850E94A40B292F229565
:101D30002F70223028F49F7039F0811105C00BC03C
:101D4000243028F49F7049F4805E883020F0C80168
:101D50000E94150A9F2CF92C06C0D80115969C915B
:101D6000907F91F7F8CF8F2D61960FB6F894DEBF74
:101D70000FBECDBFDF91CF911F910F91FF90EF90DC
:101D8000DF90CF90BF90AF909F9008951F93CF9317
:101D9000DF93CDB7DEB72C970FB6F894DEBF0FBE3A
:101DA000CDBF4F83588769877A878B879C87CE0101
:101DB00007960E94F60C8823D1F09F8188852A859A
:101DC0003B85232B31F08F3F31F481E09F3F19F4A5
:101DD00003C081E001C080E080FD47C04F8158858D
:101DE00069857A858B859C850E94B00A3EC086E015
:101DF000FE013796DE01119601900D928A95E1F76A
:101E0000FF81E8856A857B856115710531F0EF3FBB
:101E100031F481E0FF3F19F403C081E001C080E0AC
:101E200080FD23C02091CD0130E0C901019687706B
:101E300099274091CC0150E084179507F1F1F9837F
:101E4000EA837D836C8396E0929FD001939FB00DCF
:101E50001124A253BE4FFE01319601900D929A9526
:101E6000E1F78093CD010E944F0C16E08091CC01E8
:101E70009091CD01891771F1189FC00111248253EF
:101E80009E4F0E94F60C882329F1E091CC011E9F01
:101E9000F0011124E253FE4F408151816281738130
:101EA000848195810E94B00A8091CC0190E00196D6
:101EB000877099278093CC01D9CF0E94710A109224
:101EC000CD011092CC01EEEFF1E086E0DF011D9232
:101ED0008A95E9F72C960FB6F894DEBF0FBECDBFFA
:101EE000DF91CF911F91089580910402859585958A
:101EF0008595089580910402877008959091040259
:101F0000977081E009F480E00895809110020895AF
:101F100090911002892B80931002089580959091E2
:101F2000100289238093100208958093100208956F
:101F300010921002089590910F02892B80930F0246
:101F40000895809590910F02892380930F02089540
:101F500010920F02089590910E02892B80930E0229
:101F60000895809590910E02892380930E02089522
:101F700010920E02089580910502089508950C9420
:101F8000BE0F0C94BF0F9091010392FD08C0909179
:101F90000502981721F0809305020C94C10F089553
:101FA00080910502882329F01092050280E00C94AC
:101FB000C10F0895E0910201F09103018091100298
:101FC0008083E0910201F0910301908180910F02E2
:101FD000892B8083E0910201F0910301908180912F
:101FE0000E02892B808380910502882381F0E09185
:101FF0000201F09103019081892B8083809102017D
:10200000909103010E941E2681110E94D00F8091A1
:102010000201909103010C94D9250C94BE0F90916C
:10202000010392FD10C098E0899F90011124262B96
:10203000209304020E94F00A809104028595859500
:1020400085950C940D100C94F00A1092040280E017
:102050000C940D1020910402809582238093040239
:10206000982F977099F430E0482F082E000C550BEC
:102070002417350759F09091010392FD07C085950B
:10208000859585950E94FB0A0C94251008959091E2
:10209000010392FB222720F9281769F080FB92F9AF
:1020A0009093010380910003909101030E94951089
:1020B00082E00C942A1008958091010382FB882706
:1020C00080F991E089270C94471081E00C94471027
:1020D00080E00C9447106FEF7FEF80E090E00C946D
:1020E000972B80E090E00E94732B893E9E4F11F465
:1020F0000C94811F80E0089582E090E00C94652BA1
:1021000083E090E00C94652BCF9384E090E00E94F4
:10211000652BC82F82E290E00E94652B2C2F30E0C7
:10212000A901582BCA01CF910895CF93C92F682FC9
:1021300084E090E00E94792B6C2F82E290E0CF91B6
:102140000C94792BAB01BC018FE090E00C948B2BAD
:10215000AB01BC0183E190E00C948B2B60E070E05C
:10216000CB010C94A81060E070E0CB010E94A2109B
:102170000C94AE1069EE7EEF80E090E00E94972B09
:1021800060E082E090E00E94792B60E083E090E0E4
:102190000E94792B1092CB0160E084E090E00E94D5
:1021A000792B60E082E290E00E94792B60E085E08C
:1021B00090E00E94792B60E086E090E00E94792B0D
:1021C0006FEF87E090E00E94792B40E050E0BA0189
:1021D00088E090E00E948B2B60E08DE090E00E9410
:1021E000792B40E050E0BA0188E190E00E948B2B0F
:1021F00060E087E190E00E94792B40E050E0BA0176
:102200008CE190E00E948B2B60E070E080E290E037
:102210000E94972B40E050E0BA0188E190E00E94D4
:102220008B2B80E00E949A1F0E94C61F0C94B31053
:102230000C94BA10682F8EE090E00C94792B0E94D9
:10224000F02660931B0270931C0280931D029093F2
:102250001E026093170270931802809319029093E4
:102260001A02089581E008950C94321108950C9497
:1022700036110C9436110C9439110C9436110C94BF
:102280003D110C9436118DEF93E10E94C0250E9400
:1022900041110C943F110E9437110C9436110E9489
:1022A000DB260E94D51F0E94E4140E94A11D0C94FD
:1022B0003B119F92AF92BF92CF92DF92EF92FF922B
:1022C0000F931F93CF93DF93CDB7DEB72A970FB647
:1022D000F894DEBF0FBECDBF0E94F91481110E9499
:1022E0001F1182E1A82E82E0B82E00E010E0902EAF
:1022F000802F0E943114D82EF501C1905F01C826AD
:10230000B1F40F5F1F4F0530110589F78FEF8983F7
:102310008A831B820E94E4268160782F9D838C83B0
:1023200049815A816B818D810E94E8062FC080917E
:102330001F0281FD0E943714E12CFF24F3948C2DA1
:102340008F21F1F00E943411882399F0EE829F8250
:10235000DF2081E009F480E088870E94E426816024
:10236000782F9A8789874E815F8168858A850E9448
:10237000E806F801EE5EFD4F8081F826F08206C087
:10238000E394FF0CF4E0EF12DACFBBCF0E94DC1D28
:102390000E94FC160E94CA25909111028917B9F07B
:1023A0000E94CA25809311022A960FB6F894DEBFC8
:1023B0000FBECDBFDF91CF911F910F91FF90EF9096
:1023C000DF90CF90BF90AF909F900C94DF062A963D
:1023D0000FB6F894DEBF0FBECDBFDF91CF911F9136
:1023E0000F91FF90EF90DF90CF90BF90AF909F90B4
:1023F000089580E090E008950895880F991FFC01EA
:10240000E65EFD4F859194910895CF93DF930E94EE
:102410002613EC01811520E5920708F03FC08115D5
:1024200040E4940708F0D2C0883E910500F5803E54
:10243000910508F002C1883A910570F4853A91053A
:1024400008F0A6C08130910509F49FC008F4F2C0DD
:10245000049708F0F2C0EEC08F3B910508F4A1C0CC
:10246000803C910508F4E6C0805C9109A5C0811507
:1024700050E2950760F4C11581E0D80708F0DDC08F
:10248000C03FD10508F4D6C0CE019065D7C08115F4
:1024900020E3920708F093C09F708EC0811545E538
:1024A000940708F046C0811554E5950708F0A6C0CA
:1024B000C11582E5D80718F5C11521E5D20708F046
:1024C00088C0CE01F4E096958795FA95E1F7282F1C
:1024D00023703C2F337081E090E002C0880F991F79
:1024E0003A95E2F79C68922B2C2F2F702695269513
:1024F00040E2249F90011124822B932B9FC09E01C8
:10250000237033279C2F96959695C115D34508F0D7
:1025100065C041E050E002C0440F551F2A95E2F724
:1025200080E2989F90011124CA01822B932B9C6812
:1025300085C0811559E5950798F4C11588E5D80738
:1025400008F061C0C11526E5D20708F073C08C2FD2
:102550000E94BA138F7190E0982F882790626EC006
:1025600081154AE5940708F453C0905681159042AE
:1025700008F060C08D2F8F710E94BA139E0133271F
:1025800030628F71A901582B53C081E090E056C092
:10259000855AC82FD0E0C457DE4F888190E0906400
:1025A0004DC0885AC82FD0E0CC0FDD1FC25ADE4F75
:1025B00088819981946442C00E94FD113FC099278F
:1025C000D3FF02C0986C3AC0906C38C09F70906A7C
:1025D00035C09C2F8827816F906A30C041E050E061
:1025E00002C0440F551F2A95E2F780E2989F9001A0
:1025F0001124CA01822B932B9A6820C0982F882718
:10260000846F906A1BC09C2F8827806F906A16C0C9
:102610008F700E94BA139E0194E0369527959A9583
:10262000E1F72F7030E0322F22273069A901482BC3
:10263000CA0104C080E090E001C0CE01DF91CF91DB
:1026400008950E9408240E94051208958238910579
:1026500069F1B0F48133910509F46DC048F4893211
:10266000910509F463C08A32910509F469C008959F
:102670008533910509F455C089339105B9F0089562
:10268000833E910569F138F4803E9105B1F0823EB8
:10269000910509F10895863E9105A9F1873E9105BE
:1026A000B9F1843E910509F064C023C02091000374
:1026B00020FD4FC021FD4DC008958091000380FD95
:1026C00044C08091010380FF44C08091000384FDD9
:1026D00042C083EE4DC08091000382FF38C0F5CF29
:1026E0008091000382FD33C08091010380FD31C0E1
:1026F000ECCF8091010381FF32C08091000384FD03
:102700002AC087EE35C08091000383FF26C0F5CF35
:102710008091000383FD21C08091010381FD1FC0D2
:10272000ECCF8091000385FD1CC01DC0809100038B
:1027300085FD19C016C08091000386FD16C017C024
:102740008091000386FD13C010C089E311C082EEA2
:102750000FC080EE0DC080E00BC086EE09C084EE95
:1027600007C089E205C085E303C08AE201C081E3B6
:1027700090E008959091000392FF0DC0282F2871DA
:10278000283019F4877F846006C0282F24712430F4
:1027900011F48B7F886093FF0DC0282F287128319A
:1027A00019F4877E846106C0282F2471243111F426
:1027B0008B7E88612091010320FF0DC0382F387176
:1027C000383019F4877F816006C0382F317131307D
:1027D00011F48E7F886021FF0DC0282F28712831C9
:1027E00019F4877E816106C0282F2171213111F4EF
:1027F0008E7E886194FD877E089580E008950C9414
:102800006B100E94F9148FE39CE90197F1F700C067
:1028100000000E94F91480E00E94311480FF04C07F
:102820000E94FF130C94312708950C9401140E9408
:102830007110811102C00E9418110E947C108093B7
:102840001F020E94841090930103809300030E9452
:1028500015140E9480100E94CC0A8091CA010C9429
:10286000DD0AE82FF0E0E95FFC4F808108950895CC
:1028700080EA8A95F1F7089500C008950C94381401
:1028800008950C9440140C9441140C9440140C942E
:102890004514F894E82FE295EF70F0E031A1282F6D
:1028A0002F7081E090E001C0880F2A95EAF7982FF9
:1028B0009095932391A392A1892B82A37894089554
:1028C0000F931F93CF93DF93C3E9D1E089918F3F9B
:1028D00011F00E94491481E0C839D807B9F7CFE850
:1028E000D1E003E911E089918F3F11F00E94491472
:1028F0000C171D07C1F7DF91CF911F910F9108951C
:10290000CF92DF92EF92FF920F931F93CF93DF93BB
:102910008C01C62FD0E0CE018D569E4F7C01FC016C
:1029200090819F3F09F447C0D62EF894E92FE29595
:10293000EF70F0E081A19F7021E030E001C0220F34
:102940009A95EAF7822B81A382A12095282322A3BE
:1029500078940E943C14EFE8F1E043E951E031E063
:10296000C12C21912F3F89F0A22FA295AF70B0E02A
:1029700090968C9190E02F7002C0959587952A953E
:10298000E2F780FD02C0832F01C080E0C82A330F28
:102990004E175F0731F7F70180818F3F11F00E94DA
:1029A000491461E0C11001C060E08D2D0E943E1409
:1029B000C00FD11FC882DF91CF911F910F91FF905F
:1029C000EF90DF90CF9008950E94601485E0E7E0DB
:1029D000F3E0DF01982F1D929A95E9F7E2E0F3E02A
:1029E000DF011D928A95E9F785E00E9440150C945D
:1029F0006705FF920F931F93CF93DF9300D000D012
:102A00001F92CDB7DEB78E010F5F1F4F85E0F80133
:102A100011928A95E9F7F12C6F2DC8010E9480145C
:102A2000F394F5E0FF12F8CF45E050E0B80182E002
:102A300093E00E94582BFF24F394009709F4F12CA3
:102A4000892B41F085E0F801A2E0B3E001900D92FE
:102A50008A95E1F72F2D45E067E073E082E093E08F
:102A60000E9441150E946F058F2D0F900F900F90BF
:102A70000F900F90DF91CF911F910F91FF900895CC
:102A80000895FF920F931F93CF93DF938C01F62E3F
:102A9000D72FC42F222349F081E0809322020E9485
:102AA000E4269093210280932002809122028823C1
:102AB000C1F080912002909121020E94FC2605978E
:102AC00080F0EF2DFD2FD8014C2F50E0CD01801B61
:102AD000910B841795071CF48D918193F7CF109279
:102AE0002202DF91CF911F910F91FF9008950E94D4
:102AF00056270E944F110C9467270E946B260E9454
:102B000046270E9443110E9477150E9475270E9454
:102B10004B11FBCF8091290280FF0BC0609109010E
:102B200085E0689FB0011124759567957595679547
:102B30002BC081FF09C06091090185E0689FB00149
:102B400011247595679520C082FF07C06091090127
:102B500085E0689FB001112417C090912802992345
:102B6000D1F060910801961788F72091090185E05E
:102B7000289F90011124929FA001939F500D112432
:102B800070E0CA010E94D72A6038710540F46115CF
:102B9000710519F406C065E070E0862F08958FE78F
:102BA000089581E008958091290280FF08C0609116
:102BB000050170E0759567957595679521C081FF52
:102BC00006C06091050170E07595679519C082FF98
:102BD00004C06091050170E010C090912702992314
:102BE00099F0609104019617A0F780910501899FE3
:102BF000C001112470E00E94D72A6038710540F4AA
:102C00006115710519F406C061E070E0862F089522
:102C10008FE7089581E00895803F21F40E948A158E
:102C2000819504C0813F29F40E948A1580932D026A
:102C30000895823F21F40E948A15819504C0833F44
:102C400029F40E948A1580932C020895893F19F473
:102C50000E94D31505C08A3F31F40E94D315819597
:102C600080932E0208958B3F21F40E94D315819505
:102C700004C08C3F29F40E94D31580932F0208953D
:102C80009CE0980F953078F421E030E0A90102C073
:102C9000440F551F9A95E2F7CA0190912B02892B98
:102CA00080932B0208958D3F21F480912902816049
:102CB0000BC08E3F21F480912902826005C08F3FB6
:102CC00029F4809129028460809329020895803F2D
:102CD00039F490912D0297FF35C010922D0259C002
:102CE000813F29F490912D021916BCF32BC09091CD
:102CF0002C02823F29F497FF25C010922C0249C074
:102D0000833F19F41916CCF31DC090912E02893F10
:102D100029F41916BCF410922E023BC08A3F19F414
:102D200097FF10C0F8CF8B3F39F490912F0297FF97
:102D300009C010922F022DC08C3F21F490912F02D8
:102D40001916BCF39CE0980F953080F421E030E038
:102D5000A90102C0440F551F9A95E2F7CA01809558
:102D600090912B02892380932B0213C08D3F21F475
:102D7000809129028E7F0BC08E3F21F48091290221
:102D80008D7F05C08F3F29F4809129028B7F80932E
:102D9000290280912C02811106C080912D0281119F
:102DA00002C01092280280912E02811106C08091EB
:102DB0002F02811102C01092270208950E94E4267A
:102DC00020912C02211104C020912D02222321F0F8
:102DD000909326028093250220912E02211104C097
:102DE00020912F02222321F090932402809323022A
:102DF0008AE292E00C94E425EF92FF920F931F93E6
:102E0000CF93DF9300D000D000D0CDB7DEB786E0FF
:102E1000EAE2F2E0DE01119601900D928A95E1F767
:102E2000E0902C02F0902D0200912E0210912F02C2
:102E300010922C0210922D0210922E0210922F024C
:102E4000E11003C0FF2009F45DC08091250290913C
:102E500026020E94FC26AC0190912802992339F0A9
:102E600020910A0130E02417350758F04BC020911B
:102E70000B018AE0289F900111242417350718F0D0
:102E800041C09F3F19F09F5F90932802EE2061F0B0
:102E90000E948A151E1414F09FEF01C091E0989FC4
:102EA000902D112490932C02FF2061F00E948A152E
:102EB0001F1414F09FEF01C091E0989F902D1124F2
:102EC00090932D0230912C023323E1F020912D02BA
:102ED0002223C1F045EB3403C0011124992319F0DA
:102EE00090932C0203C081E080932C0235EB2303E6
:102EF000C0011124992319F090932D0203C081E0A1
:102F000080932D02011103C0112309F45DC080914B
:102F10002302909124020E94FC26AC01909127028A
:102F2000992339F02091060130E02417350758F035
:102F30004BC0209107018AE0289F9001112424179B
:102F4000350718F041C09F3F19F09F5F909327020B
:102F5000002361F00E94D315101614F09FEF01C0FA
:102F600091E0989F902D112490932E02112361F0EF
:102F70000E94D315111614F09FEF01C091E0989FA5
:102F8000902D112490932F0230912E023323E1F0E3
:102F900020912F022223C1F045EB3403C0011124FC
:102FA000992319F090932E0203C081E080932E02A2
:102FB00035EB2303C0011124992319F090932F02BC
:102FC00003C081E080932F0280912C0281110BC0FD
:102FD00080912D02811107C080912E02811103C0C2
:102FE00080912F0281110E94DE16EB82FC820D83FC
:102FF0001E8386E0FE013196AAE2B2E001900D92B6
:103000008A95E1F726960FB6F894DEBF0FBECDBFC6
:10301000DF91CF911F910F91FF90EF900895EAE219
:10302000F2E086E0DF011D928A95E9F7109228020E
:1030300010922702109229020895EF92FF920F93A7
:103040001F93CF93DF938B01682F11110AC0442384
:1030500029F0E82FF0E0EF5CFC4F6491762F862F8B
:1030600075C0212F30E0E82FF0E0442321F0EF5C21
:10307000FC4FE491F0E046E0049FC0011124CFEF43
:10308000D0E0BE010E94C32A4BEA4603C001479F1D
:10309000900D1124800F911D800F911D982F990F75
:1030A000890FAE01421B530B4E9FD0014F9FB00DB5
:1030B0005E9FB00D11249B2F189FA0011124452F56
:1030C00055278E01041B150B0E9FA0010F9F500D5D
:1030D0001E9F500D11247E01E81AF108E29E800126
:1030E000E39E100DF29E100D1124212F3327C21BD9
:1030F000D30BCE9F9001CF9F300DDE9F300D11245A
:1031000062307105A9F048F46115710569F061300C
:103110007105C9F48B2F752F0DC06430710581F0D6
:1031200058F06630710579F47E2F8B2F932F0DC0E8
:10313000832F7B2F9E2F09C08E2F7B2F952F05C0AD
:103140008E2F732F02C07E2F852F692FDF91CF9195
:103150001F910F91FF90EF90089541E00E941D187C
:10316000089508950E94AD180895CF93DF93762FA8
:10317000E901682F842F0E94B218798368838A83BB
:10318000DF91CF91089580910C03282F269530E090
:103190002115310519F48170826005C02532310591
:1031A00024F08170886480930C03089588E090E097
:1031B0000C946D2BCF92DF92EF92FF926B017C010A
:1031C0000E94C318B701A60188E090E0FF90EF903D
:1031D000DF90CF900C948B2B60910C0370910D03BA
:1031E00080910E0390910F030C94DA18ECE0F3E059
:1031F00083E0808311828FEF8283838314826081D6
:103200007181828193810C94DA1880910C0380FF84
:1032100002C08695089580E0089590911003933040
:1032200018F49F5F90931003882351F060910C0372
:1032300070910D0380910E0390910F030C94DA1896
:10324000089581E00C940D1990911003992319F0C1
:10325000915090931003882351F060910C0370916A
:103260000D0380910E0390910F030C94DA180895CA
:1032700081E00C9424198091100308958093100329
:10328000662351F060910C0370910D0380910E0341
:1032900090910F030C94DA18089560E00C943E1995
:1032A00080910D03089580910E03089580910F037E
:1032B000089570E00C94561F6091100180910C03EA
:1032C00080FF0AC080910F0123E0829FC00111247A
:1032D0008F5E9C4F0C9459198091110190911201AD
:1032E000891780F7E82FF0E09F01220F331FE20FCC
:1032F000F31FEF5EFC4F1182108212828F5FF0CFBE
:1033000090910C0390FF16C0909111012091120131
:10331000921770F4E92FF0E0DF01AA0FBB1FEA0F4C
:10332000FB1FEF5EFC4F8183608342839F5FF0CF82
:103330000C945C190895CF93DF9300D01F92CDB702
:10334000DEB790910C0390FF0AC09E012F5F3F4FA4
:103350000E94B5184B8169818A810E9480190F9063
:103360000F900F90DF91CF910895CF93DF93EC01F1
:10337000EC81F0E0E45DFD4F4491ECE0F3E062812C
:1033800081810E949B198C818F5F8C83DF91CF910B
:103390000895CF93DF93EC01ECE0F3E04381628189
:1033A0008C810E949B198C818F5F8C83DF91CF91E0
:1033B00008950F931F93CF93DF9300D01F92CDB743
:1033C000DEB78C018091300281110AC09E012F5F0F
:1033D0003F4F4FEF6FEF0E94B5188A818093300204
:1033E000F8018481813051F028F0823061F44091FD
:1033F00030020AC08091300240E007C06091300284
:1034000040E080E003C040E080E060E00E9480197E
:10341000F801848190E0019663E070E00E94D72A71
:1034200084830F900F900F90DF91CF911F910F9198
:103430000895AF92BF92CF92DF92EF92FF920F93D7
:103440001F93CF93DF9300D01F92CDB7DEB7182F15
:10345000F62E042FE22E90910C0390FF6DC0E92F01
:10346000E695AE2FB0E0A856BE4F8C9180933A02FD
:103470009E7F923061F49E012F5F3F4F812F0E940B
:10348000B5184B8169818A810E94801943C08230BE
:1034900019F400910F033EC0863019F410910D030A
:1034A00039C08930D9F38931A9F5E9518E2F81705E
:1034B000D82EE695F0E0E45DFC4FA590B490C12CC9
:1034C000BB2460911301C61618F52C2D30E0A29E86
:1034D000C001A39E900DB29E900D112470E00E9439
:1034E000C32A812FD11002C0860F01C0861B909184
:1034F0001101290F311DA901440F551F240F351F3C
:103500002F5E3C4F402F6F2D0E94B518C394D9CF2A
:103510000E945C1910930D03F0920E0300930F03A9
:10352000EE2051F060910C0370910D0380910E0319
:1035300090910F030E94DA180F900F900F90DF9177
:10354000CF911F910F91FF90EF90DF90CF90BF90A0
:10355000AF900895ECE0F3E09181282F43816281E0
:1035600088E0890F0C94191A81E00C94AA1AECE0F7
:10357000F3E09181282F4381628188EF890F0C94B9
:10358000191A81E00C94B71AECE0F3E0628128E0AC
:10359000620F08F46FEF282F438181810C94191A70
:1035A00081E00C94C41AECE0F3E0628128E0621B35
:1035B00008F460E0282F438181810C94191A81E07E
:1035C0000C94D31AECE0F3E0438128E0420F08F4B6
:1035D0004FEF282F628181810C94191A81E00C949D
:1035E000E21AECE0F3E0438128E0421B08F440E0FB
:1035F000282F628181810C94191A81E00C94F11AB0
:1036000020E00C94191AFF920F931F93CF93DF932E
:10361000EC01F12C0FEF10E060911301F616F0F4BD
:10362000809111012F2D30E0280F311DC901880F25
:10363000991F280F391F2F5E3C4F70E0C8010E9470
:10364000D72A962F8C8140910F0360910E03F99E2B
:10365000800D11240E94B518F394DECF0E945C19EE
:103660009A818C8190FF02C08F5F01C081508C8352
:10367000DF91CF911F910F91FF900895BF92CF924C
:10368000DF92EF92FF920F931F93CF93DF93FC0192
:10369000828180FF02C00FEF01C001E010E0809145
:1036A0001301181708F040C080911101C12ED12CD0
:1036B000E601C80FD11DCE01880F991FC80FD91F71
:1036C000CF5EDC4F198218821A8234E0E32EF12C8F
:1036D000B12C809132028B0D813114F08F7005C0B6
:1036E00087FF03C090911301890F082E000C990BDE
:1036F000C816D90691F480910F038E9DA0018F9D6D
:10370000500D112455954795559547959E0160910B
:103710000E0380910D030E94B518B00EF1E0EF1A70
:10372000F108B9F61F5FBBCF0E945C19809132028D
:10373000013031F4811102C080911301815007C022
:1037400090E001966091130170E00E94D72A809367
:103750003202DF91CF911F910F91FF90EF90DF9098
:10376000CF90BF900895CF93809111019091120155
:10377000891770F4E82FF0E09F01220F331FE20F4A
:10378000F31FEF5EFC4F1182108212828F5FF0CF29
:10379000C0E060911301C617C0F5EC2FF0E070E0B7
:1037A000CF010E94D72A20911101820F209131026E
:1037B000022E000C330B90E0E217F307CCF02091BF
:1037C0000E01022E000C330B2E173F078CF09C01CC
:1037D000220F331F820F931F9C012F5E3C4F40919D
:1037E0000F0360910E0380910D030E94B5180BC06A
:1037F000FC01EE0FFF1F8E0F9F1FFC01EF5EFC4FC1
:10380000118210821282CF5FC4CF0E945C19209176
:103810000D0180913102820F8093310290910E014F
:10382000920F90930E0119165CF4082E000C990B60
:103830004091130150E041505109841795071CF045
:10384000219520930D01CF9108958F929F92AF9271
:10385000BF92CF92DF92EF92FF920F931F93CF937D
:10386000DF938C01FC014481C42FD0E09E01DE0176
:103870000E94222B9B01AC010E94382B6B017C0122
:10388000E0E2F0E0EC1BFD0BA5E5B0E09B01AC0134
:103890000E94382B4B015C019F01DF010E941A2B13
:1038A0009B01AC010E94432B9B01AC012C0D3D1DE3
:1038B0004E1D5F1DC501B4010E94EB2AC22FD22FFD
:1038C0002A3228F4F3E02F9F900111240DC025E542
:1038D00030E02C1B3109C901880F991F280F391FAF
:1038E00037FF02C02F5F3F4F35952795C22FC095F8
:1038F000F12C85E5E82EED1A80911301F816C8F435
:10390000F1FC02C08E2D01C08D2F909111012F2D41
:1039100030E0290F311DA901440F551F240F351F19
:103920002F5E3C4F4C2F60910E030E94B518F3940C
:10393000E3CF0E945C19F8018481811102C091E0FB
:1039400003C0803219F49FEF90930C0190910C0109
:10395000890FF8018483DF91CF911F910F91FF9020
:10396000EF90DF90CF90BF90AF909F908F90089591
:103970000F931F93CF93DF93EC0100E010E0809151
:103980001301282F30E00217130724F5909111013D
:103990009801290F311DA901440F551F240F351F10
:1039A0002F5E3C4F869590E04C81081719071CF458
:1039B000442331F002C0411103C040910F0301C004
:1039C00040E060910E0380910D030E94B5180F5FD7
:1039D0001F4FD5CF0E945C198C8190E001968170B9
:1039E00099278C83DF91CF911F910F910895ECE07F
:1039F000F3E080818E7F80836081718182819381F9
:103A00000E94DA1810923B022FEF80E792E02150DB
:103A100080409040E1F700C000000C945C19ECE09D
:103A2000F3E080818E7F808310923B022FEF80E74E
:103A300092E0215080409040E1F700C000000C94DB
:103A40005C1960910C03669570E04BE050E084E1F6
:103A500091E00E944B2B892B19F481E080933B026B
:103A60000E94E4269093340280933302089590914B
:103A70000C0390FF35C09170811102C0926006C0A6
:103A8000853210F0986402C0880F982B90930C0335
:103A9000662351F060910C0370910D0380910E0329
:103AA00090910F030E94DA1860910C03669570E004
:103AB0004BE050E084E191E00E944B2B892B19F000
:103AC00010923B0202C00E94211D81E080933602C9
:103AD00040910F0360910E0380910D030C94001B25
:103AE0000895682F90910C03969581E0890F853297
:103AF00008F081E00C94371D81E00C94711D682F53
:103B000090910C0396958FEF890F09F484E20C9441
:103B1000371D81E00C947F1D61E00C94371DECE0B3
:103B2000F3E080818160808386950C948C1D809168
:103B30000C0380FD0C94F71C0C948F1D60E00C941A
:103B4000371D8091390281112EC00E9471108111A0
:103B500004C00E9418110E94F6180E94D6186093A3
:103B60000C0370930D0380930E0390930F036E7FED
:103B700061F40E94F6180E94D61860930C037093AB
:103B80000D0380930E0390930F030E94C3181092AD
:103B90003B0280910C0380FF03C086950E949E1D0E
:103BA00081E0809339020895ECE0F3E08081816048
:103BB000808386950C949E1D0F931F93CF93DF9364
:103BC00080913B02882309F485C080913A02E091FC
:103BD0000C03E695E81BE0933502823049F4F0E0EF
:103BE000E85DFD4FE491CE2FD0E005EB19E149C02F
:103BF000863049F4F0E0EB5DFD4FE491CE2FD0E04C
:103C000009EC19E13EC0893051F4E695F0E0EE5D33
:103C1000FD4FE491CE2FD0E003E01BE132C08F30A6
:103C200051F4E695F0E0E15EFD4FE491CE2FD0E057
:103C30000EE31BE126C0853149F4F0E0E45EFD4F60
:103C4000E491CE2FD0E003EB1BE11BC0883181F063
:103C5000833239F4EAE1F2E0C591D49109ED19E13A
:103C600010C0843251F4C4EFD1E008EB1CE109C06C
:103C7000C8E2D0E005E21CE104C0C0EDD7E001EBF2
:103C800018E180913602882361F0109236020E947A
:103C9000E4269093340280933302109238021092FB
:103CA00037020E94E426E0913302F09134028E1B29
:103CB0009F0B8F3F9F4770F4EC0FFD1FF093340272
:103CC000E093330283E392E0F801DF91CF911F91FB
:103CD0000F910994DF91CF911F910F91089588233F
:103CE00011F0FA0101C0FB010994CF93DF93C82FB3
:103CF000D62F0E9405198C1740F00E9405198D17C8
:103D000020F4DF91CF910C947C1D8C2FDF91CF910B
:103D10000C948C1D1F93CF93DF93FB011281112311
:103D200009F4BCC0EC010E94850F8272CC3CFCE51A
:103D3000DF0709F497C008F043C0C63CECE5DE0796
:103D400009F47CC0D8F4C33C9CE5D90709F46AC0E7
:103D500038F4C23CDC4509F0A4C00E94971DA0C005
:103D6000C43C9CE5D90709F462C0C53CDC4509F0B8
:103D700098C041EC5AE164EB7AE15DC0C93CFCE5D6
:103D8000DF0709F465C070F4C73CECE5DE0709F411
:103D90005AC0C83CDC4509F084C040ED5AE16FEDE3
:103DA0007AE149C0CA3C9CE5D90709F456C0CB3C2E
:103DB000DC4509F076C048E359E161E279E13BC0B6
:103DC000C13DFCE5DF0709F45AC098F4CE3C9CE500
:103DD000D90709F44EC008F44AC0CF3CFCE5DF0720
:103DE00009F44AC0C03DDC4509F05BC06EE089E0E3
:103DF0004EC0C43D9CE5D90709F447C050F4C23D0C
:103E0000FCE5DF07F9F1C33DDC4509F04AC088E174
:103E100042C0C53D9CE5D907E9F1CD35DD4509F442
:103E20003FC03FC049E85DE16CE77DE104C04CE77D
:103E30005DE169E87DE10E946F1E32C044EB5AE10A
:103E400061EC7AE1F8CF4FED5AE160ED7AE1F3CF22
:103E50004DEF5AE16EEE7AE1EECF4EEE5AE16DEFA4
:103E60007AE1E9CF41E259E168E379E1E4CF81E029
:103E700012C065E082E00BC068E086E008C064E143
:103E80008FE005C067E185E102C062E289E10E943E
:103E9000751E06C083E20E948C1D02C011E001C0A5
:103EA00010E0812FDF91CF911F910895549A2BB18B
:103EB0002F7E3BB130614FB7F894FC01CB01880FE6
:103EC000991F680F791F6E0F7F1FE617F70789F09C
:103ED000819198E03BB9000000C087FF2BB9880FA3
:103EE000000000C000C000C02BB900C09A9591F737
:103EF000ECCF4FBF8FE594E00197F1F700C00000D1
:103F0000089583E290E00E94652B823281F484E27E
:103F100090E00E94652B833051F485E290E00E948E
:103F2000652B91E0863209F090E0892F01C080E096
:103F300081700895CF93C82F811102C06FEF01C027
:103F400062E283E290E00E94792BC11102C06FEF20
:103F500001C063E084E290E00E94792BC11102C0AD
:103F60006FEF01C066E285E290E0CF910C94792B6F
:103F7000089586E290E00E94652B682F70E080E053
:103F800090E0089586E290E00C94792B80E00E9406
:103F90009A1F60E070E0CB010E94C21F0E9485233F
:103FA0000E94622481E00C949A1F0E94B81F0E9414
:103FB000811F811102C00C94C61F0895CF93FB018D
:103FC000C281CC23E9F09C0122513F4520313105CB
:103FD00020F482510E9472240CC08031FFE59F07BB
:103FE00051F481E00E94F00A43E062E081E00E9427
:103FF0005E05C0E018C081319F45A9F482E0F2CF90
:104000008031EFE59E0711F481E004C081319F45C6
:1040100049F482E00E94FB0A43E062E081E00E94F2
:104020005E0501C0C1E08C2FCF9108952FEFFC01F8
:1040300020830895CF93DF93EC018881813889F044
:1040400028F48038A1F40E94561910C0823861F01B
:10405000833869F40E94501989830E9453198A8316
:1040600006C00E94051902C00E943B198983DF9196
:10407000CF910895CF93DF93EC0188818138B1F01F
:1040800058F4803851F5D9810E945319C82F0E94E5
:1040900050194D2F6C2F1DC08238B1F08338E9F4D0
:1040A0000E945619482F6A81898113C089810E9414
:1040B0009E1D8981811104C0DF91CF910C940F1D49
:1040C000DF91CF910C94D41D8981DF91CF910C9415
:1040D0004D19DF91CF910C94001BDF91CF91089582
:1040E000EF92FF920F931F93CF93DF93EC01062F74
:1040F0000196E8814E2F50E0FA013197E331F10546
:1041000008F09AC0EE5AFF4F0C940D2B198289E0EB
:1041100056C08981823039F0833061F0813029F5D1
:104120000E94F02602C00E94B91F9A838B837C8371
:104130006D8384C07E0182E0E80EF11C10E0812FC7
:104140000E943114F70181937F011F5F1530B9F789
:1041500075C08981823049F46A817B818C819D811F
:104160000E94132B0E94C21F69C0602FCE010E94C3
:10417000162064C04B816A8189810E9457239C83E9
:104180008D835CC02C813D813227232732274B81D0
:104190006A8189810E94702351C00E9485234EC08C
:1041A0000E943A204BC00E941A2048C00E94EC187E
:1041B00045C00E94152424C00E94172499838A8335
:1041C0003DC06B8170E089819A81AE014C5F5F4F89
:1041D0009827892798270E941A2430C06B8170E0A5
:1041E00089819A81AE014C5F5F4F98278927982774
:1041F0000E943F2423C00E94622420C00E944423C6
:1042000089831CC06B8170E089819A81AE014C5F0B
:104210005F4F9827892798270E94C4230FC06B817E
:1042200070E089819A81AE014C5F5F4F98278927A2
:1042300098270E94E72302C08FEF8883602FCE016A
:10424000DF91CF911F910F91FF90EF900C94662812
:10425000CF93DF9397FF0DC0FB012281222349F00A
:10426000EC010E946621CE019F770E94D9210E9415
:10427000B32181E0DF91CF91089590914203923074
:1042800069F48A3040F490E009966AE070E00E9498
:10429000D72A875A01C086500C94D9070C94CD06B2
:1042A0008CE090E00E94652B90E0A0E0B0E080936D
:1042B000420390934303A0934403B09345030895AE
:1042C000609142038CE090E00C94792B0E94D625FB
:1042D00086958170809347030E94D62581708093D4
:1042E000410380914203813039F480914703882350
:1042F00019F089E30E94D9070E94850F8093460335
:104300000E94980F80914203813071F048F0823012
:1043100081F0843009F586EE0E94D90788E11AC041
:1043200082EE0E94380718C088E193E00E94E404FE
:1043300013C080914103811103C083E50E94D90716
:1043400082EE0E9438078FE39CE90197F1F700C0E5
:10435000000087E50E94D9078FE39CE90197F1F7F8
:1043600000C00000089580914203813059F030F080
:10437000823089F08430C9F488E215C082EE0E9450
:104380008E0713C08CE20E94D907809147038823CF
:1043900061F089E308C082EE0E948E07809141039C
:1043A000811103C083E50E94D907809146030C94D4
:1043B000950F0F931F93CF93DF938C01CCE0D0E048
:1043C000C8010C2E02C0969587950A94E2F78F706B
:1043D0000E943D212497CC3F8FEFD80789F7DF91CA
:1043E000CF911F910F9108950F931F93CF93DF9358
:1043F000EC018B01FB018281882361F00E94850F13
:10440000CE01815E9C458530910520F48093420366
:104410000E946021B801CE01DF91CF911F910F91D1
:104420000C942821CF93DF93EC01FB018281882338
:1044300009F426C1C330FDE5DF0760F4CA3F9CE5FF
:10444000D90768F49E0122503C452431310508F01B
:1044500018C105C0C136EDE5DE0709F012C10E94A2
:1044600084109093010380930003C031FCE5DF07C3
:1044700009F4CAC008F041C0C8309CE5D90709F466
:10448000A4C0F0F4C430FCE5DF0709F48CC068F484
:10449000C2309CE5D90709F482C0C330DC4509F07D
:1044A000E5C0809100038260DFC0C630FCE5DF0715
:1044B00009F483C008F085C0809100038860D4C0EF
:1044C000CC309CE5D90709F490C068F4CA30FCE50B
:1044D000DF0709F47EC008F084C00E94710A809151
:1044E00000038068C1C0CE309CE5D90709F481C0C3
:1044F00008F086C08091000394C0CC3FFCE5DF0744
:1045000009F47BC038F5C4319CE5D90709F49AC099
:1045100058F4C231FCE5DF0709F47AC008F07EC028
:10452000809100038F7BA0C0CA3F9CE5D907F1F1C1
:1045300008F03FC0C531DC4509F098C08091000308
:1045400082FB222720F991E0922790FB82F990FBD1
:1045500083F98AC0C1158DE5D80709F467C050F406
:1045600080910103CE3FECE5DE07C1F108F05BC0AE
:104570008D7F65C0C2308DE5D80709F471C008F49D
:104580006DC0C136DD4509F071C08091000384FB28
:10459000222720F991E0922790FB84F965C0809151
:1045A0000003816061C08091000316C08091010307
:1045B00016C080910103826042C080910003806137
:1045C00053C08091000380624FC0809100038064DB
:1045D0004BC0809100038860846046C08260816027
:1045E0002EC0809100038E7F3FC0809100038D7F9D
:1045F0003BC080910003877F37C08091010314C0C6
:10460000809100038F7E30C0809100038F7D2CC08D
:104610000E94710A809100038F7726C08091000369
:10462000877F8B7F21C08D7F8E7F09C080910103A2
:10463000982F909591708E7F892B90FB81F98093B4
:10464000010314C00E94710A8091000387FB222796
:1046500020F991E0922790FB87F906C081E001C024
:1046600080E00E941A1102C0809300038091000331
:10467000909101030E9495100E94710A80E001C090
:1046800081E0DF91CF91089584E0089550E0440FD8
:10469000551F28E0629F400D511D11249A0168E2C8
:1046A000869F200D311D1124C901879608950F930F
:1046B0001F93CF93DF930E9446238C010E94652BAA
:1046C000C82FD0E0DC2FCC27C80101960E94652BB3
:1046D0009E01282BC901DF91CF911F910F91089561
:1046E0000F931F93CF93DF93122F032F0E94462324
:1046F000EC01602F0E94792B612FCE010196DF9192
:10470000CF911F910F910C94792BAF92BF92CF92C2
:10471000DF92EF92FF920F931F93CF93DF93A12C21
:10472000E12CF12CB12C00E010E0C0E0D0E06701FA
:10473000C00ED11EF601EC0FFD1FEE0FFF1FE6535A
:10474000FF4F259134914C2F6B2D8A2D0E947023A1
:104750002196C430D10571F70C5F1F4FB39485E0EB
:10476000B812E3CF84E1E80EF11CA39484E0A81210
:10477000D9CFDF91CF911F910F91FF90EF90DF90F4
:10478000CF90BF90AF900895EF92FF920F931F9339
:10479000CF93DF93EA017A01E60EF71E8C01C80180
:1047A0008796CE15DF0561F0003A110520F40E94CE
:1047B000652B888301C0188221960F5F1F4FEFCFB2
:1047C000DF91CF911F910F91FF90EF900895EF929D
:1047D000FF920F931F93CF93DF93EA017A01E60EC6
:1047E000F71E8C01C8018796CE15DF0551F0003AFF
:1047F000110518F468810E94792B21960F5F1F4FD5
:10480000F1CFDF91CF911F910F91FF90EF9008951D
:10481000462F843038F4753028F4643018F4672F4C
:104820000C94572380E090E0089580E1089589E397
:1048300093E00895EF92FF920F931F93CF93DF932E
:10484000EA017A01E60EF71E8C01C80189539F4FD9
:10485000CE15DF0569F0093323E0120720F40E942A
:10486000652B888301C0188221960F5F1F4FEDCF03
:10487000DF91CF911F910F91FF90EF900895EF92EC
:10488000FF920F931F93CF93DF93EA017A01E60E15
:10489000F71E8C01C80189539F4FCE15DF0559F0D3
:1048A000093323E0120718F468810E94792B2196BE
:1048B0000F5F1F4FEFCFDF91CF911F910F91FF90AF
:1048C000EF900895CF93DF93C7ECD0E060E0CE0186
:1048D0000E94792B2196C11584E0D807B9F7DF91A2
:1048E000CF910895DF92EF92FF920F931F93CF9392
:1048F000DF9300D000D0CDB7DEB7F82E8FE08F1554
:10490000E8F18FEF93E00E94652B811137C007EC2F
:1049100010E0FF2069F0011584E0180779F1C80163
:104920000E94652B811101C0FA940F5F1F4FF1CFD8
:1049300019821A821B821C82DD24D39478018FEFA6
:10494000E81AF80AC8010E94652B89831A82882315
:10495000A9F09FEF980F933058F48A83D9820E5FA5
:104960001F4FC7010E94652B8B83882339F0780184
:10497000CE0101960E94CA068701E0CF0F900F90EA
:104980000F900F90DF91CF911F910F91FF90EF90BB
:10499000DF900895CF93DF9386319C4541F5EB017D
:1049A0000E94850F982F8A81209102013091030186
:1049B000882379F09A7A81E009F480E080933C02C0
:1049C000911102C069E201C065E3C9010E9460263D
:1049D0000AC080913C02811102C069E201C065E316
:1049E000C9010E9462260E94DA0F80E001C081E0C6
:1049F000DF91CF9108950F931F93CF93DF93C42F2F
:104A0000D22FFC0182818823C9F040933F020E948B
:104A1000E42690933E0280933D0280E28C0F883022
:104A200008F057C0C77081E001C0880FCA95EAF747
:104A3000DF91CF911F910F910C94E20780913F027B
:104A4000481330C080913D0290913E020E94FC26A6
:104A5000883C910538F510E21D0FCD17B9F080E2C2
:104A60008C0F883040F4C77081E001C0880FCA9570
:104A7000EAF70E94E907183028F581E09D2F97702A
:104A800001C0880F9A95EAF70E94E207802F0E94E2
:104A9000D9071830F0F4D77081E001C0880FDA959B
:104AA000EAF70AC080E28C0F883098F4C77081E082
:104AB00001C0880FCA95EAF7DF91CF911F910F913E
:104AC0000C94E907802FDF91CF911F910F910C94E7
:104AD000D907DF91CF911F910F9108950F939C01FA
:104AE000CB01233F4CE5340731F188F4283DFCE548
:104AF0003F07D9F0293D4CE5340779F1273D3C4586
:104B0000A9F506E221EE41EE67ED7CE52BC0253FDD
:104B1000FCE53F07E1F0A8F0263F3C4539F507E208
:104B200025EE46EE66EF7CE51DC007E225EE45EE7C
:104B300068ED7CE517C006E221EE40EE63EF7CE510
:104B400011C007E225EE44EE64EF7CE50BC006E2FF
:104B500021EE42EE65EF7CE505C008E221E045EE7E
:104B600069ED7CE50E94FB2480E008C0FC018281A5
:104B7000882319F010923F0201C081E00F9108953F
:104B80009093BF018093BE01089590934502809356
:104B900044020895E0914402F0914502309721F0DB
:104BA0000190F081E02D099480E008950E94CA25CB
:104BB0000895E0914402F0914502309721F002807F
:104BC000F381E02D09940895E0914402F0914502AB
:104BD000309739F022E0DC012C930480F581E02D40
:104BE0000994089520914202309143022817390711
:104BF00071F09093430280934202E0914402F0915D
:104C00004502309721F00680F781E02D0994089540
:104C100020914002309141022817390771F090939A
:104C2000410280934002E0914402F09145023097A6
:104C300021F00084F185E02D09940895FC0132965D
:104C400097E080E0915029F021912223D9F38F5FE2
:104C5000F9CF0895662349F0FC0132960896219118
:104C6000621729F0E817F907D1F780E0089581E08D
:104C700008959C01FC0132969FEF80E04191461718
:104C800089F09F3F19F4411101C0982F8F5F863042
:104C9000A9F79F3F39F0F901E90FF11D97FDFA954A
:104CA0006283089508959C012A5F3F4FFC01428171
:104CB000461301C01282019682179307B9F708952F
:104CC0000C9439260C945326029626E0FC0111928E
:104CD0002A95E9F70895089580914902882331F1D2
:104CE0000E9476051092460220E488E190E00FB61B
:104CF000F894A895809360000FBE2093600083B75E
:104D0000817F846083BF83B7816083BF78948895F7
:104D100083B78E7F83BF0FB6F894A895809160000B
:104D2000886180936000109260000FBE089508951E
:104D30000C949726CF930E9498260E94F9140E9403
:104D40009726C0E08C2F0E943114811104C0CF5FE0
:104D5000C530C1F701C081E0CF9108950E94710A6A
:104D60000C94F5051F920F920FB60F9211248F939A
:104D70009F93AF93BF9380914602811113C080919E
:104D8000480390914903A0914A03B0914B03419687
:104D9000A11DB11D8093480390934903A0934A033A
:104DA000B0934B03BF91AF919F918F910F900FBE26
:104DB0000F901F90189582E084BD93E095BD9AEF07
:104DC00097BD80936E0008952FB7F89480914803A3
:104DD00090914903A0914A03B0914B032FBF0895CE
:104DE0002FB7F894609148037091490380914A036A
:104DF00090914B032FBF08959C014FB7F894809179
:104E0000480390914903A0914A03B0914B034FBFCF
:104E1000821B930B089578941F920F920FB60F92F6
:104E200011248F939F93AF93BF93809148039091E8
:104E30004903A0914A03B0914B030196A11DB11DF6
:104E40008093480390934903A0934A03B0934B0384
:104E5000BF91AF919F918F910F900FBE0F901F90B8
:104E6000189598E088E10FB6F894A89580936000B3
:104E70000FBE90936000A895F894D8E0CEEF28E399
:104E8000299320E0299314BEFFCF08950E94E426C1
:104E9000909348028093470290E080E80FB6F89420
:104EA00080936100909361000FBE08950E94A82A2C
:104EB000539A80E0815041F0A895EFE9FFE03197E7
:104EC000F1F700C00000F6CF5398789408950E943F
:104ED000A0280E94C5252FEF80E792E02150804056
:104EE0009040E1F700C0000008958091730388238B
:104EF00089F0109273030E94E426909348028093F5
:104F00004702809149028823D1F1109249020E9400
:104F1000AE2611C080914902811111C080914702D3
:104F2000909148020E94FC26069728F081E0809329
:104F300049020E946C2680914902882301F10E9457
:104F40006C260E949A26882391F1F8942AB15B9AE4
:104F5000822F8C608AB99BB18CE098279BB93FE780
:104F600048E391E0315040409040E1F700C000003C
:104F70009BB189278BB92AB95B98789408950E94D0
:104F8000B12980917903882329F08091570384FD0A
:104F90000E9459110E940D280E94B1298091790325
:104FA000882329F08091900384FD0C94942808951F
:104FB0008091FF020895089590914F02981307C0C1
:104FC00020914D0230914E0226173707A9F08093A9
:104FD0004F0270934E0260934D0280934A02709389
:104FE0004C0260934B028091900384FF05C063E004
:104FF0008AE492E00C94A9290895BC0184E00C9401
:10500000DC27BC0183E00C94DC272091900324FF73
:1050100003C066E00C94A9290895CF93DF93CAE0FA
:10502000D0E08091570384FF18C080917C0290915A
:105030007D029817E1F028E0829FC001112468E00A
:1050400082589D4F0E94A52980917C0290E0019694
:105050008F70992780937C020AC00E94B1298FE942
:105060009FE00197F1F700C000002197D1F6DF9192
:10507000CF910895CF93DF93EC01A0917D02B0E032
:10508000CD0101968F70992720917C02281779F025
:1050900093E0AA0FBB1F9A95E1F7A258BD4F98E085
:1050A000FE0101900D929A95E1F780937D020E9496
:1050B000B1290E940D2888E0FE01A4E7B2E001902A
:1050C0000D928A95E1F7DF91CF9108950F931F9389
:1050D000CF93DF93EC01603211F58C01005E1F4F1E
:1050E0008091630384FD03C00E94B129F9CF68E079
:1050F000CE010E94AD2928960C171D0789F78091D3
:10510000630384FD03C00E94B129F9CF60E080E011
:1051100090E0DF91CF911F910F910C94AD29DF9119
:10512000CF911F910F91089580915302803239F4ED
:1051300060E284E592E00E9470201092530208958C
:105140008FE191E00895FC01808180768032A1F5A5
:105150008181813061F484819581892B69F584E7AF
:1051600092E0909375038093740388E008958230F1
:1051700041F48EEF92E0909375038093740381E085
:1051800008958A3021F483818093FE0215C089300E
:1051900099F4828193818115924081F48481958173
:1051A000892B61F481E080935202868197819093EC
:1051B00051028093500202C080E008958FEF08955D
:1051C0002091500230915102232B71F02091520214
:1051D000213051F4FC0180818093FF021092510232
:1051E0001092500281E008958FEF0895683019F011
:1051F00010925302089520915302A22FB0E0A931DA
:10520000B105B4F7FC01AC5ABD4F089631913D93FE
:10521000E817F907D9F7285F209353020895FC0196
:1052200093819330D9F068F4913081F0923009F095
:1052300068C081E394E090937503809374038BE5D9
:105240000895913251F19232E1F15BC08CE894E023
:10525000909375038093740382E108958281813075
:10526000A1F058F0823009F04CC08EE994E09093A0
:105270007503809374038AE2089580EE94E090931E
:1052800075038093740384E008958AEC94E090930E
:1052900075038093740384E108958281813049F01D
:1052A00028F0823071F58CE794E005C083E494E047
:1052B00002C08CE594E0909375038093740389E0B9
:1052C0000895848195818130910599F050F002977D
:1052D000C1F486E095E090937503809374038BE7A7
:1052E000089581E895E0909375038093740380E4BA
:1052F000089584EE94E0909375038093740382E2A2
:10530000089580E008951F93CF93DF93162FEA014D
:10531000288124FF05C0398128E82327298302C07A
:105320002AE52883212FFC01CE010296DC01319170
:105330003D9321501216DCF3612F0E943F031C5F46
:105340001883DF91CF911F91089547E553E00C94A6
:10535000832940E953E00C94832943E653E00C94FD
:105360008329CF93DF9360917603635067FD93C0E9
:1053700080917203CCE0D0E0C81BD109C658DC4F45
:1053800080917103803120F4CE010E94F62881C003
:105390008D3209F06EC0683009F07BC083EC8093D9
:1053A0004C038AE580932C011092700388818076EB
:1053B00021F0CE010E94A32849C09A811092550382
:1053C0008981811106C01092560325E533E082E001
:1053D00038C0853019F49093770330C08630A1F43B
:1053E0008B81813041F0823031F0833021F0813285
:1053F00011F0823221F4CE010E940F2901C080E019
:1054000090E49093700322C0883089F0893019F4B9
:105410009093790313C08A3069F08B3079F48BE470
:1054200080935803809391038093640307C029E716
:1054300033E002C025E533E081E003C025E533E039
:1054400080E0309375032093740309C08F3F39F4D3
:10545000988197FD8E8190E89093700307C09F819B
:10546000911104C09E81981708F4892F80932B0115
:1054700010C08091700387FF0CC0CE010E94E0280D
:105480008F3F21F48EE180932C0103C08111109293
:105490002B011092760380912C0184FF4CC08091E7
:1054A0002B018F3F09F447C0C82F893008F0C8E0AE
:1054B0008C1B80932B0190914C0388E88927809363
:1054C0004C03CC2359F18091740390917503209182
:1054D000700326FF12C0ACE4B3E02C2FAC014C5497
:1054E0005340FA01EA0FFB1FE4911196EC931197D8
:1054F000215011962111F5CF08C0EDE4F3E0DC0155
:105500002C2F3D9131932150E1F701962FEF2C0F75
:10551000820F911D90937503809374036C2F8DE41B
:1055200093E00E943F03CC5FCC3019F08FEF809363
:105530002B01C0932C0184E199B19C7031F481500E
:10554000D9F71092770310926F03DF91CF910895EE
:10555000CF93DF93E9E6F0E0808188608083E99A69
:10556000C7E5D3E08BE48983A0E9B3E011968C937F
:105570001197E3E6F3E081838AE588838C93808347
:10558000DF91CF910895AA1BBB1B51E107C0AA1F51
:10559000BB1FA617B70710F0A61BB70B881F991FD4
:1055A0005A95A9F780959095BC01CD01089597FB78
:1055B000072E16F4009407D077FD09D00E94C32A65
:1055C00007FC05D03EF4909581959F4F0895709506
:1055D00061957F4F0895A1E21A2EAA1BBB1BFD0106
:1055E0000DC0AA1FBB1FEE1FFF1FA217B307E407C2
:1055F000F50720F0A21BB30BE40BF50B661F771F1A
:10560000881F991F1A9469F76095709580959095F9
:105610009B01AC01BD01CF010895EE0FFF1F059066
:10562000F491E02D09946927962769277827872721
:10563000782708950E94222B332312F48A1B9B0B98
:105640000C94332BA29FB001B39FC001A39F700D98
:10565000811D1124911DB29F700D811D1124911D7A
:1056600008950E94222BB7FF0895821B930B089583
:105670000E94222BA59F900DB49F900DA49F800D9A
:10568000911D11240895B7FF0C94382B0E94382BDC
:10569000821B930B0895FC014150504030F0019063
:1056A0000616D1F73197CF010895882799270895D5
:1056B000FB01DC0104C08D910190801921F441505F
:1056C0005040C8F7881B990B0895F999FECF92BDF9
:1056D00081BDF89A992780B50895A6E1B0E044E02D
:1056E00050E00C949F2BA8E1B0E042E050E00C9415
:1056F0009F2B262FF999FECF92BD81BDF89A019775
:1057000000B4021639F01FBA20BD0FB6F894FA9A09
:10571000F99A0FBE08950396272F0E947A2B0E94B4
:10572000792B252F0E947A2B242F0C947A2B01960B
:10573000272F0E947A2B0C94792BDC01CB01FC01E2
:10574000F999FECF06C0F2BDE1BDF89A319600B4DA
:0E5750000D9241505040B8F70895F894FFCFE5
:10575E00C80006022808641E140A321E0101020047
:10576E001000101001191A1B1C1D1E1F202122D8FB
:10577E00273A2805280128FD27DB27FF5AE200E9F2
:10578E0000EA00B500B600B700CD008301CC008A58
:10579E0001920194012102230224022502260227EE
:1057AE00022A02B300B4006F007000818283E2000F
:1057BE00E900EA00B500B600B700CD008301CC00C9
:1057CE008A0192019401210223022402250226025B
:1057DE0027022A02B300B4006F0070008182839505
:1057EE00969730656463626100010202020206064A
:1057FE00060909090909090F0F0F0F0F0F151515C6
:0E580E00181919191919191919191923240033
:00000001FF
