:100000000C94D1010C9418020C9433020C94180235
:100010000C9418020C9418020C94D31D0C94180222
:100020000C9418020C9418020C9418020C941802E8
:100030000C9418020C9418020C942C1E0C941802A8
:100040000C9418020C9418020C9418020C941802C8
:100050000C9418020C9418020C9418020C941802B8
:100060000C9418020C941802100710073C073C0768
:10007000A407C207BA08BA08CD07350846084608DB
:10008000AA08BA08BA08B3086C096C097E097E0987
:1000900075097E097E097E096C096C097A097E0959
:1000A0007E097A09B017B317D317E417EC17F717BF
:1000B0003D183D183D183D183D18FA17FD17021858
:1000C0000F181C181F182318301859005A005B000D
:1000D0005C005D005E005F006000610062002E0257
:1000E0002D00250238002800370059005A005B0017
:1000F0005C0001000100010001000100010001009D
:1001000001000100010001000100010001000100E7
:1001100001000100010001000100010001000100D7
:1001200001000100010001000100010001000100C7
:1001300001000100010001000100010001000100B7
:1001400001000100010001000100010001000100A7
:100150000100010001000100010001000100010097
:10016000010001000100010001000000000000008A
:1001700000002A2B28000000000000000000000002
:10018000000000000029000000002C1E3420212265
:1001900024342627252E362D3738271E1F202122CE
:1001A000232425263333362E37381F040506070847
:1001B000090A0B0C0D0E0F10111213141516171837
:1001C000191A1B1C1D2F3130232D35040506070875
:1001D000090A0B0C0D0E0F10111213141516171817
:1001E000191A1B1C1D2F3130354C00000000000077
:1001F00000000000000000000000000000000000FF
:1002000000000000000000000000000000007E0F61
:1002100000D4FFFFFFC70000007809025B00030164
:1002200000A0FA09040000010301010009210101F5
:1002300000012240000705810308000109040100B4
:10024000020300000009210101000122220007052C
:1002500084030800010705040308000109040200E3
:100260000103000000092101010001227B000705B4
:1002700083030800011201100100000008EDFE02D6
:100280000001000102000122034E0061006E006FB8
:100290000050006100640020003100360020005250
:1002A000006500740072006F0000001403480041F4
:1002B0000049005A0041004B005500520041000027
:1002C00000040309040660FF0961A1010962150029
:1002D00026FF009520750881020963150026FF009E
:1002E000952075089102C005010902A10185020946
:1002F00001A10005091901290815002501950875B6
:100300000181020501093009311581257F950275AA
:1003100008810609381581257F9501750881060534
:100320000C0A38021581257F950175088106C0C029
:1003300005010980A101850319012AB700150126CD
:10034000B700950175108100C0050C0901A1018558
:100350000419012AA002150126A002950175108139
:1003600000C005010906A101050719E029E71500EC
:10037000250195087501810295017508810305071E
:10038000190029FF150026FF009506750881000554
:1003900008190129059505750191029501750391CB
:1003A00003C011241FBECFEFD8E0DEBFCDBF04B61F
:1003B00003FE27C08091230390912403A09125037D
:1003C000B09126038730904BA740B04BD1F41092E8
:1003D000230310922403109225031092260314BEC7
:1003E00084B7877F84BF0FB6F894A895809160008A
:1003F000886180936000109260000FBEE0E0F8E337
:10040000099511E0A0E0B1E0EAECF4E402C0059047
:100410000D92A638B107D9F723E0A6E8B1E001C0F4
:100420001D92A332B207E1F70E9462140C9463227A
:100430000C940000A82FB92F80E090E041E050EA32
:10044000609530E009C02D9182279795879510F02F
:1004500084279527305EC8F36F5FA8F30895EADF1D
:100460008D939D930895CF93CFB7CF93DF93C3958B
:100470004B9BE9F74B9B10C04B9B0EC04B9B0CC09A
:100480004B9B0AC04B9B08C04B9B06C0C091FA0215
:10049000C395C093FA028EC06F93C091F902DD2715
:1004A000CF5FDC4F2F9365E54B9B03C02F916F917E
:1004B000E1CF0F931F934F9320E040E15F9309B189
:1004C0000C7003FB27F93F9350E03BE039C01C70F0
:1004D00040642F77012F5F5F1EC0406819B11C7008
:1004E0002F7752501FC0406409B12F770C70D1F1A3
:1004F0005F5F00C023C0406219B12F771C7091F17B
:100500005F5F00C025C00C701027515012F45D5F72
:100510000000115027952C3F19B1C8F61C70012717
:10052000015027952C3FC8F64227499309B10C701A
:1005300010274F73115027952C3FA8F646954695E6
:1005400019B11C7079F00127015027952C3F98F6BE
:100550006B5A60F3315009B1B0F600C012E01CBB19
:1005600000271CC03B503195C31BD04012E01CBB80
:100570000881033C21F10B3411F12091F60219811D
:10058000110F1213EDCF4A81441F093679F10D3254
:1005900011F0013E29F74F7009F0042F0093FF027C
:1005A0003F915F914F911F910F912F916F91CCB31C
:1005B000C1FD5DCFDF91CF91CFBFCF911895209135
:1005C000FF02222369F31091FD02112309F049C0B3
:1005D00034300AF448C03093FD022093F8021091A1
:1005E000F9023BE0311B3093F9023DC00091FD025E
:1005F0000130BCF50AE54F7049F43091190134FD22
:1006000033C000931901C3EDD2E032C0433059F03A
:10061000443091F03091DE0234FD26C00093DE02BA
:10062000CFEDD2E025C03091170334FD1DC00093FB
:100630001703C8E1D3E01CC03091EA0234FD14C0B6
:100640000093EA02CBEED2E013C0052710E000C011
:1006500000000BB91AC0052710E0221F1DC010E0D2
:1006600021C04AE502C032ED432FC4E1D0E032E0C0
:100670001AB11C605B9A0BB11AB95CE020E865E323
:1006800020FF05270BB9279517951C3FF0F66695B7
:10069000B8F7B1F720FF05270BB9279517951C3F31
:1006A000D0F62795179517FF052700001C3F0BB9BB
:1006B000B0F629913A9519F7037F1091FE02110FB8
:1006C000C651D0400BB911F01093F60212E01CBBDA
:1006D00008601AB1137F402F437F54E05A95F1F719
:1006E0000BB91AB94BB95CCF9C013A9521153F4122
:1006F00030F5BC0166277270AC01442754709C0130
:100700002227387094FF0FC090FF02C080E101C023
:1007100080E0672B09F08062452B09F08064232B71
:1007200079F080680895892F8170672B09F08260C5
:10073000452B09F08460232B19F08860089580E030
:100740000895CF93DF93EC01805E9109089710F034
:10075000209731F4CE010E9474030E94CB0605C09D
:10076000CE010E9474030E9432098C2FDF91CF9139
:100770000C942106CF93DF93EC010E947706CE0103
:10078000805E9109089710F0209739F4CE010E94FD
:100790007403DF91CF910C94D206CE010E947403B2
:1007A000DF91CF910C943909CF93DF93EC010E9434
:1007B000A103CE01DF91CF910C94BA0381E008959B
:1007C00081E008950C94E00308950C94E4031F93D2
:1007D000CF93DF9300D000D01F92CDB7DEB749830F
:1007E0005A836B833091880189819A81311114C0B9
:1007F000662359F0222349F00E94600A182F682FBF
:1008000089819A810E940B0A03C00E94350A182F21
:1008100069817A81812F04C00E94600A69817A818E
:100820000F900F900F900F900F90DF91CF911F912D
:100830000C94291BFC01262F408151816281738118
:1008400084810C94E70381E00895CF93DF93EC015A
:1008500060E00E941A04BE01DF91CF910C94E50381
:10086000E1E0F0E0DF0102C0AA0FBB1F6A95E2F7EA
:10087000BD01DF0102C0AA0FBB1F4A95E2F7AD011F
:10088000462B01C0EE0F2A95EAF7942F98234913BF
:1008900002C08E2B0895E0958E230895242F462FB5
:1008A000682F809192010E9430040C94C8090E9424
:1008B000FC120E94C7050E9471180C942C130C9412
:1008C000281308950C9461040C9462040E9464043B
:1008D00080E00C94C8050C9461040E945A090E949F
:1008E0006B042FEF84E39CE0215080409040E1F7BF
:1008F00000C000000C94521E0F931F93CF93DF9300
:100900008C0161E00E941A04EC01B8010E945F179B
:10091000882309F44BC0B801CE010E94E20388236A
:1009200009F444C0B801CE010E9415198823F1F1E1
:10093000B801CE010E948F1C8823C1F1B801CE01FD
:100940000E943319882391F1B801CE010E94EB1B5C
:10095000882361F1F8018281882309F1CA358DE588
:10096000D807C1F050F4C115FCE5DF0781F0CE3D9A
:10097000DC45A9F40E94011019C0CB35EDE5DE0776
:1009800061F0CC35DD4559F40E94450F08C00E9446
:100990006D040CC00E944E0F02C00E94510FC8018E
:1009A000DF91CF911F910F910C94DE0380E0DF91D6
:1009B000CF911F910F9108950C9461040E94EB1C3C
:1009C0000E94C8050C94DC04DF92EF92FF920F9313
:1009D0001F93CF93DF93E82FF0E0E659FE4FD490BA
:1009E000282F26952695269530E0F901E65FFD4FE4
:1009F0000491877010E0082E02C0159507950A949F
:100A0000E2F701701127F901E650FE4FE490F12C56
:100A1000082E02C0F594E7940A94E2F791E0E922E7
:100A2000FF24F901E651FE4FC491D0E002C0D595F4
:100A3000C7958A95E2F7C170DD270115110519F0F8
:100A400081EE0E942106E114F10419F086EE0E9465
:100A500021068D2D0E94C206EF2819F086EE0E9415
:100A60007706012B19F081EE0E947706CD2B51F00D
:100A70008CE2DF91CF911F910F91FF90EF90DF906B
:100A80000C94C206DF91CF911F910F91FF90EF90D0
:100A9000DF900895EF92FF920F931F93CF93DF9310
:100AA000EC01162F0AE08881882309F455C08130B3
:100AB00009F043C08981813041F47E0182E0E80E73
:100AC000F11C8A810E94C20609C0823049F47E016D
:100AD000E2E0EE0EF11C8A810E942106E7012FC0A0
:100AE000833041F47E01F2E0EF0EF11C8A810E9416
:100AF0007706F4CF843011F0219621C02A81229606
:100B000080E090E030E0205331092A30310558F47C
:100B1000089FA001099F500D1124C901840F951F42
:100B200021962881EFCF009751F0EFE9FFE0319750
:100B3000F1F700C000000197F6CF0E94E40421966F
:100B4000812F882309F4AFCFEFE9FFE03197F1F768
:100B500000C000008150F5CFDF91CF911F910F9120
:100B6000FF90EF90089560E00C944A05982F9F70D5
:100B70009A50963010F0805D01C0895A0C94E404BC
:100B800008950C94C00581E008950C94C305089560
:100B9000CF93C82F0E94C1058C2F0E94C505CF910D
:100BA0000895CF93DF93CDB7DEB72B970FB6F894A8
:100BB000DEBF0FBECDBF4F83588769877A878B878B
:100BC00061110E94910E9E012F5F3F4F86E0F90157
:100BD00011928A95E9F785E0FE013796D9010190D7
:100BE0000D928A95E1F789819A814C815D81452B2F
:100BF00031F09F3F31F491E08F3F19F403C091E051
:100C000001C090E090FF09C049815A816B817C81CD
:100C10008D819E810E94AF0D05C0C9010E942304F1
:100C20008111F2CF2B960FB6F894DEBF0FBECDBF69
:100C3000DF91CF910895FC01808191810E948D0AFE
:100C40000895CF93882309F450C0C82F8CEF8C0FE0
:100C5000813AD0F46C2F80910201909103010E949F
:100C60004B1D882349F06C2F809102019091030164
:100C70000E94831D0E94C30E6C2F809102019091EF
:100C800003010E94811D0CC080E28C0F883058F453
:100C9000C77081E001C0880FCA95EAF70E94710E03
:100CA000CF910C94C30EEBE5EC0FE33040F4F0E091
:100CB000E85BFE4F808190E0CF910C94131DE8E536
:100CC000EC0FE73150F4F0E0EE0FFF1FE65EFE4F51
:100CD00080819181CF910C94291DC03F30F08C2FE1
:100CE0000E94F114CF910C94C315CF9108958823DD
:100CF00089F19CEF980F913A40F4682F809102019E
:100D0000909103010E94831D0DC090E2980F9830CE
:100D100058F4877091E001C0990F8A95EAF7892FFE
:100D20000E94770E0C94C30E9BE5980F933020F42D
:100D300080E090E00C94131D98E5980F973120F413
:100D400080E090E00C94291D803F20F00E944C151B
:100D50000C94C31508951F93CF93DF93182FEB01C5
:100D60000E942106209741F08FE99FE00197F1F75B
:100D700000C000002197F6CF812FDF91CF911F9106
:100D80000C947706893319F060E070E002C060E5EA
:100D900070E00C94AB06882321F00E94710E0C9435
:100DA000C30E0895882321F00E94770E0C94C30E81
:100DB0000895CF92DF92EF92FF920F931F93CF93FC
:100DC000DF937C01162FC72FFC01D281058102958C
:100DD0000F700E94670E8823B9F0DD23A9F08C2FD5
:100DE000807F803421F080E2810F883068F080912C
:100DF000BD0282FD09C082E00E94130F0E94670EAF
:100E000091E0D82ED92601C0D12CCC2EC2948FE0EF
:100E1000C8228C2D90E0FC01EC5CFF4F0C94F32178
:100E20008C2F807FCF70882311F0C295C07FDD2387
:100E300099F0CC2309F479C180E2810F883010F059
:100E4000111104C08C2F0E94710E03C08C2F0E94C0
:100E5000840E0E94C30E69C1812F0E947706CC23A5
:100E600009F488C180E2810F883038F1112329F11B
:100E70008C2F0E948A0E24C08C2F807FCF708032EE
:100E800011F0C295C07F112319F01130A1F13DC0BE
:100E90008091BD0282FF17C0DD2349F0CC2329F0E9
:100EA0008C2F0E94710E0E94C30E80E03FC180E033
:100EB0000E947706CC2309F45DC18C2F0E94770E27
:100EC0000E94C30E57C1DD2371F0002341F00130B1
:100ED00031F40E94A40E8C2B0E94AC0E4BC10E94D8
:100EE000A40E8C2B1DC0002319F0013009F442C15F
:100EF0000E94B90E25C0DD2321F0063008F03AC16A
:100F00000EC0053008F036C11BC0DD2361F00023A0
:100F100031F0F701858180FF08C18F7085838C2FA8
:100F20000E94CB0627C1002359F0193309F00EC1E6
:100F3000FFEF27EE83E0F15020408040E1F704C14D
:100F40008C2F0E94D20616C18C2F869586958370B1
:100F500019F0813061F00EC1DD2321F0812F9C2F2B
:100F6000937002C080E090E00E94131D0BC1DD234E
:100F700021F0812F9C2F937002C080E090E00E94AE
:100F8000291D00C1812FDD2319F00E94F11402C038
:100F90000E944C150E94C315F5C08C2F837079F503
:100FA000D111ECC0412F429546954770440F440F34
:100FB000212F2F70042E01C0220F0A94EAF714FF8C
:100FC00008C08FE090E001C0880F4A95EAF780954D
:100FD00001C080E0C695C695C370822BC23049F02F
:100FE00058F4C13019F00E94BC09C8C00E94B7096A
:100FF000C5C00E94C109C2C00E94B509BFC0DD239F
:1010000019F08C2F817001C08695882309F4B6C031
:10101000412F429546954770440F440F212F2F7062
:10102000042E01C0220F0A94EAF714FF08C08FE0D3
:1010300090E001C0880F4A95EAF7809501C080E0F2
:10104000C695C695C370822BC23049F058F4C130A2
:1010500019F00E94000A92C00E94FB098FC00E94F2
:10106000050A8CC00E94C80989C0CF70DD2339F001
:101070008C2F0E94D909812F0E94CB067FC0812F1F
:101080000E94D2068C2F0E94E40978C0123F21F101
:1010900028F4103F41F0113FC1F043C0133F19F154
:1010A000143F79F03EC0DD2341F0053008F062C006
:1010B0008C2F8F710E94F0095DC0063008F05AC075
:1010C000F7CF8091BD0282FF18C0DD2339F08C2F4D
:1010D0008F710E94D9094EC0DD23C9F38C2F8F7107
:1010E0000E94E40947C0DD2329F08C2F8F710E94F4
:1010F000D10940C00E94CE093DC0DD2349F0CF7127
:101100008C2F0E94D90963E08C2F0E94F80E32C008
:1011100081E00E94130F023068F182E00E94130FF9
:1011200029C0DD2331F0002391F2812F0E94210696
:1011300021C0002399F2193349F49FEFE7EEF3E061
:101140009150E040F040E1F700C00000812F0E9484
:10115000770610C04C2F4F70612FC7010E94DE1020
:101160000E94BB0A0FC04C2F4F70612FC7010E9415
:10117000E11008C088EF8C0D843020F40E94EB1C35
:101180000E94C805DD20C9F00E94630E80FD15C0D5
:10119000F70112820E945D0E0E94D909C7010E94C8
:1011A000FE080E945D0EDF91CF911F910F91FF907D
:1011B000EF90DF90CF900C94E409DF91CF911F91D5
:1011C0000F91FF90EF90DF90CF9008950F931F93B2
:1011D000CF93DF93EC01688179818A810E94980A1C
:1011E0008C010E940A0A0E94A909B801CE010E943E
:1011F000D906DF91CF911F910F910895CF93DF937F
:10120000EC01988189812B813C81232B31F08F3F28
:1012100031F481E09F3F19F403C081E001C080E018
:1012200080FD1DC0CE010E947C04811110C00E946F
:10123000670E8823A1F08A81882389F08091BD02FE
:1012400082FD0DC082E0DF91CF910C94130FCE018F
:101250000E94E608CE01DF91CF910C942504DF9126
:10126000CF910895882321F00E94840E0C94C30E20
:101270000895882321F00E948A0E0C94C30E0895CD
:1012800080E090E00E94131D80E090E00E94291D04
:101290000E94910E0E94A10E0E94C30E0E94F4169D
:1012A0000C94C31580910201909103010E94851D49
:1012B0000C9440090E94810E0C945209E92FE2958A
:1012C000EF704E2F50E0FA013297EE30F105B0F496
:1012D000EC5BFF4F0C94F321803F91F018F4883EB3
:1012E00068F40EC0843F51F40BC0883E48F0813F43
:1012F00029F406C093FB882780F9089580E00895BB
:1013000081E00895FC01808191810E948D0A0E94F4
:101310005E090895CF93DF9300D000D01F92CDB720
:10132000DEB70F900F900F900F900F90DF91CF913D
:101330000895CF93DF9300D000D000D0CDB7DEB7B3
:1013400026960FB6F894DEBF0FBECDBFDF91CF91CA
:101350000895089508950C94AA090C94AB090E946D
:10136000AD09809393010C9440090C94AF099091BE
:101370009301892B0C94AF099091930189230C94CC
:10138000AF099091930189270C94AF090C94AA0995
:101390000E94C609809392010C94400980E00C944D
:1013A000C80991E001C0990F8A95EAF7892F0C943A
:1013B000C80921E030E001C0220F8A95EAF7809148
:1013C0009201822B0C94C80921E030E001C0220F69
:1013D0008A95EAF720958091920182230C94C8099E
:1013E00021E030E001C0220F8A95EAF78091920156
:1013F00082270C94C80990919201892B0C94C809FA
:101400009091920189230C94C809909192018927A7
:101410000C94C8090895990F990F890FE82FE69544
:10142000E695E695877051E001C0550F8A95EAF779
:1014300083E0E89FF0011124E757FE4F20E030E001
:1014400070E04081CB01022E02C0969587950A94E8
:10145000E2F78170819584278523842781932F5F0C
:101460003F4F2330310569F70895990F990F890F80
:10147000682F669566956695982F977083E0689FAC
:10148000B001112440E050E080E0FB01E40FF51FC3
:10149000E757FE4F208130E0092E02C03695279590
:1014A0000A94E2F721703327042E01C0220F0A9418
:1014B000EAF7822B4F5F5F4F4330510531F70895B4
:1014C000CF92DF92FF920F931F93CF93DF936C0124
:1014D0000091920180919301082BC7E0D0E010E0C9
:1014E000C8010C2E02C0959587950A94E2F780FDFD
:1014F00004C02197A8F7F12C07C0FC2EB6018C2F51
:101500000E9406120197A9F38F2DDF91CF911F91B1
:101510000F91FF90DF90CF900895CF93DF93EC0170
:101520000E94600ABE010E940612DF91CF910895C9
:101530001F93CF93DF93EB0190918801992321F0C2
:10154000CB010E948D0A13C0882349F0CB010E9471
:10155000600A182F682FCE010E940B0A04C0CB012D
:101560000E94350A182FBE01812F0E940612DF91BA
:10157000CF911F910895EF92FF920F931F93CF93F6
:10158000DF938C01892B09F46CC0F12CEE24E394D9
:10159000E8012196F8018491843740F4843008F002
:1015A00051C0813081F0823019F15BC0853709F478
:1015B00044C0A8F19CE7980F903708F052C08F778D
:1015C0000E94770641C00E5F1F4FFE01849190E29A
:1015D000980F983050F48770FE2D01C0FF0F8A9548
:1015E000EAF78F2F0E94940E14C00E9421062DC08E
:1015F0000E5F1F4FFE01849190E2980F983060F4C7
:101600008770FE2D01C0FF0F8A95EAF78F2F0E9489
:101610009A0E0E94C30E19C00E94770616C00E5F74
:101620001F4FFE01C491CC2381F08FE99FE0019709
:10163000F1F700C00000C150F6CF0E5F1F4FFE0152
:10164000F49003C00E9421068E018F2D882309F497
:101650009FCFEFE9FFE03197F1F700C00000815024
:10166000F5CFDF91CF911F910F91FF90EF900895EB
:101670001F93CF93DF93C091940116E08091950161
:10168000C81799F0D0E01C9FF0011D9FF00D1124A8
:10169000EA56FE4F40815181628173818481958138
:1016A0000E9499092196C770E9CFDF91CF911F91D0
:1016B00008954091C6015091C7016091C801709191
:1016C000C9018091CA019091CB010C949909EF92C4
:1016D000FF920F931F93CF93DF938091CB0182955D
:1016E0008F7009F065C08091C801882309F460C03B
:1016F00080919401F09095011091C6010091C7016D
:101700006091C9017091CA0191E01F3F09F090E01A
:10171000C0910001D0910101292F96E0E92E8F158B
:1017200009F446C06115710521F00F3F21F030E04A
:1017300003C031E001C0322F90E030FD36C0E89E9A
:10174000F001E99EF00D1124DF01AA56BE4F11965B
:101750003C911197301329C03C91311326C0129649
:101760003C911297311121C013964D915C911497C1
:10177000461B570B4C175D07C0F48091CB018F704F
:1017800080618093CB01E556FE4F80818F70806130
:10179000808386EC91E00E94FE08DF91CF911F913B
:1017A0000F91FF90EF900C94380B01968770B7CF94
:1017B000DF91CF911F910F91FF90EF9008959F922D
:1017C000AF92BF92CF92DF92EF92FF920F931F934F
:1017D000CF93DF93CDB7DEB761970FB6F894DEBF36
:1017E0000FBECDBF8C0185E0F801DE011D96019092
:1017F0000D928A95E1F7D8011296EC909091C6016E
:10180000E091C7012091C9013091CA01211531052C
:1018100031F0EF3F31F481E09F3F19F403C081E0E4
:1018200001C080E0B82FB1709B2E80FD47C1D80168
:101830004C9111965C9111971396AD90BC901497B2
:1018400086ECC82E81E0D82EF090C801B501621B4D
:10185000730B2091000130910101FF2009F4D9C0E0
:101860008091CB016217730708F095C0282F207F65
:1018700009F052C05E1313C0491311C0FE2CE110D1
:101880000EC08F7080618093CB010E94590BC601FE
:101890000E94FE088091CB01F80185834DC1AB28E1
:1018A00031F05F3F31F481E04F3F19F403C081E034
:1018B00001C080E080FD03C081E08E2502C080E091
:1018C00090E0F82FF170FF2E80FF1CC080919401F2
:1018D0002091950136E0821709F40BC190E0389F02
:1018E000F001399FF00D1124EA56FE4F6181561325
:1018F00006C06081461303C06281E61203C00196F0
:101900008770E9CFFE2CEE2009F416C18091CB013F
:1019100081608093CB0154C05E1306C0491304C09C
:10192000E11002C0F80199C0C8010E948209882311
:1019300061F1EE2051F12091CB01822F82958F70C1
:1019400090E0029774F08091C6019091C70198874A
:101950008F831986BB86AA862C87CE0107960E94A4
:10196000FE0886E0F801A6ECB1E001900D928A95A0
:10197000E1F70E94670B0E94590B0AC05E1711F134
:10198000C8010E94820981112CC0C8010E94FE0872
:10199000FF24F394D1C0282F207F81F77A2DB98AB4
:1019A000A88A6E2D89890E948A0986EC91E00E949E
:1019B000FE0886E0D6011D928A95E9F70E94590B30
:1019C000F12CBAC04913DCCFE110DACFF8018583DE
:1019D000C8010E94FE0886E0D6011D928A95E9F7AB
:1019E000ABC0EE2091F22091CB01822F82958F70B7
:1019F00090E002970CF4B5CF8091C6019091C70199
:101A00009A8389831B82BD82AC822E83CE0101968C
:101A1000A6CF6217730708F044C0FE2CEE2009F42D
:101A2000B4CF5E1330C049132EC02091CB0120FDEE
:101A300021C0822F82958F70482F50E041155105AB
:101A4000C9F0F80125834F30510541F08F5F982F81
:101A50009295907F822F8F70892B8583C8010E9479
:101A6000FE0886E0F801A6ECB1E001900D928A959F
:101A7000E1F73CC086E0F801A6ECB1E001900D92E0
:101A80008A95E1F759C0C8010E948209811169CF86
:101A90008091CB0181608093CB01C8010E94FE0838
:101AA0004BC07A2DB98AA88A6E2D89890E948A092D
:101AB00086E0D6011D928A95E9F718C0EE2009F458
:101AC00064CFC8010E948209F82E882309F45DCFF3
:101AD00086E0F801A6ECB1E001900D928A95E1F75D
:101AE00086EC91E00E941B060E94670B0E94590B36
:101AF00023C04D875E878D859E850E948D0A292F84
:101B000022952F70223028F49F7039F0811105C082
:101B10000BC0243028F49F7049F4805E883020F098
:101B2000C8010E94FE089F2CF92C06C0D80115960A
:101B30009C91907F91F7F8CF8F2D61960FB6F89416
:101B4000DEBF0FBECDBFDF91CF911F910F91FF90F0
:101B5000EF90DF90CF90BF90AF909F9008951F932C
:101B6000CF93DF93CDB7DEB72C970FB6F894DEBFD7
:101B70000FBECDBF4F83588769877A878B879C8735
:101B8000CE0107960E94DF0B8823D1F09F818885C4
:101B90002A853B85232B31F08F3F31F481E09F3F35
:101BA00019F403C081E001C080E080FD47C04F818F
:101BB000588569857A858B859C850E9499093EC0E8
:101BC00086E0FE013796DE01119601900D928A950E
:101BD000E1F7FF81E8856A857B856115710531F044
:101BE000EF3F31F481E0FF3F19F403C081E001C011
:101BF00080E080FD23C02091950130E0C90101966D
:101C0000877099274091940150E084179507F1F16E
:101C1000F983EA837D836C8396E0929FD001939F42
:101C2000B00D1124AA56BE4FFE01319601900D92BF
:101C30009A95E1F7809395010E94380B16E0809108
:101C4000940190919501891771F1189FC001112499
:101C50008A569E4F0E94DF0B882329F1E091940160
:101C60001E9FF0011124EA56FE4F4081518162818E
:101C70007381848195810E9499098091940190E0FB
:101C800001968770992780939401D9CF0E945A09B1
:101C90001092950110929401E6ECF1E086E0DF01EC
:101CA0001D928A95E9F72C960FB6F894DEBF0FBE09
:101CB000CDBFDF91CF911F9108958091CC01859583
:101CC0008595859508958091CC01877008959091B0
:101CD000CC01977081E009F480E008958091D801EB
:101CE00008959091D801892B8093D801089580950B
:101CF0009091D80189238093D80108958093D801C9
:101D000008951092D80108959091D701892B80935E
:101D1000D701089580959091D70189238093D701A9
:101D200008951092D70108959091D601892B809340
:101D3000D601089580959091D60189238093D6018C
:101D400008951092D60108958091CD0108950895C7
:101D50000C94A70E0C94A80E9091BD0292FD08C0A1
:101D60009091CD01981721F08093CD010C94AA0E8B
:101D700008958091CD01882329F01092CD0180E053
:101D80000C94AA0E0895E0910201F0910301809154
:101D9000D8018083E0910201F0910301908180914C
:101DA000D701892B8083E0910201F091030190819A
:101DB0008091D601892B80838091CD01882381F089
:101DC000E0910201F09103019081892B8083809141
:101DD0000201909103010E943F1D81110E94B90EE2
:101DE00080910201909103010C94FA1C0C94A70EAF
:101DF0009091BD0292FD10C098E0899F900111243E
:101E0000262B2093CC010E94D9098091CC01859585
:101E1000859585950C94F60E0C94D9091092CC01F9
:101E200080E00C94F60E2091CC0180958223809363
:101E3000CC01982F977099F430E0482F082E000CB1
:101E4000550B2417350759F09091BD0292FD07C03C
:101E50008595859585950E94E4090C940E0F08954B
:101E60009091BD0292FB222720F9281769F080FB90
:101E700092F99093BD028091BC029091BD020E94A4
:101E80007E0F82E00C94130F08958091BD0282FBB7
:101E9000882780F991E089270C94300F81E00C9419
:101EA000300F80E00C94300F6FEF7FEF80E090E018
:101EB0000C944D2280E090E00E942922893E9E4FA2
:101EC00011F40C94021780E0089582E090E00C94E5
:101ED000212283E090E00C942122CF9384E090E0D3
:101EE0000E942122C82F82E290E00E9421222C2F02
:101EF00030E0A901582BCA01CF910895CF93C92F83
:101F0000682F84E090E00E942F226C2F82E290E004
:101F1000CF910C942F22AB01BC018FE090E00C9488
:101F20004122AB01BC0183E190E00C94412260E0CE
:101F300070E0CB010C94910F60E070E0CB010E9447
:101F40008B0F0C94970F69EE7EEF80E090E00E947B
:101F50004D2260E082E090E00E942F2260E083E06A
:101F600090E00E942F221092930160E084E090E0C4
:101F70000E942F2260E082E290E00E942F2260E027
:101F800085E090E00E942F2260E086E090E00E94D1
:101F90002F226FEF87E090E00E942F2240E050E078
:101FA000BA0188E090E00E94412260E08DE090E07C
:101FB0000E942F2240E050E0BA0188E190E00E94A8
:101FC000412260E087E190E00E942F2240E050E053
:101FD000BA018CE190E00E94412260E070E080E272
:101FE00090E00E944D2240E050E0BA0188E190E08C
:101FF0000E94412280E00E941B170E9447170C9408
:102000009C0F0C94A30F682F8EE090E00C942F226D
:102010000E94111E6093E3017093E4018093E50137
:102020009093E6016093DF017093E0018093E101FA
:102030009093E201089581E008950C941B10089597
:102040000C941F100C941F100C9422100C941F1051
:102050000C9426100C941F1082EE92E10E94E11C59
:102060000E942A100C9428100E9420100C941F101B
:102070000E94FC1D0E9456170E94C9130C94241044
:102080009F92AF92BF92CF92DF92EF92FF920F9307
:102090001F93CF93DF93CDB7DEB72A970FB6F8948F
:1020A000DEBF0FBECDBF0E94DE1381110E9408105B
:1020B0008AEDA82E81E0B82E00E010E0902E802F4F
:1020C0000E941613D82EF501C1905F01C826B1F405
:1020D0000F5F1F4F0530110589F78FEF89838A83C2
:1020E0001B820E94051E8160782F9D838C8349810D
:1020F0005A816B818D810E94D1052FC08091E701AB
:1021000081FD0E941C13E12CFF24F3948C2D8F2160
:10211000F1F00E941D10882399F0EE829F82DF204B
:1021200081E009F480E088870E94051E8160782F95
:102130009A8789874E815F8168858A850E94D1054B
:10214000F801E652FE4F8081F826F08206C0E39443
:10215000FF0CF4E0EF12DACFBBCF0E94E1150E9432
:10216000EB1C9091D9018917B9F00E94EB1C809368
:10217000D9012A960FB6F894DEBF0FBECDBFDF910E
:10218000CF911F910F91FF90EF90DF90CF90BF9074
:10219000AF909F900C94C8052A960FB6F894DEBFB6
:1021A0000FBECDBFDF91CF911F910F91FF90EF90A8
:1021B000DF90CF90BF90AF909F90089580E090E027
:1021C00008950895880F991FFC01E65EFD4F8591E3
:1021D00094910895CF93DF930E940B12EC01811527
:1021E00020E5920708F03FC0811540E4940708F00D
:1021F000D2C0883E910500F5803E910508F002C1ED
:10220000883A910570F4853A910508F0A6C08130AE
:10221000910509F49FC008F4F2C0049708F0F2C0D9
:10222000EEC08F3B910508F4A1C0803C910508F4F5
:10223000E6C0805C9109A5C0811550E2950760F465
:10224000C11581E0D80708F0DDC0C03FD10508F412
:10225000D6C0CE019065D7C0811520E3920708F063
:1022600093C09F708EC0811545E5940708F046C065
:10227000811554E5950708F0A6C0C11582E5D80779
:1022800018F5C11521E5D20708F088C0CE01F4E0A9
:1022900096958795FA95E1F7282F23703C2F337098
:1022A00081E090E002C0880F991F3A95E2F79C68A0
:1022B000922B2C2F2F702695269540E2249F90017B
:1022C0001124822B932B9FC09E01237033279C2FB8
:1022D00096959695C115D34508F065C041E050E04C
:1022E00002C0440F551F2A95E2F780E2989F9001A3
:1022F0001124CA01822B932B9C6885C0811559E556
:10230000950798F4C11588E5D80708F061C0C11594
:1023100026E5D20708F073C08C2F0E949F128F71A0
:1023200090E0982F882790626EC081154AE5940747
:1023300008F453C090568115904208F060C08D2F6C
:102340008F710E949F129E01332730628F71A90105
:10235000582B53C081E090E056C0855AC82FD0E07A
:10236000C758DE4F888190E090644DC0885AC82FCE
:10237000D0E0CC0FDD1FC55BDE4F8881998194646E
:1023800042C00E94E2103FC09927D3FF02C0986C60
:102390003AC0906C38C09F70906A35C09C2F8827D7
:1023A000816F906A30C041E050E002C0440F551F79
:1023B0002A95E2F780E2989F90011124CA01822BAE
:1023C000932B9A6820C0982F8827846F906A1BC02F
:1023D0009C2F8827806F906A16C08F700E949F1272
:1023E0009E0194E0369527959A95E1F72F7030E09D
:1023F000322F22273069A901482BCA0104C080E08E
:1024000090E001C0CE01DF91CF9108950E94291B79
:102410000E94EA1008958238910569F1B0F4813381
:10242000910509F46DC048F48932910509F463C03F
:102430008A32910509F469C008958533910509F43C
:1024400055C089339105B9F00895833E910569F12E
:1024500038F4803E9105B1F0823E910509F108956E
:10246000863E9105A9F1873E9105B9F1843E91051B
:1024700009F064C023C02091BC0220FD4FC021FDA3
:102480004DC008958091BC0280FD44C08091BD0282
:1024900080FF44C08091BC0284FD42C083EE4DC0E9
:1024A0008091BC0282FF38C0F5CF8091BC0282FDD2
:1024B00033C08091BD0280FD31C0ECCF8091BD0260
:1024C00081FF32C08091BC0284FD2AC087EE35C0F6
:1024D0008091BC0283FF26C0F5CF8091BC0283FDB2
:1024E00021C08091BD0281FD1FC0ECCF8091BC0254
:1024F00085FD1CC01DC08091BC0285FD19C016C0A1
:102500008091BC0286FD16C017C08091BC0286FD7A
:1025100013C010C089E311C082EE0FC080EE0DC061
:1025200080E00BC086EE09C084EE07C089E205C0DA
:1025300085E303C08AE201C081E390E008959091B1
:10254000BC0292FF0DC0282F2871283019F4877F14
:10255000846006C0282F2471243011F48B7F88609A
:1025600093FF0DC0282F2871283119F4877E8461CC
:1025700006C0282F2471243111F48B7E88612091AC
:10258000BD0220FF0DC0382F3871383019F4877F15
:10259000816006C0382F3171313011F48E7F886030
:1025A00021FF0DC0282F2871283119F4877E816101
:1025B00006C0282F2171213111F48E7E886194FD8F
:1025C000877E089580E008950C94540F0E94DE13D6
:1025D0008FE39CE90197F1F700C000000E94DE1331
:1025E00080E00E94161380FF04C00E94E4120C9445
:1025F000521E08950C94E6120E945A0F811102C0D7
:102600000E9401100E94650F8093E7010E946D0FE8
:102610009093BD028093BC020E94FA120E94690F3F
:102620000E94B509809192010C94C609E82FF0E050
:10263000ED53FD4F80810895089580EA8A95F1F762
:10264000089500C008950C941D1308950C9425134B
:102650000C9426130C9425130C942A13F894E82F49
:10266000E295EF70F0E031A1282F2F7081E090E02B
:1026700001C0880F2A95EAF7982F9095932391A38C
:1026800092A1892B82A3789408950F931F93CF93DF
:10269000DF93C0E8D1E089918F3F11F00E942E13A3
:1026A00081E0C538D807B9F7CCE7D1E000E811E000
:1026B00089918F3F11F00E942E130C171D07C1F74F
:1026C000DF91CF911F910F910895CF92DF92EF92FA
:1026D000FF920F931F93CF93DF938C01C62FD0E00F
:1026E000CE0180589E4F7C01FC0190819F3F09F4F0
:1026F00047C0D62EF894E92FE295EF70F0E081A163
:102700009F7021E030E001C0220F9A95EAF7822BFA
:1027100081A382A12095282322A378940E942113CB
:10272000ECE7F1E040E851E031E0C12C21912F3F8E
:1027300089F0A22FA295AF70B0E090968C9190E0B6
:102740002F7002C0959587952A95E2F780FD02C00B
:10275000832F01C080E0C82A330F4E175F0731F77F
:10276000F70180818F3F11F00E942E1361E0C110AC
:1027700001C060E08D2D0E942313C00FD11FC882BD
:10278000DF91CF911F910F91FF90EF90DF90CF904D
:1027900008950E94451385E0E3ECF2E0DF01982FF5
:1027A0001D929A95E9F7EEEBF2E0DF011D928A9512
:1027B000E9F785E00E9425140C945704FF920F93CB
:1027C0001F93CF93DF9300D000D01F92CDB7DEB719
:1027D0008E010F5F1F4F85E0F80111928A95E9F78E
:1027E000F12C6F2DC8010E946513F394F5E0FF12E0
:1027F000F8CF45E050E0B8018EEB92E00E94142241
:10280000FF24F394009709F4F12C892B41F085E023
:10281000F801AEEBB2E001900D928A95E1F72F2D11
:1028200045E063EC72E08EEB92E00E9426140E9479
:102830005F048F2D0F900F900F900F900F90DF91EE
:10284000CF911F910F91FF9008950895FF920F93DC
:102850001F93CF93DF938C01F62ED72FC42F222303
:1028600049F081E08093EA010E94051E9093E901FE
:102870008093E8018091EA018823C1F08091E8010A
:102880009091E9010E941D1E059780F0EF2DFD2F0C
:10289000D8014C2F50E0CD01801B910B8417950778
:1028A0001CF48D918193F7CF1092EA01DF91CF91C3
:1028B0001F910F91FF9008950E94771E0E9438107B
:1028C0000C94881E0E948C1D0E94671E0E942C1072
:1028D0000E945C140E94961E0E943410FBCF8091CF
:1028E000F10180FF0BC06091090185E0689FB00194
:1028F000112475956795759567952BC081FF09C063
:102900006091090185E0689FB00111247595679574
:1029100020C082FF07C06091090185E0689FB00177
:10292000112417C09091F0019923D1F06091080112
:10293000961788F72091090185E0289F90011124BE
:10294000929FA001939F500D112470E0CA010E9434
:10295000DF216038710540F46115710519F406C076
:1029600065E070E0862F08958FE7089581E008956F
:102970008091F10180FF08C06091050170E07595BC
:1029800067957595679521C081FF06C06091050127
:1029900070E07595679519C082FF04C060910501CC
:1029A00070E010C09091EF01992399F060910401BB
:1029B0009617A0F780910501899FC001112470E04E
:1029C0000E94DF216038710540F46115710519F42A
:1029D00006C061E070E0862F08958FE7089581E0DA
:1029E0000895803F21F40E946F14819504C0813FB7
:1029F00029F40E946F148093F5010895823F21F419
:102A00000E946F14819504C0833F29F40E946F14C3
:102A10008093F4010895893F19F40E94B81405C009
:102A20008A3F31F40E94B81481958093F60108958D
:102A30008B3F21F40E94B814819504C08C3F29F487
:102A40000E94B8148093F70108959CE0980F953088
:102A500078F421E030E0A90102C0440F551F9A9597
:102A6000E2F7CA019091F301892B8093F301089555
:102A70008D3F21F48091F10181600BC08E3F21F4E4
:102A80008091F101826005C08F3F29F48091F101AE
:102A900084608093F1010895803F39F49091F501AD
:102AA00097FF35C01092F50159C0813F29F49091EC
:102AB000F5011916BCF32BC09091F401823F29F463
:102AC00097FF25C01092F40149C0833F19F41916ED
:102AD000CCF31DC09091F601893F29F41916BCF47E
:102AE0001092F6013BC08A3F19F497FF10C0F8CF4F
:102AF0008B3F39F49091F70197FF09C01092F701CD
:102B00002DC08C3F21F49091F7011916BCF39CE085
:102B1000980F953080F421E030E0A90102C0440F05
:102B2000551F9A95E2F7CA0180959091F301892388
:102B30008093F30113C08D3F21F48091F1018E7FCA
:102B40000BC08E3F21F48091F1018D7F05C08F3F36
:102B500029F48091F1018B7F8093F1018091F40140
:102B6000811106C08091F501811102C01092F0011F
:102B70008091F601811106C08091F701811102C098
:102B80001092EF0108950E94051E2091F401211179
:102B900004C02091F501222321F09093EE0180934F
:102BA000ED012091F601211104C02091F7012223AB
:102BB00021F09093EC018093EB0182EF91E00C9473
:102BC000051DEF92FF920F931F93CF93DF9300D0D9
:102BD00000D000D0CDB7DEB786E0E2EFF1E0DE0155
:102BE000119601900D928A95E1F7E090F401F09032
:102BF000F5010091F6011091F7011092F401109285
:102C0000F5011092F6011092F701E11003C0FF20C8
:102C100009F45DC08091ED019091EE010E941D1EAE
:102C2000AC019091F001992339F020910A0130E034
:102C30002417350758F04BC020910B018AE0289FDC
:102C4000900111242417350718F041C09F3F19F057
:102C50009F5F9093F001EE2061F00E946F141E14AC
:102C600014F09FEF01C091E0989F902D1124909354
:102C7000F401FF2061F00E946F141F1414F09FEF05
:102C800001C091E0989F902D11249093F50130910F
:102C9000F4013323E1F02091F5012223C1F045EB4B
:102CA0003403C0011124992319F09093F40103C057
:102CB00081E08093F40135EB2303C00111249923B3
:102CC00019F09093F50103C081E08093F5010111A3
:102CD00003C0112309F45DC08091EB019091EC01D8
:102CE0000E941D1EAC019091EF01992339F02091B3
:102CF000060130E02417350758F04BC0209107013A
:102D00008AE0289F900111242417350718F041C04C
:102D10009F3F19F09F5F9093EF01002361F00E94A5
:102D2000B814101614F09FEF01C091E0989F902DF9
:102D300011249093F601112361F00E94B81411162A
:102D400014F09FEF01C091E0989F902D1124909373
:102D5000F7013091F6013323E1F02091F7012223AE
:102D6000C1F045EB3403C0011124992319F090936D
:102D7000F60103C081E08093F60135EB2303C00127
:102D80001124992319F09093F70103C081E08093F7
:102D9000F7018091F40181110BC08091F50181113F
:102DA00007C08091F601811103C08091F701811164
:102DB0000E94C315EB82FC820D831E8386E0FE0118
:102DC0003196A2EFB1E001900D928A95E1F7269637
:102DD0000FB6F894DEBF0FBECDBFDF91CF911F912C
:102DE0000F91FF90EF900895E2EFF1E086E0DF01B0
:102DF0001D928A95E9F71092F0011092EF0110925E
:102E0000F101089583E290E00E942122823281F450
:102E100084E290E00E942122833051F485E290E028
:102E20000E94212291E0863009F090E0892F01C0B4
:102E300080E081700895CF93C82F811102C06FEF99
:102E400001C062E283E290E00E942F22C11102C021
:102E50006FEF01C063E084E290E00E942F22C11175
:102E600002C06FEF01C066E085E290E0CF910C9464
:102E70002F22089586E290E00E942122682F70E0C0
:102E800080E090E0089586E290E00C942F2280E0AC
:102E90000E941B1760E070E0CB010E9443170E9464
:102EA000A61A0E94831B81E00C941B170E943917FD
:102EB0000E940217811102C00C9447170895CF9306
:102EC000FB01C281CC23E9F09C0122513F45203116
:102ED000310520F482510E94931B0CC08031FFE524
:102EE0009F0751F481E00E94D90943E062E081E04C
:102EF0000E944E04C0E018C081319F45A9F482E0D1
:102F0000F2CF8031EFE59E0711F481E004C08131FA
:102F10009F4549F482E00E94E40943E062E081E0D9
:102F20000E944E0401C0C1E08C2FCF9108952FEF75
:102F3000FC0120830895EF92FF920F931F93CF938C
:102F4000DF93EC01062FE8818E2F90E0FC01319792
:102F5000E331F10508F091C0EE5AFF4F0C94F321D4
:102F6000198289E04DC08981823039F0833061F067
:102F7000813029F50E94111E02C00E943A179A83DF
:102F80008B837C836D837BC07E0182E0E80EF11C25
:102F900010E0812F0E941613F70181937F011F5FBC
:102FA0001530B9F76CC08981823049F46A817B8120
:102FB0008C819D810E94F9210E94431760C0602F7F
:102FC000CE010E9497175BC04B816A8189810E9464
:102FD000781A9C838D8353C02C813D81322723270F
:102FE00032274B816A8189810E94911A48C00E94D0
:102FF000A61A45C00E94361B24C00E94381B998324
:103000008A833DC06B8170E089819A81AE014C5FFB
:103010005F4F9827892798270E943B1B30C06B8100
:1030200070E089819A81AE014C5F5F4F98278927B4
:1030300098270E94601B23C00E94831B20C00E940F
:10304000651A89831CC06B8170E089819A81AE0109
:103050004C5F5F4F9827892798270E94E51A0FC079
:103060006B8170E089819A81AE014C5F5F4F982738
:10307000892798270E94081B02C08FEF8883602F42
:10308000CE01DF91CF911F910F91FF90EF900C94A3
:10309000871FCF93DF9397FF0DC0FB01228122236F
:1030A00049F0EC010E948718CE019F770E94FA1820
:1030B0000E94D41881E0DF91CF9108959091C902C8
:1030C000923069F48A3040F490E009966AE070E04A
:1030D0000E94DF21875A01C086500C94C2060C94CE
:1030E000B6058CE090E00E94212290E0A0E0B0E0E4
:1030F0008093C9029093CA02A093CB02B093CC02F2
:1031000008956091C9028CE090E00C942F220E94F7
:10311000F71C869581708093CE020E94F71C817007
:103120008093C8028091C902813039F48091CE0227
:10313000882319F089E30E94C2060E946E0E8093D4
:10314000CD020E94810E8091C902813071F048F059
:10315000823081F0843009F586EE0E94C20688E153
:103160001AC082EE0E94210618C088E193E00E94F6
:10317000D40313C08091C802811103C083E50E946B
:10318000C20682EE0E9421068FE39CE90197F1F7C7
:1031900000C0000087E50E94C2068FE39CE901970A
:1031A000F1F700C0000008958091C902813059F004
:1031B00030F0823089F08430C9F488E215C082EEA4
:1031C0000E94770613C08CE20E94C2068091CE0254
:1031D000882361F089E308C082EE0E94770680911F
:1031E000C802811103C083E50E94C2068091CD020E
:1031F0000C947E0E0F931F93CF93DF938C01CCE042
:10320000D0E0C8010C2E02C0969587950A94E2F78B
:103210008F700E945E182497CC3F8FEFD80789F7F4
:10322000DF91CF911F910F9108950F931F93CF932B
:10323000DF93EC018B01FB018281882361F00E9406
:103240006E0ECE01815E9C458530910520F4809301
:10325000C9020E948118B801CE01DF91CF911F9160
:103260000F910C944918CF93DF93EC01FB018281FD
:10327000882309F426C1C330FDE5DF0760F4CA3FA7
:103280009CE5D90768F49E0122503C452431310564
:1032900008F018C105C0C136EDE5DE0709F012C11E
:1032A0000E946D0F9093BD028093BC02C031FCE57B
:1032B000DF0709F4CAC008F041C0C8309CE5D9074F
:1032C00009F4A4C0F0F4C430FCE5DF0709F48CC0B5
:1032D00068F4C2309CE5D90709F482C0C330DC45EC
:1032E00009F0E5C08091BC028260DFC0C630FCE519
:1032F000DF0709F483C008F085C08091BC028860B4
:10330000D4C0CC309CE5D90709F490C068F4CA3029
:10331000FCE5DF0709F47EC008F084C00E945A096A
:103320008091BC028068C1C0CE309CE5D90709F409
:1033300081C008F086C08091BC0294C0CC3FFCE5FF
:10334000DF0709F47BC038F5C4319CE5D90709F4DF
:103350009AC058F4C231FCE5DF0709F47AC008F0DE
:103360007EC08091BC028F7BA0C0CA3F9CE5D9077C
:10337000F1F108F03FC0C531DC4509F098C08091FB
:10338000BC0282FB222720F991E0922790FB82F970
:1033900090FB83F98AC0C1158DE5D80709F467C091
:1033A00050F48091BD02CE3FECE5DE07C1F108F09C
:1033B0005BC08D7F65C0C2308DE5D80709F471C050
:1033C00008F46DC0C136DD4509F071C08091BC02C2
:1033D00084FB222720F991E0922790FB84F965C0B5
:1033E0008091BC02816061C08091BC0216C0809156
:1033F000BD0216C08091BD02826042C08091BC02B5
:10340000806153C08091BC0280624FC08091BC0239
:1034100080644BC08091BC028860846046C082603A
:1034200081602EC08091BC028E7F3FC08091BC0223
:103430008D7F3BC08091BC02877F37C08091BD02E9
:1034400014C08091BC028F7E30C08091BC028F7D01
:103450002CC00E945A098091BC028F7726C08091AF
:10346000BC02877F8B7F21C08D7F8E7F09C08091BA
:10347000BD02982F909591708E7F892B90FB81F9DA
:103480008093BD0214C00E945A098091BC0287FB40
:10349000222720F991E0922790FB87F906C081E06E
:1034A00001C080E00E94031002C08093BC028091A2
:1034B000BC029091BD020E947E0F0E945A0980E0DA
:1034C00001C081E0DF91CF91089584E0089550E03C
:1034D000440F551F28E0629F400D511D11249A0191
:1034E00068E2869F200D311D1124C9018796089539
:1034F0000F931F93CF93DF930E94671A8C010E9452
:103500002122C82FD0E0DC2FCC27C80101960E94D1
:1035100021229E01282BC901DF91CF911F910F918C
:1035200008950F931F93CF93DF93122F032F0E94C1
:10353000671AEC01602F0E942F22612FCE010196A5
:10354000DF91CF911F910F910C942F22AF92BF92D8
:10355000CF92DF92EF92FF920F931F93CF93DF935F
:10356000A12CE12CF12CB12C00E010E0C0E0D0E067
:103570006701C00ED11EF601EC0FFD1FEE0FFF1FFD
:10358000E653FF4F259134914C2F6B2D8A2D0E94CD
:10359000911A2196C430D10571F70C5F1F4FB39477
:1035A00085E0B812E3CF84E1E80EF11CA39484E037
:1035B000A812D9CFDF91CF911F910F91FF90EF907B
:1035C000DF90CF90BF90AF900895EF92FF920F934E
:1035D0001F93CF93DF93EA017A01E60EF71E8C0169
:1035E000C8018796CE15DF0561F0003A110520F479
:1035F0000E942122888301C0188221960F5F1F4FED
:10360000EFCFDF91CF911F910F91FF90EF90089531
:10361000EF92FF920F931F93CF93DF93EA017A010A
:10362000E60EF71E8C01C8018796CE15DF0551F016
:10363000003A110518F468810E942F2221960F5F2D
:103640001F4FF1CFDF91CF911F910F91FF90EF901E
:103650000895462F843038F4753028F4643018F417
:10366000672F0C94781A80E090E0089580E1089527
:1036700089E393E00895EF92FF920F931F93CF9306
:10368000DF93EA017A01E60EF71E8C01C801895327
:103690009F4FCE15DF0569F0093323E0120720F4B0
:1036A0000E942122888301C0188221960F5F1F4F3C
:1036B000EDCFDF91CF911F910F91FF90EF90089583
:1036C000EF92FF920F931F93CF93DF93EA017A015A
:1036D000E60EF71E8C01C80189539F4FCE15DF05FA
:1036E00059F0093323E0120718F468810E942F2251
:1036F00021960F5F1F4FEFCFDF91CF911F910F9159
:10370000FF90EF900895CF93DF93C7ECD0E060E097
:10371000CE010E942F222196C11584E0D807B9F767
:10372000DF91CF910895DF92EF92FF920F931F9355
:10373000CF93DF9300D000D0CDB7DEB7F82E8FE067
:103740008F15E8F18FEF93E00E942122811137C09D
:1037500007EC10E0FF2069F0011584E0180779F10B
:10376000C8010E942122811101C0FA940F5F1F4FEE
:10377000F1CF19821A821B821C82DD24D394780136
:103780008FEFE81AF80AC8010E94212289831A8261
:103790008823A9F09FEF980F933058F48A83D98239
:1037A0000E5F1F4FC7010E9421228B83882339F0AF
:1037B0007801CE0101960E94B3058701E0CF0F90FA
:1037C0000F900F900F90DF91CF911F910F91FF906D
:1037D000EF90DF900895CF93DF9386319C4541F5BC
:1037E000EB010E946E0E982F8A8120910201309188
:1037F0000301882379F09A7A81E009F480E08093CC
:10380000F801911102C069E201C065E3C9010E949B
:10381000811D0AC08091F801811102C069E201C0D6
:1038200065E3C9010E94831D0E94C30E80E001C0B0
:1038300081E0DF91CF9108950F931F93CF93DF9392
:10384000C42FD22FFC0182818823C9F04093FB0151
:103850000E94051E9093FA018093F90180E28C0F7B
:10386000883008F057C0C77081E001C0880FCA9542
:10387000EAF7DF91CF911F910F910C94CB068091C5
:10388000FB01481330C08091F9019091FA010E9428
:103890001D1E883C910538F510E21D0FCD17B9F0BB
:1038A00080E28C0F883040F4C77081E001C0880F3F
:1038B000CA95EAF70E94D206183028F581E09D2FBC
:1038C000977001C0880F9A95EAF70E94CB06802F67
:1038D0000E94C2061830F0F4D77081E001C0880F52
:1038E000DA95EAF70AC080E28C0F883098F4C77046
:1038F00081E001C0880FCA95EAF7DF91CF911F914F
:103900000F910C94D206802FDF91CF911F910F91D0
:103910000C94C206DF91CF911F910F9108950F93E0
:103920009C01CB01233F4CE5340731F188F4283D5D
:10393000FCE53F07D9F0293D4CE5340779F1273DF7
:103940003C45A9F506E221EE41EE67ED7CE52BC092
:10395000253FFCE53F07E1F0A8F0263F3C4539F55F
:1039600007E225EE46EE66EF7CE51DC007E225EE98
:1039700045EE68ED7CE517C006E221EE40EE63EF10
:103980007CE511C007E225EE44EE64EF7CE50BC058
:1039900006E221EE42EE65EF7CE505C008E221E09B
:1039A00045EE69ED7CE50E941C1C80E008C0FC012E
:1039B0008281882319F01092FB0101C081E00F91F0
:1039C0000895909387018093860108959093010252
:1039D000809300020895E0910002F0910102309777
:1039E00021F00190F081E02D099480E008950E947B
:1039F000EB1C0895E0910002F0910102309721F054
:103A00000280F381E02D09940895E0910002F09185
:103A10000102309739F022E0DC012C930480F5811B
:103A2000E02D099408952091FE013091FF0128179F
:103A3000390771F09093FF018093FE01E09100023D
:103A4000F0910102309721F00680F781E02D099472
:103A500008952091FC013091FD012817390771F07C
:103A60009093FD018093FC01E0910002F09101022E
:103A7000309721F00084F185E02D09940895FC0130
:103A8000329697E080E0915029F021912223D9F3DA
:103A90008F5FF9CF0895662349F0FC0132960896AE
:103AA0002191621729F0E817F907D1F780E008950E
:103AB00081E008959C01FC0132969FEF80E04191E6
:103AC000461789F09F3F19F4411101C0982F8F5F6D
:103AD0008630A9F79F3F39F0F901E90FF11D97FDF5
:103AE000FA956283089508959C012A5F3F4FFC0177
:103AF0004281461301C01282019682179307B9F7DB
:103B000008950C945A1D0C94741D029626E0FC0135
:103B100011922A95E9F70895089580910502882366
:103B200031F10E9466041092020220E488E190E0E4
:103B30000FB6F894A895809360000FBE20936000A4
:103B400083B7817F846083BF83B7816083BF7894AC
:103B5000889583B78E7F83BF0FB6F894A895809120
:103B60006000886180936000109260000FBE08952D
:103B700008950C94B81DCF930E94B91D0E94DE13C6
:103B80000E94B81DC0E08C2F0E941613811104C042
:103B9000CF5FC530C1F701C081E0CF9108950E9489
:103BA0005A090C94DE041F920F920FB60F92112443
:103BB0008F939F93AF93BF9380910202811113C0A3
:103BC0008091CF029091D002A091D102B091D20207
:103BD0004196A11DB11D8093CF029093D002A09376
:103BE000D102B093D202BF91AF919F918F910F906C
:103BF0000FBE0F901F90189582E084BD93E095BD95
:103C00009AEF97BD80936E0008952FB7F894809136
:103C1000CF029091D002A091D102B091D2022FBFD9
:103C200008952FB7F8946091CF027091D0028091DF
:103C3000D1029091D2022FBF08959C014FB7F89402
:103C40008091CF029091D002A091D102B091D20286
:103C50004FBF821B930B089578941F920F920FB65B
:103C60000F9211248F939F93AF93BF938091CF02B4
:103C70009091D002A091D102B091D2020196A11DE3
:103C8000B11D8093CF029093D002A093D102B09344
:103C9000D202BF91AF919F918F910F900FBE0F9065
:103CA0001F90189598E088E10FB6F894A895809336
:103CB00060000FBE90936000A895F894D8E0CEEF16
:103CC00028E3299320E0299314BEFFCF08950E9492
:103CD000051E909304028093030290E080E80FB6E3
:103CE000F89480936100909361000FBE08950E9444
:103CF000C421539A80E0815041F0A895EFE9FFE09C
:103D00003197F1F700C00000F6CF539878940895EA
:103D10000E94C11F0E94E61C2FEF80E792E0215015
:103D200080409040E1F700C0000008958091FA02C1
:103D3000882389F01092FA020E94051E90930402D3
:103D400080930302809105028823D1F1109205022D
:103D50000E94CF1D11C080910502811111C0809178
:103D60000302909104020E941D1E069728F081E034
:103D7000809305020E948D1D80910502882301F128
:103D80000E948D1D0E94BB1D882391F1F8942AB1D9
:103D90005B9A822F8C608AB99BB18CE098279BB983
:103DA0003FE748E391E0315040409040E1F700C0E8
:103DB00000009BB189278BB92AB95B987894089544
:103DC0000E94CD2080910003882329F08091DE029B
:103DD00084FD0E9440100E942E1F0E94CD208091E1
:103DE0000003882329F08091170384FD0C94B51FEC
:103DF00008958091BB020895089590910B02981345
:103E000007C02091090230910A0226173707A9F04E
:103E100080930B0270930A0260930902809306025A
:103E200070930802609307028091170384FF05C016
:103E300063E086E092E00C94C5200895BC0184E024
:103E40000C94FD1EBC0183E00C94FD1E2091170311
:103E500024FF03C066E00C94C5200895CF93DF9340
:103E6000CAE0D0E08091DE0284FF18C08091380261
:103E7000909139029817E1F028E0829FC001112447
:103E800068E0865C9D4F0E94C1208091380290E0DE
:103E900001968F709927809338020AC00E94CD2026
:103EA0008FE99FE00197F1F700C000002197D1F65C
:103EB000DF91CF910895CF93DF93EC01A091390268
:103EC000B0E0CD0101968F70992720913802281714
:103ED00079F093E0AA0FBB1F9A95E1F7A65CBD4F5E
:103EE00098E0FE0101900D929A95E1F780933902D6
:103EF0000E94CD200E942E1F88E0FE01A0E3B2E0C8
:103F000001900D928A95E1F7DF91CF9108950F937B
:103F10001F93CF93DF93EC01603211F58C01005EAB
:103F20001F4F8091EA0284FD03C00E94CD20F9CF8B
:103F300068E0CE010E94C92028960C171D0789F75A
:103F40008091EA0284FD03C00E94CD20F9CF60E099
:103F500080E090E0DF91CF911F910F910C94C920E8
:103F6000DF91CF911F910F91089580910F028032C0
:103F700039F460E280E192E00E949B1710920F02F8
:103F800008958CE091E00895FC0180818076803274
:103F9000A1F58181813061F484819581892B69F556
:103FA00080E392E09093FC028093FB0288E0089506
:103FB000823041F48AEB92E09093FC028093FB0202
:103FC00081E008958A3021F483818093BA0215C07C
:103FD000893099F4828193818115924081F48481A2
:103FE0009581892B61F481E080930E02868197810F
:103FF00090930D0280930C0202C080E008958FEF31
:10400000089520910C0230910D02232B71F0209124
:104010000E02213051F4FC0180818093BB0210928A
:104020000D0210920C0281E008958FEF0895683020
:1040300019F010920F02089520910F02A22FB0E004
:10404000A931B105B4F7FC01A05FBD4F08963191CD
:104050003D93E817F907D9F7285F20930F020895D9
:10406000FC0193819330D9F068F4913081F0923063
:1040700009F063C08AE192E09093FC028093FB0216
:104080008BE50895913229F19232B9F156C085E756
:1040900092E09093FC028093FB0282E1089582817A
:1040A000813079F030F0823009F047C087E892E043
:1040B0003EC081EC92E09093FC028093FB0284E08E
:1040C00008958BEA92E09093FC028093FB0284E1D6
:1040D00008958281813049F028F0823071F585E6BB
:1040E00092E005C08CE292E002C085E492E09093F9
:1040F000FC028093FB0289E00895848195818130E0
:10410000910599F050F00297C1F487EE92E09093F8
:10411000FC028093FB028BE7089582E693E0909384
:10412000FC028093FB0280E4089585EC92E090937A
:10413000FC028093FB0282E2089580E008951F93C1
:10414000CF93DF93162FEA01288124FF05C0398120
:1041500028E82327298302C02AE52883212FFC0190
:10416000CE010296DC0131913D9321501216DCF311
:10417000612F0E942F021C5F1883DF91CF911F9146
:1041800008954EED52E00C949F2047E153E00C94CB
:104190009F204AEE52E00C949F20CF93DF936091D2
:1041A000FD02635067FD93C08091F902CCE0D0E03E
:1041B000C81BD109CF5FDC4F8091F802803120F419
:1041C000CE010E94172081C08D3209F06EC0683088
:1041D00009F07BC083EC8093D3028AE580931901B8
:1041E0001092F7028881807621F0CE010E94C41FD0
:1041F00049C09A811092DC028981811106C0109217
:10420000DD022CED32E082E038C0853019F4909365
:10421000FE0230C08630A1F48B81813041F08230C3
:1042200031F0833021F0813211F0823221F4CE015D
:104230000E94302001C080E090E49093F70222C0F9
:10424000883089F0893019F49093000313C08A30C4
:1042500069F08B3079F48BE48093DF02809318034C
:104260008093EB0207C020E033E002C02CED32E087
:1042700081E003C02CED32E080E03093FC0220931B
:10428000FB0209C08F3F39F4988197FD8E8190E839
:104290009093F70207C09F81911104C09E819817E7
:1042A00008F4892F8093180110C08091F70287FFCE
:1042B0000CC0CE010E9401208F3F21F48EE180933B
:1042C000190103C08111109218011092FD02809112
:1042D000190184FF4CC0809118018F3F09F447C039
:1042E000C82F893008F0C8E08C1B8093180190918A
:1042F000D30288E889278093D302CC2359F1809197
:10430000FB029091FC022091F70226FF12C0A3ED60
:10431000B2E02C2FAC01435D5240FA01EA0FFB1FC3
:10432000E4911196EC931197215011962111F5CF3C
:1043300008C0E4EDF2E0DC012C2F3D9131932150D7
:10434000E1F701962FEF2C0F820F911D9093FC0245
:104350008093FB026C2F84ED92E00E942F02CC5FD1
:10436000CC3019F08FEF80931801C093190184E1CC
:1043700099B19C7031F48150D9F71092FE021092DD
:10438000F602DF91CF910895CF93DF93E9E6F0E055
:10439000808188608083E99ACEEDD2E08BE48983C6
:1043A000A7E1B3E011968C931197EAEEF2E08183D6
:1043B0008AE588838C938083DF91CF91089597FB62
:1043C000072E16F4009407D077FD09D00E94002232
:1043D00007FC05D03EF4909581959F4F0895709508
:1043E00061957F4F0895EE0FFF1F0590F491E02D2A
:1043F00009946927962769277827872778270895BA
:10440000AA1BBB1B51E107C0AA1FBB1FA617B707FA
:1044100010F0A61BB70B881F991F5A95A9F7809516
:104420009095BC01CD010895FB01DC0104C08D9184
:104430000190801921F441505040C8F7881B990B16
:104440000895F999FECF92BD81BDF89A992780B55C
:104450000895A8E1B0E042E050E00C945522262FE8
:10446000F999FECF92BD81BDF89A019700B402166A
:1044700039F01FBA20BD0FB6F894FA9AF99A0FBE18
:1044800008950396272F0E9430220E942F22252F65
:104490000E943022242F0C9430220196272F0E9454
:1044A00030220C942F22DC01CB01FC01F999FECFC4
:1044B00006C0F2BDE1BDF89A319600B40D924150AC
:0A44C0005040B8F70895F894FFCFBC
:1044CA00C800CE012808641E140A321EF91E5B1F9A
:1044DA00261F221F1E1FFC1EFF5AE200E900EA00E7
:1044EA00B500B600B700CD008301CC008A01920165
:1044FA0094012102230224022502260227022A020B
:10450A00B300B4006F007000818283E200E900EA20
:10451A0000B500B600B700CD008301CC008A019235
:10452A000194012102230224022502260227022ADB
:10453A0002B300B4006F00700081828395969730B1
:06454A006564636261007C
:00000001FF
